{
	"MergeArray.sol": {
		"MergeArray": {
			"abi": [
				{
					"inputs": [
						{
							"internalType": "uint256[]",
							"name": "arr",
							"type": "uint256[]"
						},
						{
							"internalType": "uint256",
							"name": "target",
							"type": "uint256"
						}
					],
					"name": "binarySearch",
					"outputs": [
						{
							"internalType": "int256",
							"name": "",
							"type": "int256"
						}
					],
					"stateMutability": "pure",
					"type": "function"
				},
				{
					"inputs": [
						{
							"internalType": "uint256[]",
							"name": "a",
							"type": "uint256[]"
						},
						{
							"internalType": "uint256[]",
							"name": "b",
							"type": "uint256[]"
						}
					],
					"name": "merge",
					"outputs": [
						{
							"internalType": "uint256[]",
							"name": "",
							"type": "uint256[]"
						}
					],
					"stateMutability": "pure",
					"type": "function"
				}
			],
			"devdoc": {
				"kind": "dev",
				"methods": {},
				"version": 1
			},
			"evm": {
				"assembly": "    /* \"MergeArray.sol\":58:1600  contract MergeArray{... */\n  mstore(0x40, 0x80)\n  callvalue\n  dup1\n  iszero\n  tag_1\n  jumpi\n  revert(0x00, 0x00)\ntag_1:\n  pop\n  dataSize(sub_0)\n  dup1\n  dataOffset(sub_0)\n  0x00\n  codecopy\n  0x00\n  return\nstop\n\nsub_0: assembly {\n        /* \"MergeArray.sol\":58:1600  contract MergeArray{... */\n      mstore(0x40, 0x80)\n      callvalue\n      dup1\n      iszero\n      tag_1\n      jumpi\n      revert(0x00, 0x00)\n    tag_1:\n      pop\n      jumpi(tag_2, lt(calldatasize, 0x04))\n      shr(0xe0, calldataload(0x00))\n      dup1\n      0x088b9bf6\n      eq\n      tag_3\n      jumpi\n      dup1\n      0xb12601da\n      eq\n      tag_4\n      jumpi\n    tag_2:\n      revert(0x00, 0x00)\n        /* \"MergeArray.sol\":86:684  function merge(uint[] memory a ,uint[] memory b) public pure returns (uint[] memory){... */\n    tag_3:\n      tag_5\n      0x04\n      dup1\n      calldatasize\n      sub\n      dup2\n      add\n      swap1\n      tag_6\n      swap2\n      swap1\n      tag_7\n      jump\t// in\n    tag_6:\n      tag_8\n      jump\t// in\n    tag_5:\n      mload(0x40)\n      tag_9\n      swap2\n      swap1\n      tag_10\n      jump\t// in\n    tag_9:\n      mload(0x40)\n      dup1\n      swap2\n      sub\n      swap1\n      return\n        /* \"MergeArray.sol\":692:1597  function binarySearch(uint256[] memory arr ,uint256 target)public pure returns(int256){... */\n    tag_4:\n      tag_11\n      0x04\n      dup1\n      calldatasize\n      sub\n      dup2\n      add\n      swap1\n      tag_12\n      swap2\n      swap1\n      tag_13\n      jump\t// in\n    tag_12:\n      tag_14\n      jump\t// in\n    tag_11:\n      mload(0x40)\n      tag_15\n      swap2\n      swap1\n      tag_16\n      jump\t// in\n    tag_15:\n      mload(0x40)\n      dup1\n      swap2\n      sub\n      swap1\n      return\n        /* \"MergeArray.sol\":86:684  function merge(uint[] memory a ,uint[] memory b) public pure returns (uint[] memory){... */\n    tag_8:\n        /* \"MergeArray.sol\":156:169  uint[] memory */\n      0x60\n        /* \"MergeArray.sol\":181:201  uint[] memory result */\n      0x00\n        /* \"MergeArray.sol\":224:225  b */\n      dup3\n        /* \"MergeArray.sol\":224:232  b.length */\n      mload\n        /* \"MergeArray.sol\":215:216  a */\n      dup5\n        /* \"MergeArray.sol\":215:223  a.length */\n      mload\n        /* \"MergeArray.sol\":215:232  a.length+b.length */\n      tag_18\n      swap2\n      swap1\n      tag_19\n      jump\t// in\n    tag_18:\n        /* \"MergeArray.sol\":204:233  new uint[](a.length+b.length) */\n      0xffffffffffffffff\n      dup2\n      gt\n      iszero\n      tag_20\n      jumpi\n      tag_21\n      tag_22\n      jump\t// in\n    tag_21:\n    tag_20:\n      mload(0x40)\n      swap1\n      dup1\n      dup3\n      mstore\n      dup1\n      0x20\n      mul\n      0x20\n      add\n      dup3\n      add\n      0x40\n      mstore\n      dup1\n      iszero\n      tag_23\n      jumpi\n      dup2\n      0x20\n      add\n      0x20\n      dup3\n      mul\n      dup1\n      calldatasize\n      dup4\n      calldatacopy\n      dup1\n      dup3\n      add\n      swap2\n      pop\n      pop\n      swap1\n      pop\n    tag_23:\n      pop\n        /* \"MergeArray.sol\":181:233  uint[] memory result = new uint[](a.length+b.length) */\n      swap1\n      pop\n        /* \"MergeArray.sol\":244:251  uint  i */\n      0x00\n        /* \"MergeArray.sol\":254:255  0 */\n      0x00\n        /* \"MergeArray.sol\":244:255  uint  i = 0 */\n      swap1\n      pop\n        /* \"MergeArray.sol\":266:273  uint  j */\n      0x00\n        /* \"MergeArray.sol\":276:277  0 */\n      0x00\n        /* \"MergeArray.sol\":266:277  uint  j = 0 */\n      swap1\n      pop\n        /* \"MergeArray.sol\":288:294  uint k */\n      0x00\n        /* \"MergeArray.sol\":297:298  0 */\n      0x00\n        /* \"MergeArray.sol\":288:298  uint k = 0 */\n      swap1\n      pop\n        /* \"MergeArray.sol\":311:500  while(i < a.length && j < b.length ){... */\n    tag_24:\n        /* \"MergeArray.sol\":321:322  a */\n      dup7\n        /* \"MergeArray.sol\":321:329  a.length */\n      mload\n        /* \"MergeArray.sol\":317:318  i */\n      dup4\n        /* \"MergeArray.sol\":317:329  i < a.length */\n      lt\n        /* \"MergeArray.sol\":317:345  i < a.length && j < b.length */\n      dup1\n      iszero\n      tag_26\n      jumpi\n      pop\n        /* \"MergeArray.sol\":337:338  b */\n      dup6\n        /* \"MergeArray.sol\":337:345  b.length */\n      mload\n        /* \"MergeArray.sol\":333:334  j */\n      dup3\n        /* \"MergeArray.sol\":333:345  j < b.length */\n      lt\n        /* \"MergeArray.sol\":317:345  i < a.length && j < b.length */\n    tag_26:\n        /* \"MergeArray.sol\":311:500  while(i < a.length && j < b.length ){... */\n      iszero\n      tag_25\n      jumpi\n        /* \"MergeArray.sol\":372:373  b */\n      dup6\n        /* \"MergeArray.sol\":374:375  j */\n      dup3\n        /* \"MergeArray.sol\":372:376  b[j] */\n      dup2\n      mload\n      dup2\n      lt\n      tag_27\n      jumpi\n      tag_28\n      tag_29\n      jump\t// in\n    tag_28:\n    tag_27:\n      0x20\n      mul\n      0x20\n      add\n      add\n      mload\n        /* \"MergeArray.sol\":365:366  a */\n      dup8\n        /* \"MergeArray.sol\":367:368  i */\n      dup5\n        /* \"MergeArray.sol\":365:369  a[i] */\n      dup2\n      mload\n      dup2\n      lt\n      tag_30\n      jumpi\n      tag_31\n      tag_29\n      jump\t// in\n    tag_31:\n    tag_30:\n      0x20\n      mul\n      0x20\n      add\n      add\n      mload\n        /* \"MergeArray.sol\":365:376  a[i] <=b[j] */\n      gt\n        /* \"MergeArray.sol\":362:489  if(a[i] <=b[j]){... */\n      tag_32\n      jumpi\n        /* \"MergeArray.sol\":409:410  a */\n      dup7\n        /* \"MergeArray.sol\":411:414  i++ */\n      dup4\n      dup1\n      tag_33\n      swap1\n      tag_34\n      jump\t// in\n    tag_33:\n      swap5\n      pop\n        /* \"MergeArray.sol\":409:415  a[i++] */\n      dup2\n      mload\n      dup2\n      lt\n      tag_35\n      jumpi\n      tag_36\n      tag_29\n      jump\t// in\n    tag_36:\n    tag_35:\n      0x20\n      mul\n      0x20\n      add\n      add\n      mload\n        /* \"MergeArray.sol\":395:401  result */\n      dup5\n        /* \"MergeArray.sol\":402:405  k++ */\n      dup3\n      dup1\n      tag_37\n      swap1\n      tag_34\n      jump\t// in\n    tag_37:\n      swap4\n      pop\n        /* \"MergeArray.sol\":395:406  result[k++] */\n      dup2\n      mload\n      dup2\n      lt\n      tag_38\n      jumpi\n      tag_39\n      tag_29\n      jump\t// in\n    tag_39:\n    tag_38:\n      0x20\n      mul\n      0x20\n      add\n      add\n        /* \"MergeArray.sol\":395:415  result[k++] = a[i++] */\n      dup2\n      dup2\n      mstore\n      pop\n      pop\n        /* \"MergeArray.sol\":362:489  if(a[i] <=b[j]){... */\n      jump(tag_40)\n    tag_32:\n        /* \"MergeArray.sol\":467:468  b */\n      dup6\n        /* \"MergeArray.sol\":469:472  j++ */\n      dup3\n      dup1\n      tag_41\n      swap1\n      tag_34\n      jump\t// in\n    tag_41:\n      swap4\n      pop\n        /* \"MergeArray.sol\":467:473  b[j++] */\n      dup2\n      mload\n      dup2\n      lt\n      tag_42\n      jumpi\n      tag_43\n      tag_29\n      jump\t// in\n    tag_43:\n    tag_42:\n      0x20\n      mul\n      0x20\n      add\n      add\n      mload\n        /* \"MergeArray.sol\":453:459  result */\n      dup5\n        /* \"MergeArray.sol\":460:463  k++ */\n      dup3\n      dup1\n      tag_44\n      swap1\n      tag_34\n      jump\t// in\n    tag_44:\n      swap4\n      pop\n        /* \"MergeArray.sol\":453:464  result[k++] */\n      dup2\n      mload\n      dup2\n      lt\n      tag_45\n      jumpi\n      tag_46\n      tag_29\n      jump\t// in\n    tag_46:\n    tag_45:\n      0x20\n      mul\n      0x20\n      add\n      add\n        /* \"MergeArray.sol\":453:473  result[k++] = b[j++] */\n      dup2\n      dup2\n      mstore\n      pop\n      pop\n        /* \"MergeArray.sol\":362:489  if(a[i] <=b[j]){... */\n    tag_40:\n        /* \"MergeArray.sol\":311:500  while(i < a.length && j < b.length ){... */\n      jump(tag_24)\n    tag_25:\n        /* \"MergeArray.sol\":510:577  while(i < a.length ){... */\n    tag_47:\n        /* \"MergeArray.sol\":520:521  a */\n      dup7\n        /* \"MergeArray.sol\":520:528  a.length */\n      mload\n        /* \"MergeArray.sol\":516:517  i */\n      dup4\n        /* \"MergeArray.sol\":516:528  i < a.length */\n      lt\n        /* \"MergeArray.sol\":510:577  while(i < a.length ){... */\n      iszero\n      tag_48\n      jumpi\n        /* \"MergeArray.sol\":559:560  a */\n      dup7\n        /* \"MergeArray.sol\":561:564  i++ */\n      dup4\n      dup1\n      tag_49\n      swap1\n      tag_34\n      jump\t// in\n    tag_49:\n      swap5\n      pop\n        /* \"MergeArray.sol\":559:565  a[i++] */\n      dup2\n      mload\n      dup2\n      lt\n      tag_50\n      jumpi\n      tag_51\n      tag_29\n      jump\t// in\n    tag_51:\n    tag_50:\n      0x20\n      mul\n      0x20\n      add\n      add\n      mload\n        /* \"MergeArray.sol\":545:551  result */\n      dup5\n        /* \"MergeArray.sol\":552:555  k++ */\n      dup3\n      dup1\n      tag_52\n      swap1\n      tag_34\n      jump\t// in\n    tag_52:\n      swap4\n      pop\n        /* \"MergeArray.sol\":545:556  result[k++] */\n      dup2\n      mload\n      dup2\n      lt\n      tag_53\n      jumpi\n      tag_54\n      tag_29\n      jump\t// in\n    tag_54:\n    tag_53:\n      0x20\n      mul\n      0x20\n      add\n      add\n        /* \"MergeArray.sol\":545:565  result[k++] = a[i++] */\n      dup2\n      dup2\n      mstore\n      pop\n      pop\n        /* \"MergeArray.sol\":510:577  while(i < a.length ){... */\n      jump(tag_47)\n    tag_48:\n        /* \"MergeArray.sol\":587:653  while(j < b.length){... */\n    tag_55:\n        /* \"MergeArray.sol\":597:598  b */\n      dup6\n        /* \"MergeArray.sol\":597:605  b.length */\n      mload\n        /* \"MergeArray.sol\":593:594  j */\n      dup3\n        /* \"MergeArray.sol\":593:605  j < b.length */\n      lt\n        /* \"MergeArray.sol\":587:653  while(j < b.length){... */\n      iszero\n      tag_56\n      jumpi\n        /* \"MergeArray.sol\":635:636  b */\n      dup6\n        /* \"MergeArray.sol\":637:640  j++ */\n      dup3\n      dup1\n      tag_57\n      swap1\n      tag_34\n      jump\t// in\n    tag_57:\n      swap4\n      pop\n        /* \"MergeArray.sol\":635:641  b[j++] */\n      dup2\n      mload\n      dup2\n      lt\n      tag_58\n      jumpi\n      tag_59\n      tag_29\n      jump\t// in\n    tag_59:\n    tag_58:\n      0x20\n      mul\n      0x20\n      add\n      add\n      mload\n        /* \"MergeArray.sol\":621:627  result */\n      dup5\n        /* \"MergeArray.sol\":628:631  k++ */\n      dup3\n      dup1\n      tag_60\n      swap1\n      tag_34\n      jump\t// in\n    tag_60:\n      swap4\n      pop\n        /* \"MergeArray.sol\":621:632  result[k++] */\n      dup2\n      mload\n      dup2\n      lt\n      tag_61\n      jumpi\n      tag_62\n      tag_29\n      jump\t// in\n    tag_62:\n    tag_61:\n      0x20\n      mul\n      0x20\n      add\n      add\n        /* \"MergeArray.sol\":621:641  result[k++] = b[j++] */\n      dup2\n      dup2\n      mstore\n      pop\n      pop\n        /* \"MergeArray.sol\":587:653  while(j < b.length){... */\n      jump(tag_55)\n    tag_56:\n        /* \"MergeArray.sol\":670:676  result */\n      dup4\n        /* \"MergeArray.sol\":663:676  return result */\n      swap5\n      pop\n      pop\n      pop\n      pop\n      pop\n        /* \"MergeArray.sol\":86:684  function merge(uint[] memory a ,uint[] memory b) public pure returns (uint[] memory){... */\n      swap3\n      swap2\n      pop\n      pop\n      jump\t// out\n        /* \"MergeArray.sol\":692:1597  function binarySearch(uint256[] memory arr ,uint256 target)public pure returns(int256){... */\n    tag_14:\n        /* \"MergeArray.sol\":771:777  int256 */\n      0x00\n        /* \"MergeArray.sol\":789:801  int256 index */\n      0x00\n        /* \"MergeArray.sol\":804:806  -1 */\n      0xffffffffffffffffffffffffffffffffffffffffffffffffffffffffffffffff\n        /* \"MergeArray.sol\":789:806  int256 index = -1 */\n      swap1\n      pop\n        /* \"MergeArray.sol\":819:830  uint256 low */\n      0x00\n        /* \"MergeArray.sol\":833:834  0 */\n      0x00\n        /* \"MergeArray.sol\":819:834  uint256 low = 0 */\n      swap1\n      pop\n        /* \"MergeArray.sol\":845:856  uint256 mid */\n      0x00\n        /* \"MergeArray.sol\":859:860  0 */\n      0x00\n        /* \"MergeArray.sol\":845:860  uint256 mid = 0 */\n      swap1\n      pop\n        /* \"MergeArray.sol\":871:884  uint256 hight */\n      0x00\n        /* \"MergeArray.sol\":900:901  1 */\n      0x01\n        /* \"MergeArray.sol\":887:890  arr */\n      dup8\n        /* \"MergeArray.sol\":887:897  arr.length */\n      mload\n        /* \"MergeArray.sol\":887:901  arr.length - 1 */\n      tag_64\n      swap2\n      swap1\n      tag_65\n      jump\t// in\n    tag_64:\n        /* \"MergeArray.sol\":871:901  uint256 hight = arr.length - 1 */\n      swap1\n      pop\n        /* \"MergeArray.sol\":912:919  bool ff */\n      0x00\n        /* \"MergeArray.sol\":933:936  arr */\n      dup8\n        /* \"MergeArray.sol\":937:938  0 */\n      0x00\n        /* \"MergeArray.sol\":933:939  arr[0] */\n      dup2\n      mload\n      dup2\n      lt\n      tag_66\n      jumpi\n      tag_67\n      tag_29\n      jump\t// in\n    tag_67:\n    tag_66:\n      0x20\n      mul\n      0x20\n      add\n      add\n      mload\n        /* \"MergeArray.sol\":922:925  arr */\n      dup9\n        /* \"MergeArray.sol\":926:931  hight */\n      dup4\n        /* \"MergeArray.sol\":922:932  arr[hight] */\n      dup2\n      mload\n      dup2\n      lt\n      tag_68\n      jumpi\n      tag_69\n      tag_29\n      jump\t// in\n    tag_69:\n    tag_68:\n      0x20\n      mul\n      0x20\n      add\n      add\n      mload\n        /* \"MergeArray.sol\":922:939  arr[hight]>arr[0] */\n      gt\n        /* \"MergeArray.sol\":912:939  bool ff = arr[hight]>arr[0] */\n      swap1\n      pop\n        /* \"MergeArray.sol\":979:1565  while(low<=hight){... */\n    tag_70:\n        /* \"MergeArray.sol\":990:995  hight */\n      dup2\n        /* \"MergeArray.sol\":985:988  low */\n      dup5\n        /* \"MergeArray.sol\":985:995  low<=hight */\n      gt\n        /* \"MergeArray.sol\":979:1565  while(low<=hight){... */\n      tag_71\n      jumpi\n        /* \"MergeArray.sol\":1039:1040  2 */\n      0x02\n        /* \"MergeArray.sol\":1033:1036  low */\n      dup5\n        /* \"MergeArray.sol\":1025:1030  hight */\n      dup4\n        /* \"MergeArray.sol\":1025:1036  hight - low */\n      tag_72\n      swap2\n      swap1\n      tag_65\n      jump\t// in\n    tag_72:\n        /* \"MergeArray.sol\":1023:1040  ( hight - low )/2 */\n      tag_73\n      swap2\n      swap1\n      tag_74\n      jump\t// in\n    tag_73:\n        /* \"MergeArray.sol\":1017:1020  low */\n      dup5\n        /* \"MergeArray.sol\":1017:1040  low + ( hight - low )/2 */\n      tag_75\n      swap2\n      swap1\n      tag_19\n      jump\t// in\n    tag_75:\n        /* \"MergeArray.sol\":1011:1040  mid = low + ( hight - low )/2 */\n      swap3\n      pop\n        /* \"MergeArray.sol\":1066:1069  arr */\n      dup8\n        /* \"MergeArray.sol\":1070:1073  mid */\n      dup4\n        /* \"MergeArray.sol\":1066:1074  arr[mid] */\n      dup2\n      mload\n      dup2\n      lt\n      tag_76\n      jumpi\n      tag_77\n      tag_29\n      jump\t// in\n    tag_77:\n    tag_76:\n      0x20\n      mul\n      0x20\n      add\n      add\n      mload\n        /* \"MergeArray.sol\":1058:1064  target */\n      dup8\n        /* \"MergeArray.sol\":1058:1074  target==arr[mid] */\n      sub\n        /* \"MergeArray.sol\":1055:1160  if(target==arr[mid]){... */\n      tag_78\n      jumpi\n        /* \"MergeArray.sol\":1109:1112  mid */\n      dup3\n        /* \"MergeArray.sol\":1094:1113  index = int256(mid) */\n      swap5\n      pop\n        /* \"MergeArray.sol\":1139:1144  index */\n      dup5\n        /* \"MergeArray.sol\":1132:1144  return index */\n      swap6\n      pop\n      pop\n      pop\n      pop\n      pop\n      pop\n      jump(tag_63)\n        /* \"MergeArray.sol\":1055:1160  if(target==arr[mid]){... */\n    tag_78:\n        /* \"MergeArray.sol\":1177:1179  ff */\n      dup1\n        /* \"MergeArray.sol\":1174:1540  if(ff){... */\n      iszero\n      tag_79\n      jumpi\n        /* \"MergeArray.sol\":1211:1217  target */\n      dup7\n        /* \"MergeArray.sol\":1202:1205  arr */\n      dup9\n        /* \"MergeArray.sol\":1206:1209  mid */\n      dup5\n        /* \"MergeArray.sol\":1202:1210  arr[mid] */\n      dup2\n      mload\n      dup2\n      lt\n      tag_80\n      jumpi\n      tag_81\n      tag_29\n      jump\t// in\n    tag_81:\n    tag_80:\n      0x20\n      mul\n      0x20\n      add\n      add\n      mload\n        /* \"MergeArray.sol\":1202:1217  arr[mid]<target */\n      lt\n        /* \"MergeArray.sol\":1199:1332  if(arr[mid]<target){... */\n      iszero\n      tag_82\n      jumpi\n        /* \"MergeArray.sol\":1251:1252  1 */\n      0x01\n        /* \"MergeArray.sol\":1247:1250  mid */\n      dup4\n        /* \"MergeArray.sol\":1247:1252  mid+1 */\n      tag_83\n      swap2\n      swap1\n      tag_19\n      jump\t// in\n    tag_83:\n        /* \"MergeArray.sol\":1241:1252  low = mid+1 */\n      swap4\n      pop\n        /* \"MergeArray.sol\":1199:1332  if(arr[mid]<target){... */\n      jump(tag_84)\n    tag_82:\n        /* \"MergeArray.sol\":1311:1312  1 */\n      0x01\n        /* \"MergeArray.sol\":1307:1310  mid */\n      dup4\n        /* \"MergeArray.sol\":1307:1312  mid-1 */\n      tag_85\n      swap2\n      swap1\n      tag_65\n      jump\t// in\n    tag_85:\n        /* \"MergeArray.sol\":1299:1312  hight = mid-1 */\n      swap2\n      pop\n        /* \"MergeArray.sol\":1199:1332  if(arr[mid]<target){... */\n    tag_84:\n        /* \"MergeArray.sol\":1174:1540  if(ff){... */\n      jump(tag_86)\n    tag_79:\n        /* \"MergeArray.sol\":1382:1388  target */\n      dup7\n        /* \"MergeArray.sol\":1373:1376  arr */\n      dup9\n        /* \"MergeArray.sol\":1377:1380  mid */\n      dup5\n        /* \"MergeArray.sol\":1373:1381  arr[mid] */\n      dup2\n      mload\n      dup2\n      lt\n      tag_87\n      jumpi\n      tag_88\n      tag_29\n      jump\t// in\n    tag_88:\n    tag_87:\n      0x20\n      mul\n      0x20\n      add\n      add\n      mload\n        /* \"MergeArray.sol\":1373:1388  arr[mid]<target */\n      lt\n        /* \"MergeArray.sol\":1370:1525  if(arr[mid]<target){... */\n      iszero\n      tag_89\n      jumpi\n        /* \"MergeArray.sol\":1446:1447  1 */\n      0x01\n        /* \"MergeArray.sol\":1442:1445  mid */\n      dup4\n        /* \"MergeArray.sol\":1442:1447  mid-1 */\n      tag_90\n      swap2\n      swap1\n      tag_65\n      jump\t// in\n    tag_90:\n        /* \"MergeArray.sol\":1434:1447  hight = mid-1 */\n      swap2\n      pop\n        /* \"MergeArray.sol\":1370:1525  if(arr[mid]<target){... */\n      jump(tag_91)\n    tag_89:\n        /* \"MergeArray.sol\":1504:1505  1 */\n      0x01\n        /* \"MergeArray.sol\":1500:1503  mid */\n      dup4\n        /* \"MergeArray.sol\":1500:1505  mid+1 */\n      tag_92\n      swap2\n      swap1\n      tag_19\n      jump\t// in\n    tag_92:\n        /* \"MergeArray.sol\":1494:1505  low = mid+1 */\n      swap4\n      pop\n        /* \"MergeArray.sol\":1370:1525  if(arr[mid]<target){... */\n    tag_91:\n        /* \"MergeArray.sol\":1174:1540  if(ff){... */\n    tag_86:\n        /* \"MergeArray.sol\":979:1565  while(low<=hight){... */\n      jump(tag_70)\n    tag_71:\n        /* \"MergeArray.sol\":1584:1589  index */\n      dup5\n        /* \"MergeArray.sol\":1577:1589  return index */\n      swap6\n      pop\n      pop\n      pop\n      pop\n      pop\n      pop\n        /* \"MergeArray.sol\":692:1597  function binarySearch(uint256[] memory arr ,uint256 target)public pure returns(int256){... */\n    tag_63:\n      swap3\n      swap2\n      pop\n      pop\n      jump\t// out\n        /* \"#utility.yul\":7:82   */\n    tag_93:\n        /* \"#utility.yul\":40:46   */\n      0x00\n        /* \"#utility.yul\":73:75   */\n      0x40\n        /* \"#utility.yul\":67:76   */\n      mload\n        /* \"#utility.yul\":57:76   */\n      swap1\n      pop\n        /* \"#utility.yul\":7:82   */\n      swap1\n      jump\t// out\n        /* \"#utility.yul\":88:205   */\n    tag_94:\n        /* \"#utility.yul\":197:198   */\n      0x00\n        /* \"#utility.yul\":194:195   */\n      0x00\n        /* \"#utility.yul\":187:199   */\n      revert\n        /* \"#utility.yul\":211:328   */\n    tag_95:\n        /* \"#utility.yul\":320:321   */\n      0x00\n        /* \"#utility.yul\":317:318   */\n      0x00\n        /* \"#utility.yul\":310:322   */\n      revert\n        /* \"#utility.yul\":334:451   */\n    tag_96:\n        /* \"#utility.yul\":443:444   */\n      0x00\n        /* \"#utility.yul\":440:441   */\n      0x00\n        /* \"#utility.yul\":433:445   */\n      revert\n        /* \"#utility.yul\":457:559   */\n    tag_97:\n        /* \"#utility.yul\":498:504   */\n      0x00\n        /* \"#utility.yul\":549:551   */\n      0x1f\n        /* \"#utility.yul\":545:552   */\n      not\n        /* \"#utility.yul\":540:542   */\n      0x1f\n        /* \"#utility.yul\":533:538   */\n      dup4\n        /* \"#utility.yul\":529:543   */\n      add\n        /* \"#utility.yul\":525:553   */\n      and\n        /* \"#utility.yul\":515:553   */\n      swap1\n      pop\n        /* \"#utility.yul\":457:559   */\n      swap2\n      swap1\n      pop\n      jump\t// out\n        /* \"#utility.yul\":565:745   */\n    tag_22:\n        /* \"#utility.yul\":613:690   */\n      0x4e487b7100000000000000000000000000000000000000000000000000000000\n        /* \"#utility.yul\":610:611   */\n      0x00\n        /* \"#utility.yul\":603:691   */\n      mstore\n        /* \"#utility.yul\":710:714   */\n      0x41\n        /* \"#utility.yul\":707:708   */\n      0x04\n        /* \"#utility.yul\":700:715   */\n      mstore\n        /* \"#utility.yul\":734:738   */\n      0x24\n        /* \"#utility.yul\":731:732   */\n      0x00\n        /* \"#utility.yul\":724:739   */\n      revert\n        /* \"#utility.yul\":751:1032   */\n    tag_98:\n        /* \"#utility.yul\":834:861   */\n      tag_126\n        /* \"#utility.yul\":856:860   */\n      dup3\n        /* \"#utility.yul\":834:861   */\n      tag_97\n      jump\t// in\n    tag_126:\n        /* \"#utility.yul\":826:832   */\n      dup2\n        /* \"#utility.yul\":822:862   */\n      add\n        /* \"#utility.yul\":964:970   */\n      dup2\n        /* \"#utility.yul\":952:962   */\n      dup2\n        /* \"#utility.yul\":949:971   */\n      lt\n        /* \"#utility.yul\":928:946   */\n      0xffffffffffffffff\n        /* \"#utility.yul\":916:926   */\n      dup3\n        /* \"#utility.yul\":913:947   */\n      gt\n        /* \"#utility.yul\":910:972   */\n      or\n        /* \"#utility.yul\":907:995   */\n      iszero\n      tag_127\n      jumpi\n        /* \"#utility.yul\":975:993   */\n      tag_128\n      tag_22\n      jump\t// in\n    tag_128:\n        /* \"#utility.yul\":907:995   */\n    tag_127:\n        /* \"#utility.yul\":1015:1025   */\n      dup1\n        /* \"#utility.yul\":1011:1013   */\n      0x40\n        /* \"#utility.yul\":1004:1026   */\n      mstore\n        /* \"#utility.yul\":794:1032   */\n      pop\n        /* \"#utility.yul\":751:1032   */\n      pop\n      pop\n      jump\t// out\n        /* \"#utility.yul\":1038:1167   */\n    tag_99:\n        /* \"#utility.yul\":1072:1078   */\n      0x00\n        /* \"#utility.yul\":1099:1119   */\n      tag_130\n      tag_93\n      jump\t// in\n    tag_130:\n        /* \"#utility.yul\":1089:1119   */\n      swap1\n      pop\n        /* \"#utility.yul\":1128:1161   */\n      tag_131\n        /* \"#utility.yul\":1156:1160   */\n      dup3\n        /* \"#utility.yul\":1148:1154   */\n      dup3\n        /* \"#utility.yul\":1128:1161   */\n      tag_98\n      jump\t// in\n    tag_131:\n        /* \"#utility.yul\":1038:1167   */\n      swap2\n      swap1\n      pop\n      jump\t// out\n        /* \"#utility.yul\":1173:1484   */\n    tag_100:\n        /* \"#utility.yul\":1250:1254   */\n      0x00\n        /* \"#utility.yul\":1340:1358   */\n      0xffffffffffffffff\n        /* \"#utility.yul\":1332:1338   */\n      dup3\n        /* \"#utility.yul\":1329:1359   */\n      gt\n        /* \"#utility.yul\":1326:1382   */\n      iszero\n      tag_133\n      jumpi\n        /* \"#utility.yul\":1362:1380   */\n      tag_134\n      tag_22\n      jump\t// in\n    tag_134:\n        /* \"#utility.yul\":1326:1382   */\n    tag_133:\n        /* \"#utility.yul\":1412:1416   */\n      0x20\n        /* \"#utility.yul\":1404:1410   */\n      dup3\n        /* \"#utility.yul\":1400:1417   */\n      mul\n        /* \"#utility.yul\":1392:1417   */\n      swap1\n      pop\n        /* \"#utility.yul\":1472:1476   */\n      0x20\n        /* \"#utility.yul\":1466:1470   */\n      dup2\n        /* \"#utility.yul\":1462:1477   */\n      add\n        /* \"#utility.yul\":1454:1477   */\n      swap1\n      pop\n        /* \"#utility.yul\":1173:1484   */\n      swap2\n      swap1\n      pop\n      jump\t// out\n        /* \"#utility.yul\":1490:1607   */\n    tag_101:\n        /* \"#utility.yul\":1599:1600   */\n      0x00\n        /* \"#utility.yul\":1596:1597   */\n      0x00\n        /* \"#utility.yul\":1589:1601   */\n      revert\n        /* \"#utility.yul\":1613:1690   */\n    tag_102:\n        /* \"#utility.yul\":1650:1657   */\n      0x00\n        /* \"#utility.yul\":1679:1684   */\n      dup2\n        /* \"#utility.yul\":1668:1684   */\n      swap1\n      pop\n        /* \"#utility.yul\":1613:1690   */\n      swap2\n      swap1\n      pop\n      jump\t// out\n        /* \"#utility.yul\":1696:1818   */\n    tag_103:\n        /* \"#utility.yul\":1769:1793   */\n      tag_138\n        /* \"#utility.yul\":1787:1792   */\n      dup2\n        /* \"#utility.yul\":1769:1793   */\n      tag_102\n      jump\t// in\n    tag_138:\n        /* \"#utility.yul\":1762:1767   */\n      dup2\n        /* \"#utility.yul\":1759:1794   */\n      eq\n        /* \"#utility.yul\":1749:1812   */\n      tag_139\n      jumpi\n        /* \"#utility.yul\":1808:1809   */\n      0x00\n        /* \"#utility.yul\":1805:1806   */\n      0x00\n        /* \"#utility.yul\":1798:1810   */\n      revert\n        /* \"#utility.yul\":1749:1812   */\n    tag_139:\n        /* \"#utility.yul\":1696:1818   */\n      pop\n      jump\t// out\n        /* \"#utility.yul\":1824:1963   */\n    tag_104:\n        /* \"#utility.yul\":1870:1875   */\n      0x00\n        /* \"#utility.yul\":1908:1914   */\n      dup2\n        /* \"#utility.yul\":1895:1915   */\n      calldataload\n        /* \"#utility.yul\":1886:1915   */\n      swap1\n      pop\n        /* \"#utility.yul\":1924:1957   */\n      tag_141\n        /* \"#utility.yul\":1951:1956   */\n      dup2\n        /* \"#utility.yul\":1924:1957   */\n      tag_103\n      jump\t// in\n    tag_141:\n        /* \"#utility.yul\":1824:1963   */\n      swap3\n      swap2\n      pop\n      pop\n      jump\t// out\n        /* \"#utility.yul\":1986:2696   */\n    tag_105:\n        /* \"#utility.yul\":2082:2087   */\n      0x00\n        /* \"#utility.yul\":2107:2188   */\n      tag_143\n        /* \"#utility.yul\":2123:2187   */\n      tag_144\n        /* \"#utility.yul\":2180:2186   */\n      dup5\n        /* \"#utility.yul\":2123:2187   */\n      tag_100\n      jump\t// in\n    tag_144:\n        /* \"#utility.yul\":2107:2188   */\n      tag_99\n      jump\t// in\n    tag_143:\n        /* \"#utility.yul\":2098:2188   */\n      swap1\n      pop\n        /* \"#utility.yul\":2208:2213   */\n      dup1\n        /* \"#utility.yul\":2237:2243   */\n      dup4\n        /* \"#utility.yul\":2230:2235   */\n      dup3\n        /* \"#utility.yul\":2223:2244   */\n      mstore\n        /* \"#utility.yul\":2271:2275   */\n      0x20\n        /* \"#utility.yul\":2264:2269   */\n      dup3\n        /* \"#utility.yul\":2260:2276   */\n      add\n        /* \"#utility.yul\":2253:2276   */\n      swap1\n      pop\n        /* \"#utility.yul\":2324:2328   */\n      0x20\n        /* \"#utility.yul\":2316:2322   */\n      dup5\n        /* \"#utility.yul\":2312:2329   */\n      mul\n        /* \"#utility.yul\":2304:2310   */\n      dup4\n        /* \"#utility.yul\":2300:2330   */\n      add\n        /* \"#utility.yul\":2353:2356   */\n      dup6\n        /* \"#utility.yul\":2345:2351   */\n      dup2\n        /* \"#utility.yul\":2342:2357   */\n      gt\n        /* \"#utility.yul\":2339:2461   */\n      iszero\n      tag_145\n      jumpi\n        /* \"#utility.yul\":2372:2451   */\n      tag_146\n      tag_101\n      jump\t// in\n    tag_146:\n        /* \"#utility.yul\":2339:2461   */\n    tag_145:\n        /* \"#utility.yul\":2487:2493   */\n      dup4\n        /* \"#utility.yul\":2470:2690   */\n    tag_147:\n        /* \"#utility.yul\":2504:2510   */\n      dup2\n        /* \"#utility.yul\":2499:2502   */\n      dup2\n        /* \"#utility.yul\":2496:2511   */\n      lt\n        /* \"#utility.yul\":2470:2690   */\n      iszero\n      tag_149\n      jumpi\n        /* \"#utility.yul\":2579:2582   */\n      dup1\n        /* \"#utility.yul\":2608:2645   */\n      tag_150\n        /* \"#utility.yul\":2641:2644   */\n      dup9\n        /* \"#utility.yul\":2629:2639   */\n      dup3\n        /* \"#utility.yul\":2608:2645   */\n      tag_104\n      jump\t// in\n    tag_150:\n        /* \"#utility.yul\":2603:2606   */\n      dup5\n        /* \"#utility.yul\":2596:2646   */\n      mstore\n        /* \"#utility.yul\":2675:2679   */\n      0x20\n        /* \"#utility.yul\":2670:2673   */\n      dup5\n        /* \"#utility.yul\":2666:2680   */\n      add\n        /* \"#utility.yul\":2659:2680   */\n      swap4\n      pop\n        /* \"#utility.yul\":2546:2690   */\n      pop\n        /* \"#utility.yul\":2530:2534   */\n      0x20\n        /* \"#utility.yul\":2525:2528   */\n      dup2\n        /* \"#utility.yul\":2521:2535   */\n      add\n        /* \"#utility.yul\":2514:2535   */\n      swap1\n      pop\n        /* \"#utility.yul\":2470:2690   */\n      jump(tag_147)\n    tag_149:\n        /* \"#utility.yul\":2474:2495   */\n      pop\n        /* \"#utility.yul\":2088:2696   */\n      pop\n      pop\n        /* \"#utility.yul\":1986:2696   */\n      swap4\n      swap3\n      pop\n      pop\n      pop\n      jump\t// out\n        /* \"#utility.yul\":2719:3089   */\n    tag_106:\n        /* \"#utility.yul\":2790:2795   */\n      0x00\n        /* \"#utility.yul\":2839:2842   */\n      dup3\n        /* \"#utility.yul\":2832:2836   */\n      0x1f\n        /* \"#utility.yul\":2824:2830   */\n      dup4\n        /* \"#utility.yul\":2820:2837   */\n      add\n        /* \"#utility.yul\":2816:2843   */\n      slt\n        /* \"#utility.yul\":2806:2928   */\n      tag_152\n      jumpi\n        /* \"#utility.yul\":2847:2926   */\n      tag_153\n      tag_96\n      jump\t// in\n    tag_153:\n        /* \"#utility.yul\":2806:2928   */\n    tag_152:\n        /* \"#utility.yul\":2964:2970   */\n      dup2\n        /* \"#utility.yul\":2951:2971   */\n      calldataload\n        /* \"#utility.yul\":2989:3083   */\n      tag_154\n        /* \"#utility.yul\":3079:3082   */\n      dup5\n        /* \"#utility.yul\":3071:3077   */\n      dup3\n        /* \"#utility.yul\":3064:3068   */\n      0x20\n        /* \"#utility.yul\":3056:3062   */\n      dup7\n        /* \"#utility.yul\":3052:3069   */\n      add\n        /* \"#utility.yul\":2989:3083   */\n      tag_105\n      jump\t// in\n    tag_154:\n        /* \"#utility.yul\":2980:3083   */\n      swap2\n      pop\n        /* \"#utility.yul\":2796:3089   */\n      pop\n        /* \"#utility.yul\":2719:3089   */\n      swap3\n      swap2\n      pop\n      pop\n      jump\t// out\n        /* \"#utility.yul\":3095:3989   */\n    tag_7:\n        /* \"#utility.yul\":3213:3219   */\n      0x00\n        /* \"#utility.yul\":3221:3227   */\n      0x00\n        /* \"#utility.yul\":3270:3272   */\n      0x40\n        /* \"#utility.yul\":3258:3267   */\n      dup4\n        /* \"#utility.yul\":3249:3256   */\n      dup6\n        /* \"#utility.yul\":3245:3268   */\n      sub\n        /* \"#utility.yul\":3241:3273   */\n      slt\n        /* \"#utility.yul\":3238:3357   */\n      iszero\n      tag_156\n      jumpi\n        /* \"#utility.yul\":3276:3355   */\n      tag_157\n      tag_94\n      jump\t// in\n    tag_157:\n        /* \"#utility.yul\":3238:3357   */\n    tag_156:\n        /* \"#utility.yul\":3424:3425   */\n      0x00\n        /* \"#utility.yul\":3413:3422   */\n      dup4\n        /* \"#utility.yul\":3409:3426   */\n      add\n        /* \"#utility.yul\":3396:3427   */\n      calldataload\n        /* \"#utility.yul\":3454:3472   */\n      0xffffffffffffffff\n        /* \"#utility.yul\":3446:3452   */\n      dup2\n        /* \"#utility.yul\":3443:3473   */\n      gt\n        /* \"#utility.yul\":3440:3557   */\n      iszero\n      tag_158\n      jumpi\n        /* \"#utility.yul\":3476:3555   */\n      tag_159\n      tag_95\n      jump\t// in\n    tag_159:\n        /* \"#utility.yul\":3440:3557   */\n    tag_158:\n        /* \"#utility.yul\":3581:3659   */\n      tag_160\n        /* \"#utility.yul\":3651:3658   */\n      dup6\n        /* \"#utility.yul\":3642:3648   */\n      dup3\n        /* \"#utility.yul\":3631:3640   */\n      dup7\n        /* \"#utility.yul\":3627:3649   */\n      add\n        /* \"#utility.yul\":3581:3659   */\n      tag_106\n      jump\t// in\n    tag_160:\n        /* \"#utility.yul\":3571:3659   */\n      swap3\n      pop\n        /* \"#utility.yul\":3367:3669   */\n      pop\n        /* \"#utility.yul\":3736:3738   */\n      0x20\n        /* \"#utility.yul\":3725:3734   */\n      dup4\n        /* \"#utility.yul\":3721:3739   */\n      add\n        /* \"#utility.yul\":3708:3740   */\n      calldataload\n        /* \"#utility.yul\":3767:3785   */\n      0xffffffffffffffff\n        /* \"#utility.yul\":3759:3765   */\n      dup2\n        /* \"#utility.yul\":3756:3786   */\n      gt\n        /* \"#utility.yul\":3753:3870   */\n      iszero\n      tag_161\n      jumpi\n        /* \"#utility.yul\":3789:3868   */\n      tag_162\n      tag_95\n      jump\t// in\n    tag_162:\n        /* \"#utility.yul\":3753:3870   */\n    tag_161:\n        /* \"#utility.yul\":3894:3972   */\n      tag_163\n        /* \"#utility.yul\":3964:3971   */\n      dup6\n        /* \"#utility.yul\":3955:3961   */\n      dup3\n        /* \"#utility.yul\":3944:3953   */\n      dup7\n        /* \"#utility.yul\":3940:3962   */\n      add\n        /* \"#utility.yul\":3894:3972   */\n      tag_106\n      jump\t// in\n    tag_163:\n        /* \"#utility.yul\":3884:3972   */\n      swap2\n      pop\n        /* \"#utility.yul\":3679:3982   */\n      pop\n        /* \"#utility.yul\":3095:3989   */\n      swap3\n      pop\n      swap3\n      swap1\n      pop\n      jump\t// out\n        /* \"#utility.yul\":3995:4109   */\n    tag_107:\n        /* \"#utility.yul\":4062:4068   */\n      0x00\n        /* \"#utility.yul\":4096:4101   */\n      dup2\n        /* \"#utility.yul\":4090:4102   */\n      mload\n        /* \"#utility.yul\":4080:4102   */\n      swap1\n      pop\n        /* \"#utility.yul\":3995:4109   */\n      swap2\n      swap1\n      pop\n      jump\t// out\n        /* \"#utility.yul\":4115:4299   */\n    tag_108:\n        /* \"#utility.yul\":4214:4225   */\n      0x00\n        /* \"#utility.yul\":4248:4254   */\n      dup3\n        /* \"#utility.yul\":4243:4246   */\n      dup3\n        /* \"#utility.yul\":4236:4255   */\n      mstore\n        /* \"#utility.yul\":4288:4292   */\n      0x20\n        /* \"#utility.yul\":4283:4286   */\n      dup3\n        /* \"#utility.yul\":4279:4293   */\n      add\n        /* \"#utility.yul\":4264:4293   */\n      swap1\n      pop\n        /* \"#utility.yul\":4115:4299   */\n      swap3\n      swap2\n      pop\n      pop\n      jump\t// out\n        /* \"#utility.yul\":4305:4437   */\n    tag_109:\n        /* \"#utility.yul\":4372:4376   */\n      0x00\n        /* \"#utility.yul\":4395:4398   */\n      dup2\n        /* \"#utility.yul\":4387:4398   */\n      swap1\n      pop\n        /* \"#utility.yul\":4425:4429   */\n      0x20\n        /* \"#utility.yul\":4420:4423   */\n      dup3\n        /* \"#utility.yul\":4416:4430   */\n      add\n        /* \"#utility.yul\":4408:4430   */\n      swap1\n      pop\n        /* \"#utility.yul\":4305:4437   */\n      swap2\n      swap1\n      pop\n      jump\t// out\n        /* \"#utility.yul\":4443:4551   */\n    tag_110:\n        /* \"#utility.yul\":4520:4544   */\n      tag_168\n        /* \"#utility.yul\":4538:4543   */\n      dup2\n        /* \"#utility.yul\":4520:4544   */\n      tag_102\n      jump\t// in\n    tag_168:\n        /* \"#utility.yul\":4515:4518   */\n      dup3\n        /* \"#utility.yul\":4508:4545   */\n      mstore\n        /* \"#utility.yul\":4443:4551   */\n      pop\n      pop\n      jump\t// out\n        /* \"#utility.yul\":4557:4736   */\n    tag_111:\n        /* \"#utility.yul\":4626:4636   */\n      0x00\n        /* \"#utility.yul\":4647:4693   */\n      tag_170\n        /* \"#utility.yul\":4689:4692   */\n      dup4\n        /* \"#utility.yul\":4681:4687   */\n      dup4\n        /* \"#utility.yul\":4647:4693   */\n      tag_110\n      jump\t// in\n    tag_170:\n        /* \"#utility.yul\":4725:4729   */\n      0x20\n        /* \"#utility.yul\":4720:4723   */\n      dup4\n        /* \"#utility.yul\":4716:4730   */\n      add\n        /* \"#utility.yul\":4702:4730   */\n      swap1\n      pop\n        /* \"#utility.yul\":4557:4736   */\n      swap3\n      swap2\n      pop\n      pop\n      jump\t// out\n        /* \"#utility.yul\":4742:4855   */\n    tag_112:\n        /* \"#utility.yul\":4812:4816   */\n      0x00\n        /* \"#utility.yul\":4844:4848   */\n      0x20\n        /* \"#utility.yul\":4839:4842   */\n      dup3\n        /* \"#utility.yul\":4835:4849   */\n      add\n        /* \"#utility.yul\":4827:4849   */\n      swap1\n      pop\n        /* \"#utility.yul\":4742:4855   */\n      swap2\n      swap1\n      pop\n      jump\t// out\n        /* \"#utility.yul\":4891:5623   */\n    tag_113:\n        /* \"#utility.yul\":5010:5013   */\n      0x00\n        /* \"#utility.yul\":5039:5093   */\n      tag_173\n        /* \"#utility.yul\":5087:5092   */\n      dup3\n        /* \"#utility.yul\":5039:5093   */\n      tag_107\n      jump\t// in\n    tag_173:\n        /* \"#utility.yul\":5109:5195   */\n      tag_174\n        /* \"#utility.yul\":5188:5194   */\n      dup2\n        /* \"#utility.yul\":5183:5186   */\n      dup6\n        /* \"#utility.yul\":5109:5195   */\n      tag_108\n      jump\t// in\n    tag_174:\n        /* \"#utility.yul\":5102:5195   */\n      swap4\n      pop\n        /* \"#utility.yul\":5219:5275   */\n      tag_175\n        /* \"#utility.yul\":5269:5274   */\n      dup4\n        /* \"#utility.yul\":5219:5275   */\n      tag_109\n      jump\t// in\n    tag_175:\n        /* \"#utility.yul\":5298:5305   */\n      dup1\n        /* \"#utility.yul\":5329:5330   */\n      0x00\n        /* \"#utility.yul\":5314:5598   */\n    tag_176:\n        /* \"#utility.yul\":5339:5345   */\n      dup4\n        /* \"#utility.yul\":5336:5337   */\n      dup2\n        /* \"#utility.yul\":5333:5346   */\n      lt\n        /* \"#utility.yul\":5314:5598   */\n      iszero\n      tag_178\n      jumpi\n        /* \"#utility.yul\":5415:5421   */\n      dup2\n        /* \"#utility.yul\":5409:5422   */\n      mload\n        /* \"#utility.yul\":5442:5505   */\n      tag_179\n        /* \"#utility.yul\":5501:5504   */\n      dup9\n        /* \"#utility.yul\":5486:5499   */\n      dup3\n        /* \"#utility.yul\":5442:5505   */\n      tag_111\n      jump\t// in\n    tag_179:\n        /* \"#utility.yul\":5435:5505   */\n      swap8\n      pop\n        /* \"#utility.yul\":5528:5588   */\n      tag_180\n        /* \"#utility.yul\":5581:5587   */\n      dup4\n        /* \"#utility.yul\":5528:5588   */\n      tag_112\n      jump\t// in\n    tag_180:\n        /* \"#utility.yul\":5518:5588   */\n      swap3\n      pop\n        /* \"#utility.yul\":5374:5598   */\n      pop\n        /* \"#utility.yul\":5361:5362   */\n      0x01\n        /* \"#utility.yul\":5358:5359   */\n      dup2\n        /* \"#utility.yul\":5354:5363   */\n      add\n        /* \"#utility.yul\":5349:5363   */\n      swap1\n      pop\n        /* \"#utility.yul\":5314:5598   */\n      jump(tag_176)\n    tag_178:\n        /* \"#utility.yul\":5318:5332   */\n      pop\n        /* \"#utility.yul\":5614:5617   */\n      dup6\n        /* \"#utility.yul\":5607:5617   */\n      swap4\n      pop\n        /* \"#utility.yul\":5015:5623   */\n      pop\n      pop\n      pop\n        /* \"#utility.yul\":4891:5623   */\n      swap3\n      swap2\n      pop\n      pop\n      jump\t// out\n        /* \"#utility.yul\":5629:6002   */\n    tag_10:\n        /* \"#utility.yul\":5772:5776   */\n      0x00\n        /* \"#utility.yul\":5810:5812   */\n      0x20\n        /* \"#utility.yul\":5799:5808   */\n      dup3\n        /* \"#utility.yul\":5795:5813   */\n      add\n        /* \"#utility.yul\":5787:5813   */\n      swap1\n      pop\n        /* \"#utility.yul\":5859:5868   */\n      dup2\n        /* \"#utility.yul\":5853:5857   */\n      dup2\n        /* \"#utility.yul\":5849:5869   */\n      sub\n        /* \"#utility.yul\":5845:5846   */\n      0x00\n        /* \"#utility.yul\":5834:5843   */\n      dup4\n        /* \"#utility.yul\":5830:5847   */\n      add\n        /* \"#utility.yul\":5823:5870   */\n      mstore\n        /* \"#utility.yul\":5887:5995   */\n      tag_182\n        /* \"#utility.yul\":5990:5994   */\n      dup2\n        /* \"#utility.yul\":5981:5987   */\n      dup5\n        /* \"#utility.yul\":5887:5995   */\n      tag_113\n      jump\t// in\n    tag_182:\n        /* \"#utility.yul\":5879:5995   */\n      swap1\n      pop\n        /* \"#utility.yul\":5629:6002   */\n      swap3\n      swap2\n      pop\n      pop\n      jump\t// out\n        /* \"#utility.yul\":6008:6692   */\n    tag_13:\n        /* \"#utility.yul\":6101:6107   */\n      0x00\n        /* \"#utility.yul\":6109:6115   */\n      0x00\n        /* \"#utility.yul\":6158:6160   */\n      0x40\n        /* \"#utility.yul\":6146:6155   */\n      dup4\n        /* \"#utility.yul\":6137:6144   */\n      dup6\n        /* \"#utility.yul\":6133:6156   */\n      sub\n        /* \"#utility.yul\":6129:6161   */\n      slt\n        /* \"#utility.yul\":6126:6245   */\n      iszero\n      tag_184\n      jumpi\n        /* \"#utility.yul\":6164:6243   */\n      tag_185\n      tag_94\n      jump\t// in\n    tag_185:\n        /* \"#utility.yul\":6126:6245   */\n    tag_184:\n        /* \"#utility.yul\":6312:6313   */\n      0x00\n        /* \"#utility.yul\":6301:6310   */\n      dup4\n        /* \"#utility.yul\":6297:6314   */\n      add\n        /* \"#utility.yul\":6284:6315   */\n      calldataload\n        /* \"#utility.yul\":6342:6360   */\n      0xffffffffffffffff\n        /* \"#utility.yul\":6334:6340   */\n      dup2\n        /* \"#utility.yul\":6331:6361   */\n      gt\n        /* \"#utility.yul\":6328:6445   */\n      iszero\n      tag_186\n      jumpi\n        /* \"#utility.yul\":6364:6443   */\n      tag_187\n      tag_95\n      jump\t// in\n    tag_187:\n        /* \"#utility.yul\":6328:6445   */\n    tag_186:\n        /* \"#utility.yul\":6469:6547   */\n      tag_188\n        /* \"#utility.yul\":6539:6546   */\n      dup6\n        /* \"#utility.yul\":6530:6536   */\n      dup3\n        /* \"#utility.yul\":6519:6528   */\n      dup7\n        /* \"#utility.yul\":6515:6537   */\n      add\n        /* \"#utility.yul\":6469:6547   */\n      tag_106\n      jump\t// in\n    tag_188:\n        /* \"#utility.yul\":6459:6547   */\n      swap3\n      pop\n        /* \"#utility.yul\":6255:6557   */\n      pop\n        /* \"#utility.yul\":6596:6598   */\n      0x20\n        /* \"#utility.yul\":6622:6675   */\n      tag_189\n        /* \"#utility.yul\":6667:6674   */\n      dup6\n        /* \"#utility.yul\":6658:6664   */\n      dup3\n        /* \"#utility.yul\":6647:6656   */\n      dup7\n        /* \"#utility.yul\":6643:6665   */\n      add\n        /* \"#utility.yul\":6622:6675   */\n      tag_104\n      jump\t// in\n    tag_189:\n        /* \"#utility.yul\":6612:6675   */\n      swap2\n      pop\n        /* \"#utility.yul\":6567:6685   */\n      pop\n        /* \"#utility.yul\":6008:6692   */\n      swap3\n      pop\n      swap3\n      swap1\n      pop\n      jump\t// out\n        /* \"#utility.yul\":6698:6774   */\n    tag_114:\n        /* \"#utility.yul\":6734:6741   */\n      0x00\n        /* \"#utility.yul\":6763:6768   */\n      dup2\n        /* \"#utility.yul\":6752:6768   */\n      swap1\n      pop\n        /* \"#utility.yul\":6698:6774   */\n      swap2\n      swap1\n      pop\n      jump\t// out\n        /* \"#utility.yul\":6780:6895   */\n    tag_115:\n        /* \"#utility.yul\":6865:6888   */\n      tag_192\n        /* \"#utility.yul\":6882:6887   */\n      dup2\n        /* \"#utility.yul\":6865:6888   */\n      tag_114\n      jump\t// in\n    tag_192:\n        /* \"#utility.yul\":6860:6863   */\n      dup3\n        /* \"#utility.yul\":6853:6889   */\n      mstore\n        /* \"#utility.yul\":6780:6895   */\n      pop\n      pop\n      jump\t// out\n        /* \"#utility.yul\":6901:7119   */\n    tag_16:\n        /* \"#utility.yul\":6992:6996   */\n      0x00\n        /* \"#utility.yul\":7030:7032   */\n      0x20\n        /* \"#utility.yul\":7019:7028   */\n      dup3\n        /* \"#utility.yul\":7015:7033   */\n      add\n        /* \"#utility.yul\":7007:7033   */\n      swap1\n      pop\n        /* \"#utility.yul\":7043:7112   */\n      tag_194\n        /* \"#utility.yul\":7109:7110   */\n      0x00\n        /* \"#utility.yul\":7098:7107   */\n      dup4\n        /* \"#utility.yul\":7094:7111   */\n      add\n        /* \"#utility.yul\":7085:7091   */\n      dup5\n        /* \"#utility.yul\":7043:7112   */\n      tag_115\n      jump\t// in\n    tag_194:\n        /* \"#utility.yul\":6901:7119   */\n      swap3\n      swap2\n      pop\n      pop\n      jump\t// out\n        /* \"#utility.yul\":7125:7305   */\n    tag_116:\n        /* \"#utility.yul\":7173:7250   */\n      0x4e487b7100000000000000000000000000000000000000000000000000000000\n        /* \"#utility.yul\":7170:7171   */\n      0x00\n        /* \"#utility.yul\":7163:7251   */\n      mstore\n        /* \"#utility.yul\":7270:7274   */\n      0x11\n        /* \"#utility.yul\":7267:7268   */\n      0x04\n        /* \"#utility.yul\":7260:7275   */\n      mstore\n        /* \"#utility.yul\":7294:7298   */\n      0x24\n        /* \"#utility.yul\":7291:7292   */\n      0x00\n        /* \"#utility.yul\":7284:7299   */\n      revert\n        /* \"#utility.yul\":7311:7502   */\n    tag_19:\n        /* \"#utility.yul\":7351:7354   */\n      0x00\n        /* \"#utility.yul\":7370:7390   */\n      tag_197\n        /* \"#utility.yul\":7388:7389   */\n      dup3\n        /* \"#utility.yul\":7370:7390   */\n      tag_102\n      jump\t// in\n    tag_197:\n        /* \"#utility.yul\":7365:7390   */\n      swap2\n      pop\n        /* \"#utility.yul\":7404:7424   */\n      tag_198\n        /* \"#utility.yul\":7422:7423   */\n      dup4\n        /* \"#utility.yul\":7404:7424   */\n      tag_102\n      jump\t// in\n    tag_198:\n        /* \"#utility.yul\":7399:7424   */\n      swap3\n      pop\n        /* \"#utility.yul\":7447:7448   */\n      dup3\n        /* \"#utility.yul\":7444:7445   */\n      dup3\n        /* \"#utility.yul\":7440:7449   */\n      add\n        /* \"#utility.yul\":7433:7449   */\n      swap1\n      pop\n        /* \"#utility.yul\":7468:7471   */\n      dup1\n        /* \"#utility.yul\":7465:7466   */\n      dup3\n        /* \"#utility.yul\":7462:7472   */\n      gt\n        /* \"#utility.yul\":7459:7495   */\n      iszero\n      tag_199\n      jumpi\n        /* \"#utility.yul\":7475:7493   */\n      tag_200\n      tag_116\n      jump\t// in\n    tag_200:\n        /* \"#utility.yul\":7459:7495   */\n    tag_199:\n        /* \"#utility.yul\":7311:7502   */\n      swap3\n      swap2\n      pop\n      pop\n      jump\t// out\n        /* \"#utility.yul\":7508:7688   */\n    tag_29:\n        /* \"#utility.yul\":7556:7633   */\n      0x4e487b7100000000000000000000000000000000000000000000000000000000\n        /* \"#utility.yul\":7553:7554   */\n      0x00\n        /* \"#utility.yul\":7546:7634   */\n      mstore\n        /* \"#utility.yul\":7653:7657   */\n      0x32\n        /* \"#utility.yul\":7650:7651   */\n      0x04\n        /* \"#utility.yul\":7643:7658   */\n      mstore\n        /* \"#utility.yul\":7677:7681   */\n      0x24\n        /* \"#utility.yul\":7674:7675   */\n      0x00\n        /* \"#utility.yul\":7667:7682   */\n      revert\n        /* \"#utility.yul\":7694:7927   */\n    tag_34:\n        /* \"#utility.yul\":7733:7736   */\n      0x00\n        /* \"#utility.yul\":7756:7780   */\n      tag_203\n        /* \"#utility.yul\":7774:7779   */\n      dup3\n        /* \"#utility.yul\":7756:7780   */\n      tag_102\n      jump\t// in\n    tag_203:\n        /* \"#utility.yul\":7747:7780   */\n      swap2\n      pop\n        /* \"#utility.yul\":7802:7868   */\n      0xffffffffffffffffffffffffffffffffffffffffffffffffffffffffffffffff\n        /* \"#utility.yul\":7795:7800   */\n      dup3\n        /* \"#utility.yul\":7792:7869   */\n      sub\n        /* \"#utility.yul\":7789:7892   */\n      tag_204\n      jumpi\n        /* \"#utility.yul\":7872:7890   */\n      tag_205\n      tag_116\n      jump\t// in\n    tag_205:\n        /* \"#utility.yul\":7789:7892   */\n    tag_204:\n        /* \"#utility.yul\":7919:7920   */\n      0x01\n        /* \"#utility.yul\":7912:7917   */\n      dup3\n        /* \"#utility.yul\":7908:7921   */\n      add\n        /* \"#utility.yul\":7901:7921   */\n      swap1\n      pop\n        /* \"#utility.yul\":7694:7927   */\n      swap2\n      swap1\n      pop\n      jump\t// out\n        /* \"#utility.yul\":7933:8127   */\n    tag_65:\n        /* \"#utility.yul\":7973:7977   */\n      0x00\n        /* \"#utility.yul\":7993:8013   */\n      tag_207\n        /* \"#utility.yul\":8011:8012   */\n      dup3\n        /* \"#utility.yul\":7993:8013   */\n      tag_102\n      jump\t// in\n    tag_207:\n        /* \"#utility.yul\":7988:8013   */\n      swap2\n      pop\n        /* \"#utility.yul\":8027:8047   */\n      tag_208\n        /* \"#utility.yul\":8045:8046   */\n      dup4\n        /* \"#utility.yul\":8027:8047   */\n      tag_102\n      jump\t// in\n    tag_208:\n        /* \"#utility.yul\":8022:8047   */\n      swap3\n      pop\n        /* \"#utility.yul\":8071:8072   */\n      dup3\n        /* \"#utility.yul\":8068:8069   */\n      dup3\n        /* \"#utility.yul\":8064:8073   */\n      sub\n        /* \"#utility.yul\":8056:8073   */\n      swap1\n      pop\n        /* \"#utility.yul\":8095:8096   */\n      dup2\n        /* \"#utility.yul\":8089:8093   */\n      dup2\n        /* \"#utility.yul\":8086:8097   */\n      gt\n        /* \"#utility.yul\":8083:8120   */\n      iszero\n      tag_209\n      jumpi\n        /* \"#utility.yul\":8100:8118   */\n      tag_210\n      tag_116\n      jump\t// in\n    tag_210:\n        /* \"#utility.yul\":8083:8120   */\n    tag_209:\n        /* \"#utility.yul\":7933:8127   */\n      swap3\n      swap2\n      pop\n      pop\n      jump\t// out\n        /* \"#utility.yul\":8133:8313   */\n    tag_117:\n        /* \"#utility.yul\":8181:8258   */\n      0x4e487b7100000000000000000000000000000000000000000000000000000000\n        /* \"#utility.yul\":8178:8179   */\n      0x00\n        /* \"#utility.yul\":8171:8259   */\n      mstore\n        /* \"#utility.yul\":8278:8282   */\n      0x12\n        /* \"#utility.yul\":8275:8276   */\n      0x04\n        /* \"#utility.yul\":8268:8283   */\n      mstore\n        /* \"#utility.yul\":8302:8306   */\n      0x24\n        /* \"#utility.yul\":8299:8300   */\n      0x00\n        /* \"#utility.yul\":8292:8307   */\n      revert\n        /* \"#utility.yul\":8319:8504   */\n    tag_74:\n        /* \"#utility.yul\":8359:8360   */\n      0x00\n        /* \"#utility.yul\":8376:8396   */\n      tag_213\n        /* \"#utility.yul\":8394:8395   */\n      dup3\n        /* \"#utility.yul\":8376:8396   */\n      tag_102\n      jump\t// in\n    tag_213:\n        /* \"#utility.yul\":8371:8396   */\n      swap2\n      pop\n        /* \"#utility.yul\":8410:8430   */\n      tag_214\n        /* \"#utility.yul\":8428:8429   */\n      dup4\n        /* \"#utility.yul\":8410:8430   */\n      tag_102\n      jump\t// in\n    tag_214:\n        /* \"#utility.yul\":8405:8430   */\n      swap3\n      pop\n        /* \"#utility.yul\":8449:8450   */\n      dup3\n        /* \"#utility.yul\":8439:8474   */\n      tag_215\n      jumpi\n        /* \"#utility.yul\":8454:8472   */\n      tag_216\n      tag_117\n      jump\t// in\n    tag_216:\n        /* \"#utility.yul\":8439:8474   */\n    tag_215:\n        /* \"#utility.yul\":8496:8497   */\n      dup3\n        /* \"#utility.yul\":8493:8494   */\n      dup3\n        /* \"#utility.yul\":8489:8498   */\n      div\n        /* \"#utility.yul\":8484:8498   */\n      swap1\n      pop\n        /* \"#utility.yul\":8319:8504   */\n      swap3\n      swap2\n      pop\n      pop\n      jump\t// out\n\n    auxdata: 0xa26469706673582212206e19da997fa826f357ddde848bb2e606c6a2b9c46d3fe0fc2dc23ef7d514b10264736f6c634300081e0033\n}\n",
				"bytecode": {
					"linkReferences": {},
					"object": "6080604052348015600e575f5ffd5b506109568061001c5f395ff3fe608060405234801561000f575f5ffd5b5060043610610034575f3560e01c8063088b9bf614610038578063b12601da14610068575b5f5ffd5b610052600480360381019061004d91906105e4565b610098565b60405161005f9190610711565b60405180910390f35b610082600480360381019061007d9190610731565b6102ce565b60405161008f91906107a3565b60405180910390f35b60605f825184516100a991906107e9565b67ffffffffffffffff8111156100c2576100c1610475565b5b6040519080825280602002602001820160405280156100f05781602001602082028036833780820191505090505b5090505f5f90505f5f90505f5f90505b8651831080156101105750855182105b156101ff578582815181106101285761012761081c565b5b60200260200101518784815181106101435761014261081c565b5b6020026020010151116101a75786838061015c90610849565b94508151811061016f5761016e61081c565b5b602002602001015184828061018390610849565b9350815181106101965761019561081c565b5b6020026020010181815250506101fa565b8582806101b390610849565b9350815181106101c6576101c561081c565b5b60200260200101518482806101da90610849565b9350815181106101ed576101ec61081c565b5b6020026020010181815250505b610100565b5b86518310156102605786838061021590610849565b9450815181106102285761022761081c565b5b602002602001015184828061023c90610849565b93508151811061024f5761024e61081c565b5b602002602001018181525050610200565b5b85518210156102c15785828061027690610849565b9350815181106102895761028861081c565b5b602002602001015184828061029d90610849565b9350815181106102b0576102af61081c565b5b602002602001018181525050610261565b8394505050505092915050565b5f5f7fffffffffffffffffffffffffffffffffffffffffffffffffffffffffffffffff90505f5f90505f5f90505f6001875161030a9190610890565b90505f875f815181106103205761031f61081c565b5b602002602001015188838151811061033b5761033a61081c565b5b60200260200101511190505b818411610441576002848361035c9190610890565b61036691906108f0565b8461037191906107e9565b92508783815181106103865761038561081c565b5b602002602001015187036103a457829450849550505050505061044a565b80156103f557868884815181106103be576103bd61081c565b5b602002602001015110156103e0576001836103d991906107e9565b93506103f0565b6001836103ed9190610890565b91505b61043c565b868884815181106104095761040861081c565b5b6020026020010151101561042b576001836104249190610890565b915061043b565b60018361043891906107e9565b93505b5b610347565b84955050505050505b92915050565b5f604051905090565b5f5ffd5b5f5ffd5b5f5ffd5b5f601f19601f8301169050919050565b7f4e487b71000000000000000000000000000000000000000000000000000000005f52604160045260245ffd5b6104ab82610465565b810181811067ffffffffffffffff821117156104ca576104c9610475565b5b80604052505050565b5f6104dc610450565b90506104e882826104a2565b919050565b5f67ffffffffffffffff82111561050757610506610475565b5b602082029050602081019050919050565b5f5ffd5b5f819050919050565b61052e8161051c565b8114610538575f5ffd5b50565b5f8135905061054981610525565b92915050565b5f61056161055c846104ed565b6104d3565b9050808382526020820190506020840283018581111561058457610583610518565b5b835b818110156105ad5780610599888261053b565b845260208401935050602081019050610586565b5050509392505050565b5f82601f8301126105cb576105ca610461565b5b81356105db84826020860161054f565b91505092915050565b5f5f604083850312156105fa576105f9610459565b5b5f83013567ffffffffffffffff8111156106175761061661045d565b5b610623858286016105b7565b925050602083013567ffffffffffffffff8111156106445761064361045d565b5b610650858286016105b7565b9150509250929050565b5f81519050919050565b5f82825260208201905092915050565b5f819050602082019050919050565b61068c8161051c565b82525050565b5f61069d8383610683565b60208301905092915050565b5f602082019050919050565b5f6106bf8261065a565b6106c98185610664565b93506106d483610674565b805f5b838110156107045781516106eb8882610692565b97506106f6836106a9565b9250506001810190506106d7565b5085935050505092915050565b5f6020820190508181035f83015261072981846106b5565b905092915050565b5f5f6040838503121561074757610746610459565b5b5f83013567ffffffffffffffff8111156107645761076361045d565b5b610770858286016105b7565b92505060206107818582860161053b565b9150509250929050565b5f819050919050565b61079d8161078b565b82525050565b5f6020820190506107b65f830184610794565b92915050565b7f4e487b71000000000000000000000000000000000000000000000000000000005f52601160045260245ffd5b5f6107f38261051c565b91506107fe8361051c565b9250828201905080821115610816576108156107bc565b5b92915050565b7f4e487b71000000000000000000000000000000000000000000000000000000005f52603260045260245ffd5b5f6108538261051c565b91507fffffffffffffffffffffffffffffffffffffffffffffffffffffffffffffffff8203610885576108846107bc565b5b600182019050919050565b5f61089a8261051c565b91506108a58361051c565b92508282039050818111156108bd576108bc6107bc565b5b92915050565b7f4e487b71000000000000000000000000000000000000000000000000000000005f52601260045260245ffd5b5f6108fa8261051c565b91506109058361051c565b925082610915576109146108c3565b5b82820490509291505056fea26469706673582212206e19da997fa826f357ddde848bb2e606c6a2b9c46d3fe0fc2dc23ef7d514b10264736f6c634300081e0033",
					"opcodes": "PUSH1 0x80 PUSH1 0x40 MSTORE CALLVALUE DUP1 ISZERO PUSH1 0xE JUMPI PUSH0 PUSH0 REVERT JUMPDEST POP PUSH2 0x956 DUP1 PUSH2 0x1C PUSH0 CODECOPY PUSH0 RETURN INVALID PUSH1 0x80 PUSH1 0x40 MSTORE CALLVALUE DUP1 ISZERO PUSH2 0xF JUMPI PUSH0 PUSH0 REVERT JUMPDEST POP PUSH1 0x4 CALLDATASIZE LT PUSH2 0x34 JUMPI PUSH0 CALLDATALOAD PUSH1 0xE0 SHR DUP1 PUSH4 0x88B9BF6 EQ PUSH2 0x38 JUMPI DUP1 PUSH4 0xB12601DA EQ PUSH2 0x68 JUMPI JUMPDEST PUSH0 PUSH0 REVERT JUMPDEST PUSH2 0x52 PUSH1 0x4 DUP1 CALLDATASIZE SUB DUP2 ADD SWAP1 PUSH2 0x4D SWAP2 SWAP1 PUSH2 0x5E4 JUMP JUMPDEST PUSH2 0x98 JUMP JUMPDEST PUSH1 0x40 MLOAD PUSH2 0x5F SWAP2 SWAP1 PUSH2 0x711 JUMP JUMPDEST PUSH1 0x40 MLOAD DUP1 SWAP2 SUB SWAP1 RETURN JUMPDEST PUSH2 0x82 PUSH1 0x4 DUP1 CALLDATASIZE SUB DUP2 ADD SWAP1 PUSH2 0x7D SWAP2 SWAP1 PUSH2 0x731 JUMP JUMPDEST PUSH2 0x2CE JUMP JUMPDEST PUSH1 0x40 MLOAD PUSH2 0x8F SWAP2 SWAP1 PUSH2 0x7A3 JUMP JUMPDEST PUSH1 0x40 MLOAD DUP1 SWAP2 SUB SWAP1 RETURN JUMPDEST PUSH1 0x60 PUSH0 DUP3 MLOAD DUP5 MLOAD PUSH2 0xA9 SWAP2 SWAP1 PUSH2 0x7E9 JUMP JUMPDEST PUSH8 0xFFFFFFFFFFFFFFFF DUP2 GT ISZERO PUSH2 0xC2 JUMPI PUSH2 0xC1 PUSH2 0x475 JUMP JUMPDEST JUMPDEST PUSH1 0x40 MLOAD SWAP1 DUP1 DUP3 MSTORE DUP1 PUSH1 0x20 MUL PUSH1 0x20 ADD DUP3 ADD PUSH1 0x40 MSTORE DUP1 ISZERO PUSH2 0xF0 JUMPI DUP2 PUSH1 0x20 ADD PUSH1 0x20 DUP3 MUL DUP1 CALLDATASIZE DUP4 CALLDATACOPY DUP1 DUP3 ADD SWAP2 POP POP SWAP1 POP JUMPDEST POP SWAP1 POP PUSH0 PUSH0 SWAP1 POP PUSH0 PUSH0 SWAP1 POP PUSH0 PUSH0 SWAP1 POP JUMPDEST DUP7 MLOAD DUP4 LT DUP1 ISZERO PUSH2 0x110 JUMPI POP DUP6 MLOAD DUP3 LT JUMPDEST ISZERO PUSH2 0x1FF JUMPI DUP6 DUP3 DUP2 MLOAD DUP2 LT PUSH2 0x128 JUMPI PUSH2 0x127 PUSH2 0x81C JUMP JUMPDEST JUMPDEST PUSH1 0x20 MUL PUSH1 0x20 ADD ADD MLOAD DUP8 DUP5 DUP2 MLOAD DUP2 LT PUSH2 0x143 JUMPI PUSH2 0x142 PUSH2 0x81C JUMP JUMPDEST JUMPDEST PUSH1 0x20 MUL PUSH1 0x20 ADD ADD MLOAD GT PUSH2 0x1A7 JUMPI DUP7 DUP4 DUP1 PUSH2 0x15C SWAP1 PUSH2 0x849 JUMP JUMPDEST SWAP5 POP DUP2 MLOAD DUP2 LT PUSH2 0x16F JUMPI PUSH2 0x16E PUSH2 0x81C JUMP JUMPDEST JUMPDEST PUSH1 0x20 MUL PUSH1 0x20 ADD ADD MLOAD DUP5 DUP3 DUP1 PUSH2 0x183 SWAP1 PUSH2 0x849 JUMP JUMPDEST SWAP4 POP DUP2 MLOAD DUP2 LT PUSH2 0x196 JUMPI PUSH2 0x195 PUSH2 0x81C JUMP JUMPDEST JUMPDEST PUSH1 0x20 MUL PUSH1 0x20 ADD ADD DUP2 DUP2 MSTORE POP POP PUSH2 0x1FA JUMP JUMPDEST DUP6 DUP3 DUP1 PUSH2 0x1B3 SWAP1 PUSH2 0x849 JUMP JUMPDEST SWAP4 POP DUP2 MLOAD DUP2 LT PUSH2 0x1C6 JUMPI PUSH2 0x1C5 PUSH2 0x81C JUMP JUMPDEST JUMPDEST PUSH1 0x20 MUL PUSH1 0x20 ADD ADD MLOAD DUP5 DUP3 DUP1 PUSH2 0x1DA SWAP1 PUSH2 0x849 JUMP JUMPDEST SWAP4 POP DUP2 MLOAD DUP2 LT PUSH2 0x1ED JUMPI PUSH2 0x1EC PUSH2 0x81C JUMP JUMPDEST JUMPDEST PUSH1 0x20 MUL PUSH1 0x20 ADD ADD DUP2 DUP2 MSTORE POP POP JUMPDEST PUSH2 0x100 JUMP JUMPDEST JUMPDEST DUP7 MLOAD DUP4 LT ISZERO PUSH2 0x260 JUMPI DUP7 DUP4 DUP1 PUSH2 0x215 SWAP1 PUSH2 0x849 JUMP JUMPDEST SWAP5 POP DUP2 MLOAD DUP2 LT PUSH2 0x228 JUMPI PUSH2 0x227 PUSH2 0x81C JUMP JUMPDEST JUMPDEST PUSH1 0x20 MUL PUSH1 0x20 ADD ADD MLOAD DUP5 DUP3 DUP1 PUSH2 0x23C SWAP1 PUSH2 0x849 JUMP JUMPDEST SWAP4 POP DUP2 MLOAD DUP2 LT PUSH2 0x24F JUMPI PUSH2 0x24E PUSH2 0x81C JUMP JUMPDEST JUMPDEST PUSH1 0x20 MUL PUSH1 0x20 ADD ADD DUP2 DUP2 MSTORE POP POP PUSH2 0x200 JUMP JUMPDEST JUMPDEST DUP6 MLOAD DUP3 LT ISZERO PUSH2 0x2C1 JUMPI DUP6 DUP3 DUP1 PUSH2 0x276 SWAP1 PUSH2 0x849 JUMP JUMPDEST SWAP4 POP DUP2 MLOAD DUP2 LT PUSH2 0x289 JUMPI PUSH2 0x288 PUSH2 0x81C JUMP JUMPDEST JUMPDEST PUSH1 0x20 MUL PUSH1 0x20 ADD ADD MLOAD DUP5 DUP3 DUP1 PUSH2 0x29D SWAP1 PUSH2 0x849 JUMP JUMPDEST SWAP4 POP DUP2 MLOAD DUP2 LT PUSH2 0x2B0 JUMPI PUSH2 0x2AF PUSH2 0x81C JUMP JUMPDEST JUMPDEST PUSH1 0x20 MUL PUSH1 0x20 ADD ADD DUP2 DUP2 MSTORE POP POP PUSH2 0x261 JUMP JUMPDEST DUP4 SWAP5 POP POP POP POP POP SWAP3 SWAP2 POP POP JUMP JUMPDEST PUSH0 PUSH0 PUSH32 0xFFFFFFFFFFFFFFFFFFFFFFFFFFFFFFFFFFFFFFFFFFFFFFFFFFFFFFFFFFFFFFFF SWAP1 POP PUSH0 PUSH0 SWAP1 POP PUSH0 PUSH0 SWAP1 POP PUSH0 PUSH1 0x1 DUP8 MLOAD PUSH2 0x30A SWAP2 SWAP1 PUSH2 0x890 JUMP JUMPDEST SWAP1 POP PUSH0 DUP8 PUSH0 DUP2 MLOAD DUP2 LT PUSH2 0x320 JUMPI PUSH2 0x31F PUSH2 0x81C JUMP JUMPDEST JUMPDEST PUSH1 0x20 MUL PUSH1 0x20 ADD ADD MLOAD DUP9 DUP4 DUP2 MLOAD DUP2 LT PUSH2 0x33B JUMPI PUSH2 0x33A PUSH2 0x81C JUMP JUMPDEST JUMPDEST PUSH1 0x20 MUL PUSH1 0x20 ADD ADD MLOAD GT SWAP1 POP JUMPDEST DUP2 DUP5 GT PUSH2 0x441 JUMPI PUSH1 0x2 DUP5 DUP4 PUSH2 0x35C SWAP2 SWAP1 PUSH2 0x890 JUMP JUMPDEST PUSH2 0x366 SWAP2 SWAP1 PUSH2 0x8F0 JUMP JUMPDEST DUP5 PUSH2 0x371 SWAP2 SWAP1 PUSH2 0x7E9 JUMP JUMPDEST SWAP3 POP DUP8 DUP4 DUP2 MLOAD DUP2 LT PUSH2 0x386 JUMPI PUSH2 0x385 PUSH2 0x81C JUMP JUMPDEST JUMPDEST PUSH1 0x20 MUL PUSH1 0x20 ADD ADD MLOAD DUP8 SUB PUSH2 0x3A4 JUMPI DUP3 SWAP5 POP DUP5 SWAP6 POP POP POP POP POP POP PUSH2 0x44A JUMP JUMPDEST DUP1 ISZERO PUSH2 0x3F5 JUMPI DUP7 DUP9 DUP5 DUP2 MLOAD DUP2 LT PUSH2 0x3BE JUMPI PUSH2 0x3BD PUSH2 0x81C JUMP JUMPDEST JUMPDEST PUSH1 0x20 MUL PUSH1 0x20 ADD ADD MLOAD LT ISZERO PUSH2 0x3E0 JUMPI PUSH1 0x1 DUP4 PUSH2 0x3D9 SWAP2 SWAP1 PUSH2 0x7E9 JUMP JUMPDEST SWAP4 POP PUSH2 0x3F0 JUMP JUMPDEST PUSH1 0x1 DUP4 PUSH2 0x3ED SWAP2 SWAP1 PUSH2 0x890 JUMP JUMPDEST SWAP2 POP JUMPDEST PUSH2 0x43C JUMP JUMPDEST DUP7 DUP9 DUP5 DUP2 MLOAD DUP2 LT PUSH2 0x409 JUMPI PUSH2 0x408 PUSH2 0x81C JUMP JUMPDEST JUMPDEST PUSH1 0x20 MUL PUSH1 0x20 ADD ADD MLOAD LT ISZERO PUSH2 0x42B JUMPI PUSH1 0x1 DUP4 PUSH2 0x424 SWAP2 SWAP1 PUSH2 0x890 JUMP JUMPDEST SWAP2 POP PUSH2 0x43B JUMP JUMPDEST PUSH1 0x1 DUP4 PUSH2 0x438 SWAP2 SWAP1 PUSH2 0x7E9 JUMP JUMPDEST SWAP4 POP JUMPDEST JUMPDEST PUSH2 0x347 JUMP JUMPDEST DUP5 SWAP6 POP POP POP POP POP POP JUMPDEST SWAP3 SWAP2 POP POP JUMP JUMPDEST PUSH0 PUSH1 0x40 MLOAD SWAP1 POP SWAP1 JUMP JUMPDEST PUSH0 PUSH0 REVERT JUMPDEST PUSH0 PUSH0 REVERT JUMPDEST PUSH0 PUSH0 REVERT JUMPDEST PUSH0 PUSH1 0x1F NOT PUSH1 0x1F DUP4 ADD AND SWAP1 POP SWAP2 SWAP1 POP JUMP JUMPDEST PUSH32 0x4E487B7100000000000000000000000000000000000000000000000000000000 PUSH0 MSTORE PUSH1 0x41 PUSH1 0x4 MSTORE PUSH1 0x24 PUSH0 REVERT JUMPDEST PUSH2 0x4AB DUP3 PUSH2 0x465 JUMP JUMPDEST DUP2 ADD DUP2 DUP2 LT PUSH8 0xFFFFFFFFFFFFFFFF DUP3 GT OR ISZERO PUSH2 0x4CA JUMPI PUSH2 0x4C9 PUSH2 0x475 JUMP JUMPDEST JUMPDEST DUP1 PUSH1 0x40 MSTORE POP POP POP JUMP JUMPDEST PUSH0 PUSH2 0x4DC PUSH2 0x450 JUMP JUMPDEST SWAP1 POP PUSH2 0x4E8 DUP3 DUP3 PUSH2 0x4A2 JUMP JUMPDEST SWAP2 SWAP1 POP JUMP JUMPDEST PUSH0 PUSH8 0xFFFFFFFFFFFFFFFF DUP3 GT ISZERO PUSH2 0x507 JUMPI PUSH2 0x506 PUSH2 0x475 JUMP JUMPDEST JUMPDEST PUSH1 0x20 DUP3 MUL SWAP1 POP PUSH1 0x20 DUP2 ADD SWAP1 POP SWAP2 SWAP1 POP JUMP JUMPDEST PUSH0 PUSH0 REVERT JUMPDEST PUSH0 DUP2 SWAP1 POP SWAP2 SWAP1 POP JUMP JUMPDEST PUSH2 0x52E DUP2 PUSH2 0x51C JUMP JUMPDEST DUP2 EQ PUSH2 0x538 JUMPI PUSH0 PUSH0 REVERT JUMPDEST POP JUMP JUMPDEST PUSH0 DUP2 CALLDATALOAD SWAP1 POP PUSH2 0x549 DUP2 PUSH2 0x525 JUMP JUMPDEST SWAP3 SWAP2 POP POP JUMP JUMPDEST PUSH0 PUSH2 0x561 PUSH2 0x55C DUP5 PUSH2 0x4ED JUMP JUMPDEST PUSH2 0x4D3 JUMP JUMPDEST SWAP1 POP DUP1 DUP4 DUP3 MSTORE PUSH1 0x20 DUP3 ADD SWAP1 POP PUSH1 0x20 DUP5 MUL DUP4 ADD DUP6 DUP2 GT ISZERO PUSH2 0x584 JUMPI PUSH2 0x583 PUSH2 0x518 JUMP JUMPDEST JUMPDEST DUP4 JUMPDEST DUP2 DUP2 LT ISZERO PUSH2 0x5AD JUMPI DUP1 PUSH2 0x599 DUP9 DUP3 PUSH2 0x53B JUMP JUMPDEST DUP5 MSTORE PUSH1 0x20 DUP5 ADD SWAP4 POP POP PUSH1 0x20 DUP2 ADD SWAP1 POP PUSH2 0x586 JUMP JUMPDEST POP POP POP SWAP4 SWAP3 POP POP POP JUMP JUMPDEST PUSH0 DUP3 PUSH1 0x1F DUP4 ADD SLT PUSH2 0x5CB JUMPI PUSH2 0x5CA PUSH2 0x461 JUMP JUMPDEST JUMPDEST DUP2 CALLDATALOAD PUSH2 0x5DB DUP5 DUP3 PUSH1 0x20 DUP7 ADD PUSH2 0x54F JUMP JUMPDEST SWAP2 POP POP SWAP3 SWAP2 POP POP JUMP JUMPDEST PUSH0 PUSH0 PUSH1 0x40 DUP4 DUP6 SUB SLT ISZERO PUSH2 0x5FA JUMPI PUSH2 0x5F9 PUSH2 0x459 JUMP JUMPDEST JUMPDEST PUSH0 DUP4 ADD CALLDATALOAD PUSH8 0xFFFFFFFFFFFFFFFF DUP2 GT ISZERO PUSH2 0x617 JUMPI PUSH2 0x616 PUSH2 0x45D JUMP JUMPDEST JUMPDEST PUSH2 0x623 DUP6 DUP3 DUP7 ADD PUSH2 0x5B7 JUMP JUMPDEST SWAP3 POP POP PUSH1 0x20 DUP4 ADD CALLDATALOAD PUSH8 0xFFFFFFFFFFFFFFFF DUP2 GT ISZERO PUSH2 0x644 JUMPI PUSH2 0x643 PUSH2 0x45D JUMP JUMPDEST JUMPDEST PUSH2 0x650 DUP6 DUP3 DUP7 ADD PUSH2 0x5B7 JUMP JUMPDEST SWAP2 POP POP SWAP3 POP SWAP3 SWAP1 POP JUMP JUMPDEST PUSH0 DUP2 MLOAD SWAP1 POP SWAP2 SWAP1 POP JUMP JUMPDEST PUSH0 DUP3 DUP3 MSTORE PUSH1 0x20 DUP3 ADD SWAP1 POP SWAP3 SWAP2 POP POP JUMP JUMPDEST PUSH0 DUP2 SWAP1 POP PUSH1 0x20 DUP3 ADD SWAP1 POP SWAP2 SWAP1 POP JUMP JUMPDEST PUSH2 0x68C DUP2 PUSH2 0x51C JUMP JUMPDEST DUP3 MSTORE POP POP JUMP JUMPDEST PUSH0 PUSH2 0x69D DUP4 DUP4 PUSH2 0x683 JUMP JUMPDEST PUSH1 0x20 DUP4 ADD SWAP1 POP SWAP3 SWAP2 POP POP JUMP JUMPDEST PUSH0 PUSH1 0x20 DUP3 ADD SWAP1 POP SWAP2 SWAP1 POP JUMP JUMPDEST PUSH0 PUSH2 0x6BF DUP3 PUSH2 0x65A JUMP JUMPDEST PUSH2 0x6C9 DUP2 DUP6 PUSH2 0x664 JUMP JUMPDEST SWAP4 POP PUSH2 0x6D4 DUP4 PUSH2 0x674 JUMP JUMPDEST DUP1 PUSH0 JUMPDEST DUP4 DUP2 LT ISZERO PUSH2 0x704 JUMPI DUP2 MLOAD PUSH2 0x6EB DUP9 DUP3 PUSH2 0x692 JUMP JUMPDEST SWAP8 POP PUSH2 0x6F6 DUP4 PUSH2 0x6A9 JUMP JUMPDEST SWAP3 POP POP PUSH1 0x1 DUP2 ADD SWAP1 POP PUSH2 0x6D7 JUMP JUMPDEST POP DUP6 SWAP4 POP POP POP POP SWAP3 SWAP2 POP POP JUMP JUMPDEST PUSH0 PUSH1 0x20 DUP3 ADD SWAP1 POP DUP2 DUP2 SUB PUSH0 DUP4 ADD MSTORE PUSH2 0x729 DUP2 DUP5 PUSH2 0x6B5 JUMP JUMPDEST SWAP1 POP SWAP3 SWAP2 POP POP JUMP JUMPDEST PUSH0 PUSH0 PUSH1 0x40 DUP4 DUP6 SUB SLT ISZERO PUSH2 0x747 JUMPI PUSH2 0x746 PUSH2 0x459 JUMP JUMPDEST JUMPDEST PUSH0 DUP4 ADD CALLDATALOAD PUSH8 0xFFFFFFFFFFFFFFFF DUP2 GT ISZERO PUSH2 0x764 JUMPI PUSH2 0x763 PUSH2 0x45D JUMP JUMPDEST JUMPDEST PUSH2 0x770 DUP6 DUP3 DUP7 ADD PUSH2 0x5B7 JUMP JUMPDEST SWAP3 POP POP PUSH1 0x20 PUSH2 0x781 DUP6 DUP3 DUP7 ADD PUSH2 0x53B JUMP JUMPDEST SWAP2 POP POP SWAP3 POP SWAP3 SWAP1 POP JUMP JUMPDEST PUSH0 DUP2 SWAP1 POP SWAP2 SWAP1 POP JUMP JUMPDEST PUSH2 0x79D DUP2 PUSH2 0x78B JUMP JUMPDEST DUP3 MSTORE POP POP JUMP JUMPDEST PUSH0 PUSH1 0x20 DUP3 ADD SWAP1 POP PUSH2 0x7B6 PUSH0 DUP4 ADD DUP5 PUSH2 0x794 JUMP JUMPDEST SWAP3 SWAP2 POP POP JUMP JUMPDEST PUSH32 0x4E487B7100000000000000000000000000000000000000000000000000000000 PUSH0 MSTORE PUSH1 0x11 PUSH1 0x4 MSTORE PUSH1 0x24 PUSH0 REVERT JUMPDEST PUSH0 PUSH2 0x7F3 DUP3 PUSH2 0x51C JUMP JUMPDEST SWAP2 POP PUSH2 0x7FE DUP4 PUSH2 0x51C JUMP JUMPDEST SWAP3 POP DUP3 DUP3 ADD SWAP1 POP DUP1 DUP3 GT ISZERO PUSH2 0x816 JUMPI PUSH2 0x815 PUSH2 0x7BC JUMP JUMPDEST JUMPDEST SWAP3 SWAP2 POP POP JUMP JUMPDEST PUSH32 0x4E487B7100000000000000000000000000000000000000000000000000000000 PUSH0 MSTORE PUSH1 0x32 PUSH1 0x4 MSTORE PUSH1 0x24 PUSH0 REVERT JUMPDEST PUSH0 PUSH2 0x853 DUP3 PUSH2 0x51C JUMP JUMPDEST SWAP2 POP PUSH32 0xFFFFFFFFFFFFFFFFFFFFFFFFFFFFFFFFFFFFFFFFFFFFFFFFFFFFFFFFFFFFFFFF DUP3 SUB PUSH2 0x885 JUMPI PUSH2 0x884 PUSH2 0x7BC JUMP JUMPDEST JUMPDEST PUSH1 0x1 DUP3 ADD SWAP1 POP SWAP2 SWAP1 POP JUMP JUMPDEST PUSH0 PUSH2 0x89A DUP3 PUSH2 0x51C JUMP JUMPDEST SWAP2 POP PUSH2 0x8A5 DUP4 PUSH2 0x51C JUMP JUMPDEST SWAP3 POP DUP3 DUP3 SUB SWAP1 POP DUP2 DUP2 GT ISZERO PUSH2 0x8BD JUMPI PUSH2 0x8BC PUSH2 0x7BC JUMP JUMPDEST JUMPDEST SWAP3 SWAP2 POP POP JUMP JUMPDEST PUSH32 0x4E487B7100000000000000000000000000000000000000000000000000000000 PUSH0 MSTORE PUSH1 0x12 PUSH1 0x4 MSTORE PUSH1 0x24 PUSH0 REVERT JUMPDEST PUSH0 PUSH2 0x8FA DUP3 PUSH2 0x51C JUMP JUMPDEST SWAP2 POP PUSH2 0x905 DUP4 PUSH2 0x51C JUMP JUMPDEST SWAP3 POP DUP3 PUSH2 0x915 JUMPI PUSH2 0x914 PUSH2 0x8C3 JUMP JUMPDEST JUMPDEST DUP3 DUP3 DIV SWAP1 POP SWAP3 SWAP2 POP POP JUMP INVALID LOG2 PUSH5 0x6970667358 0x22 SLT KECCAK256 PUSH15 0x19DA997FA826F357DDDE848BB2E606 0xC6 LOG2 0xB9 0xC4 PUSH14 0x3FE0FC2DC23EF7D514B10264736F PUSH13 0x634300081E0033000000000000 "
				},
				"gasEstimates": {
					"creation": {
						"codeDepositCost": "478000",
						"executionCost": "509",
						"totalCost": "478509"
					},
					"external": {
						"binarySearch(uint256[],uint256)": "infinite",
						"merge(uint256[],uint256[])": "infinite"
					}
				},
				"methodIdentifiers": {
					"binarySearch(uint256[],uint256)": "b12601da",
					"merge(uint256[],uint256[])": "088b9bf6"
				}
			},
			"storageLayout": {
				"storage": [],
				"types": null
			},
			"userdoc": {
				"kind": "user",
				"methods": {},
				"version": 1
			}
		}
	}
}