{
	"RomanNumber.sol": {
		"RomanNumber": {
			"abi": [
				{
					"inputs": [],
					"stateMutability": "nonpayable",
					"type": "constructor"
				},
				{
					"inputs": [
						{
							"internalType": "bytes1",
							"name": "",
							"type": "bytes1"
						}
					],
					"name": "romanMap",
					"outputs": [
						{
							"internalType": "int256",
							"name": "",
							"type": "int256"
						}
					],
					"stateMutability": "view",
					"type": "function"
				},
				{
					"inputs": [
						{
							"internalType": "uint256",
							"name": "",
							"type": "uint256"
						}
					],
					"name": "romanNumbers",
					"outputs": [
						{
							"internalType": "uint256",
							"name": "value",
							"type": "uint256"
						},
						{
							"internalType": "string",
							"name": "symbol",
							"type": "string"
						}
					],
					"stateMutability": "view",
					"type": "function"
				},
				{
					"inputs": [
						{
							"internalType": "string",
							"name": "s",
							"type": "string"
						}
					],
					"name": "toInt",
					"outputs": [
						{
							"internalType": "int256",
							"name": "",
							"type": "int256"
						}
					],
					"stateMutability": "view",
					"type": "function"
				},
				{
					"inputs": [
						{
							"internalType": "uint256",
							"name": "num",
							"type": "uint256"
						}
					],
					"name": "toRoman",
					"outputs": [
						{
							"internalType": "string",
							"name": "",
							"type": "string"
						}
					],
					"stateMutability": "view",
					"type": "function"
				}
			],
			"devdoc": {
				"kind": "dev",
				"methods": {},
				"version": 1
			},
			"evm": {
				"assembly": "    /* \"RomanNumber.sol\":58:2008  contract RomanNumber{... */\n  mstore(0x40, 0x80)\n    /* \"RomanNumber.sol\":302:1113  constructor() {... */\n  callvalue\n  dup1\n  iszero\n  tag_1\n  jumpi\n  revert(0x00, 0x00)\ntag_1:\n  pop\n    /* \"RomanNumber.sol\":327:339  romanNumbers */\n  0x01\n    /* \"RomanNumber.sol\":345:361  Roman(1000, \"M\") */\n  mload(0x40)\n  dup1\n  0x40\n  add\n  0x40\n  mstore\n  dup1\n    /* \"RomanNumber.sol\":351:355  1000 */\n  0x03e8\n    /* \"RomanNumber.sol\":345:361  Roman(1000, \"M\") */\n  dup2\n  mstore\n  0x20\n  add\n  mload(0x40)\n  dup1\n  0x40\n  add\n  0x40\n  mstore\n  dup1\n  0x01\n  dup2\n  mstore\n  0x20\n  add\n  0x4d00000000000000000000000000000000000000000000000000000000000000\n  dup2\n  mstore\n  pop\n  dup2\n  mstore\n  pop\n    /* \"RomanNumber.sol\":327:362  romanNumbers.push(Roman(1000, \"M\")) */\n  swap1\n  dup1\n  0x01\n  dup2\n  sload\n  add\n  dup1\n  dup3\n  sstore\n  dup1\n  swap2\n  pop\n  pop\n  0x01\n  swap1\n  sub\n  swap1\n  0x00\n  mstore\n  keccak256(0x00, 0x20)\n  swap1\n  0x02\n  mul\n  add\n  0x00\n  swap1\n  swap2\n  swap1\n  swap2\n  swap1\n  swap2\n  pop\n  0x00\n  dup3\n  add\n  mload\n  dup2\n  0x00\n  add\n  sstore\n  0x20\n  dup3\n  add\n  mload\n  dup2\n  0x01\n  add\n  swap1\n  dup2\n  tag_5\n  swap2\n  swap1\n  tag_6\n  jump\t// in\ntag_5:\n  pop\n  pop\n  pop\n    /* \"RomanNumber.sol\":373:385  romanNumbers */\n  0x01\n    /* \"RomanNumber.sol\":391:407  Roman(900, \"CM\") */\n  mload(0x40)\n  dup1\n  0x40\n  add\n  0x40\n  mstore\n  dup1\n    /* \"RomanNumber.sol\":397:400  900 */\n  0x0384\n    /* \"RomanNumber.sol\":391:407  Roman(900, \"CM\") */\n  dup2\n  mstore\n  0x20\n  add\n  mload(0x40)\n  dup1\n  0x40\n  add\n  0x40\n  mstore\n  dup1\n  0x02\n  dup2\n  mstore\n  0x20\n  add\n  0x434d000000000000000000000000000000000000000000000000000000000000\n  dup2\n  mstore\n  pop\n  dup2\n  mstore\n  pop\n    /* \"RomanNumber.sol\":373:408  romanNumbers.push(Roman(900, \"CM\")) */\n  swap1\n  dup1\n  0x01\n  dup2\n  sload\n  add\n  dup1\n  dup3\n  sstore\n  dup1\n  swap2\n  pop\n  pop\n  0x01\n  swap1\n  sub\n  swap1\n  0x00\n  mstore\n  keccak256(0x00, 0x20)\n  swap1\n  0x02\n  mul\n  add\n  0x00\n  swap1\n  swap2\n  swap1\n  swap2\n  swap1\n  swap2\n  pop\n  0x00\n  dup3\n  add\n  mload\n  dup2\n  0x00\n  add\n  sstore\n  0x20\n  dup3\n  add\n  mload\n  dup2\n  0x01\n  add\n  swap1\n  dup2\n  tag_8\n  swap2\n  swap1\n  tag_6\n  jump\t// in\ntag_8:\n  pop\n  pop\n  pop\n    /* \"RomanNumber.sol\":419:431  romanNumbers */\n  0x01\n    /* \"RomanNumber.sol\":437:452  Roman(500, \"D\") */\n  mload(0x40)\n  dup1\n  0x40\n  add\n  0x40\n  mstore\n  dup1\n    /* \"RomanNumber.sol\":443:446  500 */\n  0x01f4\n    /* \"RomanNumber.sol\":437:452  Roman(500, \"D\") */\n  dup2\n  mstore\n  0x20\n  add\n  mload(0x40)\n  dup1\n  0x40\n  add\n  0x40\n  mstore\n  dup1\n  0x01\n  dup2\n  mstore\n  0x20\n  add\n  0x4400000000000000000000000000000000000000000000000000000000000000\n  dup2\n  mstore\n  pop\n  dup2\n  mstore\n  pop\n    /* \"RomanNumber.sol\":419:453  romanNumbers.push(Roman(500, \"D\")) */\n  swap1\n  dup1\n  0x01\n  dup2\n  sload\n  add\n  dup1\n  dup3\n  sstore\n  dup1\n  swap2\n  pop\n  pop\n  0x01\n  swap1\n  sub\n  swap1\n  0x00\n  mstore\n  keccak256(0x00, 0x20)\n  swap1\n  0x02\n  mul\n  add\n  0x00\n  swap1\n  swap2\n  swap1\n  swap2\n  swap1\n  swap2\n  pop\n  0x00\n  dup3\n  add\n  mload\n  dup2\n  0x00\n  add\n  sstore\n  0x20\n  dup3\n  add\n  mload\n  dup2\n  0x01\n  add\n  swap1\n  dup2\n  tag_10\n  swap2\n  swap1\n  tag_6\n  jump\t// in\ntag_10:\n  pop\n  pop\n  pop\n    /* \"RomanNumber.sol\":464:476  romanNumbers */\n  0x01\n    /* \"RomanNumber.sol\":482:498  Roman(400, \"CD\") */\n  mload(0x40)\n  dup1\n  0x40\n  add\n  0x40\n  mstore\n  dup1\n    /* \"RomanNumber.sol\":488:491  400 */\n  0x0190\n    /* \"RomanNumber.sol\":482:498  Roman(400, \"CD\") */\n  dup2\n  mstore\n  0x20\n  add\n  mload(0x40)\n  dup1\n  0x40\n  add\n  0x40\n  mstore\n  dup1\n  0x02\n  dup2\n  mstore\n  0x20\n  add\n  0x4344000000000000000000000000000000000000000000000000000000000000\n  dup2\n  mstore\n  pop\n  dup2\n  mstore\n  pop\n    /* \"RomanNumber.sol\":464:499  romanNumbers.push(Roman(400, \"CD\")) */\n  swap1\n  dup1\n  0x01\n  dup2\n  sload\n  add\n  dup1\n  dup3\n  sstore\n  dup1\n  swap2\n  pop\n  pop\n  0x01\n  swap1\n  sub\n  swap1\n  0x00\n  mstore\n  keccak256(0x00, 0x20)\n  swap1\n  0x02\n  mul\n  add\n  0x00\n  swap1\n  swap2\n  swap1\n  swap2\n  swap1\n  swap2\n  pop\n  0x00\n  dup3\n  add\n  mload\n  dup2\n  0x00\n  add\n  sstore\n  0x20\n  dup3\n  add\n  mload\n  dup2\n  0x01\n  add\n  swap1\n  dup2\n  tag_12\n  swap2\n  swap1\n  tag_6\n  jump\t// in\ntag_12:\n  pop\n  pop\n  pop\n    /* \"RomanNumber.sol\":510:522  romanNumbers */\n  0x01\n    /* \"RomanNumber.sol\":528:543  Roman(100, \"C\") */\n  mload(0x40)\n  dup1\n  0x40\n  add\n  0x40\n  mstore\n  dup1\n    /* \"RomanNumber.sol\":534:537  100 */\n  0x64\n    /* \"RomanNumber.sol\":528:543  Roman(100, \"C\") */\n  dup2\n  mstore\n  0x20\n  add\n  mload(0x40)\n  dup1\n  0x40\n  add\n  0x40\n  mstore\n  dup1\n  0x01\n  dup2\n  mstore\n  0x20\n  add\n  0x4300000000000000000000000000000000000000000000000000000000000000\n  dup2\n  mstore\n  pop\n  dup2\n  mstore\n  pop\n    /* \"RomanNumber.sol\":510:544  romanNumbers.push(Roman(100, \"C\")) */\n  swap1\n  dup1\n  0x01\n  dup2\n  sload\n  add\n  dup1\n  dup3\n  sstore\n  dup1\n  swap2\n  pop\n  pop\n  0x01\n  swap1\n  sub\n  swap1\n  0x00\n  mstore\n  keccak256(0x00, 0x20)\n  swap1\n  0x02\n  mul\n  add\n  0x00\n  swap1\n  swap2\n  swap1\n  swap2\n  swap1\n  swap2\n  pop\n  0x00\n  dup3\n  add\n  mload\n  dup2\n  0x00\n  add\n  sstore\n  0x20\n  dup3\n  add\n  mload\n  dup2\n  0x01\n  add\n  swap1\n  dup2\n  tag_14\n  swap2\n  swap1\n  tag_6\n  jump\t// in\ntag_14:\n  pop\n  pop\n  pop\n    /* \"RomanNumber.sol\":555:567  romanNumbers */\n  0x01\n    /* \"RomanNumber.sol\":573:588  Roman(90, \"XC\") */\n  mload(0x40)\n  dup1\n  0x40\n  add\n  0x40\n  mstore\n  dup1\n    /* \"RomanNumber.sol\":579:581  90 */\n  0x5a\n    /* \"RomanNumber.sol\":573:588  Roman(90, \"XC\") */\n  dup2\n  mstore\n  0x20\n  add\n  mload(0x40)\n  dup1\n  0x40\n  add\n  0x40\n  mstore\n  dup1\n  0x02\n  dup2\n  mstore\n  0x20\n  add\n  0x5843000000000000000000000000000000000000000000000000000000000000\n  dup2\n  mstore\n  pop\n  dup2\n  mstore\n  pop\n    /* \"RomanNumber.sol\":555:589  romanNumbers.push(Roman(90, \"XC\")) */\n  swap1\n  dup1\n  0x01\n  dup2\n  sload\n  add\n  dup1\n  dup3\n  sstore\n  dup1\n  swap2\n  pop\n  pop\n  0x01\n  swap1\n  sub\n  swap1\n  0x00\n  mstore\n  keccak256(0x00, 0x20)\n  swap1\n  0x02\n  mul\n  add\n  0x00\n  swap1\n  swap2\n  swap1\n  swap2\n  swap1\n  swap2\n  pop\n  0x00\n  dup3\n  add\n  mload\n  dup2\n  0x00\n  add\n  sstore\n  0x20\n  dup3\n  add\n  mload\n  dup2\n  0x01\n  add\n  swap1\n  dup2\n  tag_16\n  swap2\n  swap1\n  tag_6\n  jump\t// in\ntag_16:\n  pop\n  pop\n  pop\n    /* \"RomanNumber.sol\":600:612  romanNumbers */\n  0x01\n    /* \"RomanNumber.sol\":618:632  Roman(50, \"L\") */\n  mload(0x40)\n  dup1\n  0x40\n  add\n  0x40\n  mstore\n  dup1\n    /* \"RomanNumber.sol\":624:626  50 */\n  0x32\n    /* \"RomanNumber.sol\":618:632  Roman(50, \"L\") */\n  dup2\n  mstore\n  0x20\n  add\n  mload(0x40)\n  dup1\n  0x40\n  add\n  0x40\n  mstore\n  dup1\n  0x01\n  dup2\n  mstore\n  0x20\n  add\n  0x4c00000000000000000000000000000000000000000000000000000000000000\n  dup2\n  mstore\n  pop\n  dup2\n  mstore\n  pop\n    /* \"RomanNumber.sol\":600:633  romanNumbers.push(Roman(50, \"L\")) */\n  swap1\n  dup1\n  0x01\n  dup2\n  sload\n  add\n  dup1\n  dup3\n  sstore\n  dup1\n  swap2\n  pop\n  pop\n  0x01\n  swap1\n  sub\n  swap1\n  0x00\n  mstore\n  keccak256(0x00, 0x20)\n  swap1\n  0x02\n  mul\n  add\n  0x00\n  swap1\n  swap2\n  swap1\n  swap2\n  swap1\n  swap2\n  pop\n  0x00\n  dup3\n  add\n  mload\n  dup2\n  0x00\n  add\n  sstore\n  0x20\n  dup3\n  add\n  mload\n  dup2\n  0x01\n  add\n  swap1\n  dup2\n  tag_18\n  swap2\n  swap1\n  tag_6\n  jump\t// in\ntag_18:\n  pop\n  pop\n  pop\n    /* \"RomanNumber.sol\":644:656  romanNumbers */\n  0x01\n    /* \"RomanNumber.sol\":662:677  Roman(40, \"XL\") */\n  mload(0x40)\n  dup1\n  0x40\n  add\n  0x40\n  mstore\n  dup1\n    /* \"RomanNumber.sol\":668:670  40 */\n  0x28\n    /* \"RomanNumber.sol\":662:677  Roman(40, \"XL\") */\n  dup2\n  mstore\n  0x20\n  add\n  mload(0x40)\n  dup1\n  0x40\n  add\n  0x40\n  mstore\n  dup1\n  0x02\n  dup2\n  mstore\n  0x20\n  add\n  0x584c000000000000000000000000000000000000000000000000000000000000\n  dup2\n  mstore\n  pop\n  dup2\n  mstore\n  pop\n    /* \"RomanNumber.sol\":644:678  romanNumbers.push(Roman(40, \"XL\")) */\n  swap1\n  dup1\n  0x01\n  dup2\n  sload\n  add\n  dup1\n  dup3\n  sstore\n  dup1\n  swap2\n  pop\n  pop\n  0x01\n  swap1\n  sub\n  swap1\n  0x00\n  mstore\n  keccak256(0x00, 0x20)\n  swap1\n  0x02\n  mul\n  add\n  0x00\n  swap1\n  swap2\n  swap1\n  swap2\n  swap1\n  swap2\n  pop\n  0x00\n  dup3\n  add\n  mload\n  dup2\n  0x00\n  add\n  sstore\n  0x20\n  dup3\n  add\n  mload\n  dup2\n  0x01\n  add\n  swap1\n  dup2\n  tag_20\n  swap2\n  swap1\n  tag_6\n  jump\t// in\ntag_20:\n  pop\n  pop\n  pop\n    /* \"RomanNumber.sol\":689:701  romanNumbers */\n  0x01\n    /* \"RomanNumber.sol\":707:721  Roman(10, \"X\") */\n  mload(0x40)\n  dup1\n  0x40\n  add\n  0x40\n  mstore\n  dup1\n    /* \"RomanNumber.sol\":713:715  10 */\n  0x0a\n    /* \"RomanNumber.sol\":707:721  Roman(10, \"X\") */\n  dup2\n  mstore\n  0x20\n  add\n  mload(0x40)\n  dup1\n  0x40\n  add\n  0x40\n  mstore\n  dup1\n  0x01\n  dup2\n  mstore\n  0x20\n  add\n  0x5800000000000000000000000000000000000000000000000000000000000000\n  dup2\n  mstore\n  pop\n  dup2\n  mstore\n  pop\n    /* \"RomanNumber.sol\":689:722  romanNumbers.push(Roman(10, \"X\")) */\n  swap1\n  dup1\n  0x01\n  dup2\n  sload\n  add\n  dup1\n  dup3\n  sstore\n  dup1\n  swap2\n  pop\n  pop\n  0x01\n  swap1\n  sub\n  swap1\n  0x00\n  mstore\n  keccak256(0x00, 0x20)\n  swap1\n  0x02\n  mul\n  add\n  0x00\n  swap1\n  swap2\n  swap1\n  swap2\n  swap1\n  swap2\n  pop\n  0x00\n  dup3\n  add\n  mload\n  dup2\n  0x00\n  add\n  sstore\n  0x20\n  dup3\n  add\n  mload\n  dup2\n  0x01\n  add\n  swap1\n  dup2\n  tag_22\n  swap2\n  swap1\n  tag_6\n  jump\t// in\ntag_22:\n  pop\n  pop\n  pop\n    /* \"RomanNumber.sol\":733:745  romanNumbers */\n  0x01\n    /* \"RomanNumber.sol\":751:765  Roman(9, \"IX\") */\n  mload(0x40)\n  dup1\n  0x40\n  add\n  0x40\n  mstore\n  dup1\n    /* \"RomanNumber.sol\":757:758  9 */\n  0x09\n    /* \"RomanNumber.sol\":751:765  Roman(9, \"IX\") */\n  dup2\n  mstore\n  0x20\n  add\n  mload(0x40)\n  dup1\n  0x40\n  add\n  0x40\n  mstore\n  dup1\n  0x02\n  dup2\n  mstore\n  0x20\n  add\n  0x4958000000000000000000000000000000000000000000000000000000000000\n  dup2\n  mstore\n  pop\n  dup2\n  mstore\n  pop\n    /* \"RomanNumber.sol\":733:766  romanNumbers.push(Roman(9, \"IX\")) */\n  swap1\n  dup1\n  0x01\n  dup2\n  sload\n  add\n  dup1\n  dup3\n  sstore\n  dup1\n  swap2\n  pop\n  pop\n  0x01\n  swap1\n  sub\n  swap1\n  0x00\n  mstore\n  keccak256(0x00, 0x20)\n  swap1\n  0x02\n  mul\n  add\n  0x00\n  swap1\n  swap2\n  swap1\n  swap2\n  swap1\n  swap2\n  pop\n  0x00\n  dup3\n  add\n  mload\n  dup2\n  0x00\n  add\n  sstore\n  0x20\n  dup3\n  add\n  mload\n  dup2\n  0x01\n  add\n  swap1\n  dup2\n  tag_24\n  swap2\n  swap1\n  tag_6\n  jump\t// in\ntag_24:\n  pop\n  pop\n  pop\n    /* \"RomanNumber.sol\":777:789  romanNumbers */\n  0x01\n    /* \"RomanNumber.sol\":795:808  Roman(5, \"V\") */\n  mload(0x40)\n  dup1\n  0x40\n  add\n  0x40\n  mstore\n  dup1\n    /* \"RomanNumber.sol\":801:802  5 */\n  0x05\n    /* \"RomanNumber.sol\":795:808  Roman(5, \"V\") */\n  dup2\n  mstore\n  0x20\n  add\n  mload(0x40)\n  dup1\n  0x40\n  add\n  0x40\n  mstore\n  dup1\n  0x01\n  dup2\n  mstore\n  0x20\n  add\n  0x5600000000000000000000000000000000000000000000000000000000000000\n  dup2\n  mstore\n  pop\n  dup2\n  mstore\n  pop\n    /* \"RomanNumber.sol\":777:809  romanNumbers.push(Roman(5, \"V\")) */\n  swap1\n  dup1\n  0x01\n  dup2\n  sload\n  add\n  dup1\n  dup3\n  sstore\n  dup1\n  swap2\n  pop\n  pop\n  0x01\n  swap1\n  sub\n  swap1\n  0x00\n  mstore\n  keccak256(0x00, 0x20)\n  swap1\n  0x02\n  mul\n  add\n  0x00\n  swap1\n  swap2\n  swap1\n  swap2\n  swap1\n  swap2\n  pop\n  0x00\n  dup3\n  add\n  mload\n  dup2\n  0x00\n  add\n  sstore\n  0x20\n  dup3\n  add\n  mload\n  dup2\n  0x01\n  add\n  swap1\n  dup2\n  tag_26\n  swap2\n  swap1\n  tag_6\n  jump\t// in\ntag_26:\n  pop\n  pop\n  pop\n    /* \"RomanNumber.sol\":820:832  romanNumbers */\n  0x01\n    /* \"RomanNumber.sol\":838:852  Roman(4, \"IV\") */\n  mload(0x40)\n  dup1\n  0x40\n  add\n  0x40\n  mstore\n  dup1\n    /* \"RomanNumber.sol\":844:845  4 */\n  0x04\n    /* \"RomanNumber.sol\":838:852  Roman(4, \"IV\") */\n  dup2\n  mstore\n  0x20\n  add\n  mload(0x40)\n  dup1\n  0x40\n  add\n  0x40\n  mstore\n  dup1\n  0x02\n  dup2\n  mstore\n  0x20\n  add\n  0x4956000000000000000000000000000000000000000000000000000000000000\n  dup2\n  mstore\n  pop\n  dup2\n  mstore\n  pop\n    /* \"RomanNumber.sol\":820:853  romanNumbers.push(Roman(4, \"IV\")) */\n  swap1\n  dup1\n  0x01\n  dup2\n  sload\n  add\n  dup1\n  dup3\n  sstore\n  dup1\n  swap2\n  pop\n  pop\n  0x01\n  swap1\n  sub\n  swap1\n  0x00\n  mstore\n  keccak256(0x00, 0x20)\n  swap1\n  0x02\n  mul\n  add\n  0x00\n  swap1\n  swap2\n  swap1\n  swap2\n  swap1\n  swap2\n  pop\n  0x00\n  dup3\n  add\n  mload\n  dup2\n  0x00\n  add\n  sstore\n  0x20\n  dup3\n  add\n  mload\n  dup2\n  0x01\n  add\n  swap1\n  dup2\n  tag_28\n  swap2\n  swap1\n  tag_6\n  jump\t// in\ntag_28:\n  pop\n  pop\n  pop\n    /* \"RomanNumber.sol\":864:876  romanNumbers */\n  0x01\n    /* \"RomanNumber.sol\":882:895  Roman(1, \"I\") */\n  mload(0x40)\n  dup1\n  0x40\n  add\n  0x40\n  mstore\n  dup1\n    /* \"RomanNumber.sol\":888:889  1 */\n  0x01\n    /* \"RomanNumber.sol\":882:895  Roman(1, \"I\") */\n  dup2\n  mstore\n  0x20\n  add\n  mload(0x40)\n  dup1\n  0x40\n  add\n  0x40\n  mstore\n  dup1\n  0x01\n  dup2\n  mstore\n  0x20\n  add\n  0x4900000000000000000000000000000000000000000000000000000000000000\n  dup2\n  mstore\n  pop\n  dup2\n  mstore\n  pop\n    /* \"RomanNumber.sol\":864:896  romanNumbers.push(Roman(1, \"I\")) */\n  swap1\n  dup1\n  0x01\n  dup2\n  sload\n  add\n  dup1\n  dup3\n  sstore\n  dup1\n  swap2\n  pop\n  pop\n  0x01\n  swap1\n  sub\n  swap1\n  0x00\n  mstore\n  keccak256(0x00, 0x20)\n  swap1\n  0x02\n  mul\n  add\n  0x00\n  swap1\n  swap2\n  swap1\n  swap2\n  swap1\n  swap2\n  pop\n  0x00\n  dup3\n  add\n  mload\n  dup2\n  0x00\n  add\n  sstore\n  0x20\n  dup3\n  add\n  mload\n  dup2\n  0x01\n  add\n  swap1\n  dup2\n  tag_30\n  swap2\n  swap1\n  tag_6\n  jump\t// in\ntag_30:\n  pop\n  pop\n  pop\n    /* \"RomanNumber.sol\":925:926  1 */\n  0x01\n    /* \"RomanNumber.sol\":909:917  romanMap */\n  0x00\n    /* \"RomanNumber.sol\":909:922  romanMap['I'] */\n  0x00\n  and(not(0xffffffffffffffffffffffffffffffffffffffffffffffffffffffffffffff), 0x4900000000000000000000000000000000000000000000000000000000000000)\n  dup2\n  mstore\n  0x20\n  add\n  swap1\n  dup2\n  mstore\n  0x20\n  add\n  0x00\n  keccak256\n    /* \"RomanNumber.sol\":909:926  romanMap['I'] = 1 */\n  dup2\n  swap1\n  sstore\n  pop\n    /* \"RomanNumber.sol\":953:954  5 */\n  0x05\n    /* \"RomanNumber.sol\":937:945  romanMap */\n  0x00\n    /* \"RomanNumber.sol\":937:950  romanMap['V'] */\n  0x00\n  and(not(0xffffffffffffffffffffffffffffffffffffffffffffffffffffffffffffff), 0x5600000000000000000000000000000000000000000000000000000000000000)\n  dup2\n  mstore\n  0x20\n  add\n  swap1\n  dup2\n  mstore\n  0x20\n  add\n  0x00\n  keccak256\n    /* \"RomanNumber.sol\":937:954  romanMap['V'] = 5 */\n  dup2\n  swap1\n  sstore\n  pop\n    /* \"RomanNumber.sol\":981:983  10 */\n  0x0a\n    /* \"RomanNumber.sol\":965:973  romanMap */\n  0x00\n    /* \"RomanNumber.sol\":965:978  romanMap['X'] */\n  0x00\n  and(not(0xffffffffffffffffffffffffffffffffffffffffffffffffffffffffffffff), 0x5800000000000000000000000000000000000000000000000000000000000000)\n  dup2\n  mstore\n  0x20\n  add\n  swap1\n  dup2\n  mstore\n  0x20\n  add\n  0x00\n  keccak256\n    /* \"RomanNumber.sol\":965:983  romanMap['X'] = 10 */\n  dup2\n  swap1\n  sstore\n  pop\n    /* \"RomanNumber.sol\":1010:1012  50 */\n  0x32\n    /* \"RomanNumber.sol\":994:1002  romanMap */\n  0x00\n    /* \"RomanNumber.sol\":994:1007  romanMap['L'] */\n  0x00\n  and(not(0xffffffffffffffffffffffffffffffffffffffffffffffffffffffffffffff), 0x4c00000000000000000000000000000000000000000000000000000000000000)\n  dup2\n  mstore\n  0x20\n  add\n  swap1\n  dup2\n  mstore\n  0x20\n  add\n  0x00\n  keccak256\n    /* \"RomanNumber.sol\":994:1012  romanMap['L'] = 50 */\n  dup2\n  swap1\n  sstore\n  pop\n    /* \"RomanNumber.sol\":1039:1042  100 */\n  0x64\n    /* \"RomanNumber.sol\":1023:1031  romanMap */\n  0x00\n    /* \"RomanNumber.sol\":1023:1036  romanMap['C'] */\n  0x00\n  and(not(0xffffffffffffffffffffffffffffffffffffffffffffffffffffffffffffff), 0x4300000000000000000000000000000000000000000000000000000000000000)\n  dup2\n  mstore\n  0x20\n  add\n  swap1\n  dup2\n  mstore\n  0x20\n  add\n  0x00\n  keccak256\n    /* \"RomanNumber.sol\":1023:1042  romanMap['C'] = 100 */\n  dup2\n  swap1\n  sstore\n  pop\n    /* \"RomanNumber.sol\":1069:1072  500 */\n  0x01f4\n    /* \"RomanNumber.sol\":1053:1061  romanMap */\n  0x00\n    /* \"RomanNumber.sol\":1053:1066  romanMap['D'] */\n  0x00\n  and(not(0xffffffffffffffffffffffffffffffffffffffffffffffffffffffffffffff), 0x4400000000000000000000000000000000000000000000000000000000000000)\n  dup2\n  mstore\n  0x20\n  add\n  swap1\n  dup2\n  mstore\n  0x20\n  add\n  0x00\n  keccak256\n    /* \"RomanNumber.sol\":1053:1072  romanMap['D'] = 500 */\n  dup2\n  swap1\n  sstore\n  pop\n    /* \"RomanNumber.sol\":1099:1103  1000 */\n  0x03e8\n    /* \"RomanNumber.sol\":1083:1091  romanMap */\n  0x00\n    /* \"RomanNumber.sol\":1083:1096  romanMap['M'] */\n  0x00\n  and(not(0xffffffffffffffffffffffffffffffffffffffffffffffffffffffffffffff), 0x4d00000000000000000000000000000000000000000000000000000000000000)\n  dup2\n  mstore\n  0x20\n  add\n  swap1\n  dup2\n  mstore\n  0x20\n  add\n  0x00\n  keccak256\n    /* \"RomanNumber.sol\":1083:1103  romanMap['M'] = 1000 */\n  dup2\n  swap1\n  sstore\n  pop\n    /* \"RomanNumber.sol\":58:2008  contract RomanNumber{... */\n  jump(tag_31)\n    /* \"#utility.yul\":7:106   */\ntag_32:\n    /* \"#utility.yul\":59:65   */\n  0x00\n    /* \"#utility.yul\":93:98   */\n  dup2\n    /* \"#utility.yul\":87:99   */\n  mload\n    /* \"#utility.yul\":77:99   */\n  swap1\n  pop\n    /* \"#utility.yul\":7:106   */\n  swap2\n  swap1\n  pop\n  jump\t// out\n    /* \"#utility.yul\":112:292   */\ntag_33:\n    /* \"#utility.yul\":160:237   */\n  0x4e487b7100000000000000000000000000000000000000000000000000000000\n    /* \"#utility.yul\":157:158   */\n  0x00\n    /* \"#utility.yul\":150:238   */\n  mstore\n    /* \"#utility.yul\":257:261   */\n  0x41\n    /* \"#utility.yul\":254:255   */\n  0x04\n    /* \"#utility.yul\":247:262   */\n  mstore\n    /* \"#utility.yul\":281:285   */\n  0x24\n    /* \"#utility.yul\":278:279   */\n  0x00\n    /* \"#utility.yul\":271:286   */\n  revert\n    /* \"#utility.yul\":298:478   */\ntag_34:\n    /* \"#utility.yul\":346:423   */\n  0x4e487b7100000000000000000000000000000000000000000000000000000000\n    /* \"#utility.yul\":343:344   */\n  0x00\n    /* \"#utility.yul\":336:424   */\n  mstore\n    /* \"#utility.yul\":443:447   */\n  0x22\n    /* \"#utility.yul\":440:441   */\n  0x04\n    /* \"#utility.yul\":433:448   */\n  mstore\n    /* \"#utility.yul\":467:471   */\n  0x24\n    /* \"#utility.yul\":464:465   */\n  0x00\n    /* \"#utility.yul\":457:472   */\n  revert\n    /* \"#utility.yul\":484:804   */\ntag_35:\n    /* \"#utility.yul\":528:534   */\n  0x00\n    /* \"#utility.yul\":565:566   */\n  0x02\n    /* \"#utility.yul\":559:563   */\n  dup3\n    /* \"#utility.yul\":555:567   */\n  div\n    /* \"#utility.yul\":545:567   */\n  swap1\n  pop\n    /* \"#utility.yul\":612:613   */\n  0x01\n    /* \"#utility.yul\":606:610   */\n  dup3\n    /* \"#utility.yul\":602:614   */\n  and\n    /* \"#utility.yul\":633:651   */\n  dup1\n    /* \"#utility.yul\":623:704   */\n  tag_57\n  jumpi\n    /* \"#utility.yul\":689:693   */\n  0x7f\n    /* \"#utility.yul\":681:687   */\n  dup3\n    /* \"#utility.yul\":677:694   */\n  and\n    /* \"#utility.yul\":667:694   */\n  swap2\n  pop\n    /* \"#utility.yul\":623:704   */\ntag_57:\n    /* \"#utility.yul\":751:753   */\n  0x20\n    /* \"#utility.yul\":743:749   */\n  dup3\n    /* \"#utility.yul\":740:754   */\n  lt\n    /* \"#utility.yul\":720:738   */\n  dup2\n    /* \"#utility.yul\":717:755   */\n  sub\n    /* \"#utility.yul\":714:798   */\n  tag_58\n  jumpi\n    /* \"#utility.yul\":770:788   */\n  tag_59\n  tag_34\n  jump\t// in\ntag_59:\n    /* \"#utility.yul\":714:798   */\ntag_58:\n    /* \"#utility.yul\":535:804   */\n  pop\n    /* \"#utility.yul\":484:804   */\n  swap2\n  swap1\n  pop\n  jump\t// out\n    /* \"#utility.yul\":810:951   */\ntag_36:\n    /* \"#utility.yul\":859:863   */\n  0x00\n    /* \"#utility.yul\":882:885   */\n  dup2\n    /* \"#utility.yul\":874:885   */\n  swap1\n  pop\n    /* \"#utility.yul\":905:908   */\n  dup2\n    /* \"#utility.yul\":902:903   */\n  0x00\n    /* \"#utility.yul\":895:909   */\n  mstore\n    /* \"#utility.yul\":939:943   */\n  0x20\n    /* \"#utility.yul\":936:937   */\n  0x00\n    /* \"#utility.yul\":926:944   */\n  keccak256\n    /* \"#utility.yul\":918:944   */\n  swap1\n  pop\n    /* \"#utility.yul\":810:951   */\n  swap2\n  swap1\n  pop\n  jump\t// out\n    /* \"#utility.yul\":957:1050   */\ntag_37:\n    /* \"#utility.yul\":994:1000   */\n  0x00\n    /* \"#utility.yul\":1041:1043   */\n  0x20\n    /* \"#utility.yul\":1036:1038   */\n  0x1f\n    /* \"#utility.yul\":1029:1034   */\n  dup4\n    /* \"#utility.yul\":1025:1039   */\n  add\n    /* \"#utility.yul\":1021:1044   */\n  div\n    /* \"#utility.yul\":1011:1044   */\n  swap1\n  pop\n    /* \"#utility.yul\":957:1050   */\n  swap2\n  swap1\n  pop\n  jump\t// out\n    /* \"#utility.yul\":1056:1163   */\ntag_38:\n    /* \"#utility.yul\":1100:1108   */\n  0x00\n    /* \"#utility.yul\":1150:1155   */\n  dup3\n    /* \"#utility.yul\":1144:1148   */\n  dup3\n    /* \"#utility.yul\":1140:1156   */\n  shl\n    /* \"#utility.yul\":1119:1156   */\n  swap1\n  pop\n    /* \"#utility.yul\":1056:1163   */\n  swap3\n  swap2\n  pop\n  pop\n  jump\t// out\n    /* \"#utility.yul\":1169:1562   */\ntag_39:\n    /* \"#utility.yul\":1238:1244   */\n  0x00\n    /* \"#utility.yul\":1288:1289   */\n  0x08\n    /* \"#utility.yul\":1276:1286   */\n  dup4\n    /* \"#utility.yul\":1272:1290   */\n  mul\n    /* \"#utility.yul\":1311:1408   */\n  tag_64\n    /* \"#utility.yul\":1341:1407   */\n  0xffffffffffffffffffffffffffffffffffffffffffffffffffffffffffffffff\n    /* \"#utility.yul\":1330:1339   */\n  dup3\n    /* \"#utility.yul\":1311:1408   */\n  tag_38\n  jump\t// in\ntag_64:\n    /* \"#utility.yul\":1429:1468   */\n  tag_65\n    /* \"#utility.yul\":1459:1467   */\n  dup7\n    /* \"#utility.yul\":1448:1457   */\n  dup4\n    /* \"#utility.yul\":1429:1468   */\n  tag_38\n  jump\t// in\ntag_65:\n    /* \"#utility.yul\":1417:1468   */\n  swap6\n  pop\n    /* \"#utility.yul\":1501:1505   */\n  dup1\n    /* \"#utility.yul\":1497:1506   */\n  not\n    /* \"#utility.yul\":1490:1495   */\n  dup5\n    /* \"#utility.yul\":1486:1507   */\n  and\n    /* \"#utility.yul\":1477:1507   */\n  swap4\n  pop\n    /* \"#utility.yul\":1550:1554   */\n  dup1\n    /* \"#utility.yul\":1540:1548   */\n  dup7\n    /* \"#utility.yul\":1536:1555   */\n  and\n    /* \"#utility.yul\":1529:1534   */\n  dup5\n    /* \"#utility.yul\":1526:1556   */\n  or\n    /* \"#utility.yul\":1516:1556   */\n  swap3\n  pop\n    /* \"#utility.yul\":1245:1562   */\n  pop\n  pop\n    /* \"#utility.yul\":1169:1562   */\n  swap4\n  swap3\n  pop\n  pop\n  pop\n  jump\t// out\n    /* \"#utility.yul\":1568:1645   */\ntag_40:\n    /* \"#utility.yul\":1605:1612   */\n  0x00\n    /* \"#utility.yul\":1634:1639   */\n  dup2\n    /* \"#utility.yul\":1623:1639   */\n  swap1\n  pop\n    /* \"#utility.yul\":1568:1645   */\n  swap2\n  swap1\n  pop\n  jump\t// out\n    /* \"#utility.yul\":1651:1711   */\ntag_41:\n    /* \"#utility.yul\":1679:1682   */\n  0x00\n    /* \"#utility.yul\":1700:1705   */\n  dup2\n    /* \"#utility.yul\":1693:1705   */\n  swap1\n  pop\n    /* \"#utility.yul\":1651:1711   */\n  swap2\n  swap1\n  pop\n  jump\t// out\n    /* \"#utility.yul\":1717:1859   */\ntag_42:\n    /* \"#utility.yul\":1767:1776   */\n  0x00\n    /* \"#utility.yul\":1800:1853   */\n  tag_69\n    /* \"#utility.yul\":1818:1852   */\n  tag_70\n    /* \"#utility.yul\":1827:1851   */\n  tag_71\n    /* \"#utility.yul\":1845:1850   */\n  dup5\n    /* \"#utility.yul\":1827:1851   */\n  tag_40\n  jump\t// in\ntag_71:\n    /* \"#utility.yul\":1818:1852   */\n  tag_41\n  jump\t// in\ntag_70:\n    /* \"#utility.yul\":1800:1853   */\n  tag_40\n  jump\t// in\ntag_69:\n    /* \"#utility.yul\":1787:1853   */\n  swap1\n  pop\n    /* \"#utility.yul\":1717:1859   */\n  swap2\n  swap1\n  pop\n  jump\t// out\n    /* \"#utility.yul\":1865:1940   */\ntag_43:\n    /* \"#utility.yul\":1908:1911   */\n  0x00\n    /* \"#utility.yul\":1929:1934   */\n  dup2\n    /* \"#utility.yul\":1922:1934   */\n  swap1\n  pop\n    /* \"#utility.yul\":1865:1940   */\n  swap2\n  swap1\n  pop\n  jump\t// out\n    /* \"#utility.yul\":1946:2215   */\ntag_44:\n    /* \"#utility.yul\":2056:2095   */\n  tag_74\n    /* \"#utility.yul\":2087:2094   */\n  dup4\n    /* \"#utility.yul\":2056:2095   */\n  tag_42\n  jump\t// in\ntag_74:\n    /* \"#utility.yul\":2117:2208   */\n  tag_75\n    /* \"#utility.yul\":2166:2207   */\n  tag_76\n    /* \"#utility.yul\":2190:2206   */\n  dup3\n    /* \"#utility.yul\":2166:2207   */\n  tag_43\n  jump\t// in\ntag_76:\n    /* \"#utility.yul\":2158:2164   */\n  dup5\n    /* \"#utility.yul\":2151:2155   */\n  dup5\n    /* \"#utility.yul\":2145:2156   */\n  sload\n    /* \"#utility.yul\":2117:2208   */\n  tag_39\n  jump\t// in\ntag_75:\n    /* \"#utility.yul\":2111:2115   */\n  dup3\n    /* \"#utility.yul\":2104:2209   */\n  sstore\n    /* \"#utility.yul\":2022:2215   */\n  pop\n    /* \"#utility.yul\":1946:2215   */\n  pop\n  pop\n  pop\n  jump\t// out\n    /* \"#utility.yul\":2221:2294   */\ntag_45:\n    /* \"#utility.yul\":2266:2269   */\n  0x00\n    /* \"#utility.yul\":2287:2288   */\n  0x00\n    /* \"#utility.yul\":2280:2288   */\n  swap1\n  pop\n    /* \"#utility.yul\":2221:2294   */\n  swap1\n  jump\t// out\n    /* \"#utility.yul\":2300:2489   */\ntag_46:\n    /* \"#utility.yul\":2377:2409   */\n  tag_79\n  tag_45\n  jump\t// in\ntag_79:\n    /* \"#utility.yul\":2418:2483   */\n  tag_80\n    /* \"#utility.yul\":2476:2482   */\n  dup2\n    /* \"#utility.yul\":2468:2474   */\n  dup5\n    /* \"#utility.yul\":2462:2466   */\n  dup5\n    /* \"#utility.yul\":2418:2483   */\n  tag_44\n  jump\t// in\ntag_80:\n    /* \"#utility.yul\":2353:2489   */\n  pop\n    /* \"#utility.yul\":2300:2489   */\n  pop\n  pop\n  jump\t// out\n    /* \"#utility.yul\":2495:2681   */\ntag_47:\n    /* \"#utility.yul\":2555:2675   */\ntag_82:\n    /* \"#utility.yul\":2572:2575   */\n  dup2\n    /* \"#utility.yul\":2565:2570   */\n  dup2\n    /* \"#utility.yul\":2562:2576   */\n  lt\n    /* \"#utility.yul\":2555:2675   */\n  iszero\n  tag_84\n  jumpi\n    /* \"#utility.yul\":2626:2665   */\n  tag_85\n    /* \"#utility.yul\":2663:2664   */\n  0x00\n    /* \"#utility.yul\":2656:2661   */\n  dup3\n    /* \"#utility.yul\":2626:2665   */\n  tag_46\n  jump\t// in\ntag_85:\n    /* \"#utility.yul\":2599:2600   */\n  0x01\n    /* \"#utility.yul\":2592:2597   */\n  dup2\n    /* \"#utility.yul\":2588:2601   */\n  add\n    /* \"#utility.yul\":2579:2601   */\n  swap1\n  pop\n    /* \"#utility.yul\":2555:2675   */\n  jump(tag_82)\ntag_84:\n    /* \"#utility.yul\":2495:2681   */\n  pop\n  pop\n  jump\t// out\n    /* \"#utility.yul\":2687:3230   */\ntag_48:\n    /* \"#utility.yul\":2788:2790   */\n  0x1f\n    /* \"#utility.yul\":2783:2786   */\n  dup3\n    /* \"#utility.yul\":2780:2791   */\n  gt\n    /* \"#utility.yul\":2777:3223   */\n  iszero\n  tag_87\n  jumpi\n    /* \"#utility.yul\":2822:2860   */\n  tag_88\n    /* \"#utility.yul\":2854:2859   */\n  dup2\n    /* \"#utility.yul\":2822:2860   */\n  tag_36\n  jump\t// in\ntag_88:\n    /* \"#utility.yul\":2906:2935   */\n  tag_89\n    /* \"#utility.yul\":2924:2934   */\n  dup5\n    /* \"#utility.yul\":2906:2935   */\n  tag_37\n  jump\t// in\ntag_89:\n    /* \"#utility.yul\":2896:2904   */\n  dup2\n    /* \"#utility.yul\":2892:2936   */\n  add\n    /* \"#utility.yul\":3089:3091   */\n  0x20\n    /* \"#utility.yul\":3077:3087   */\n  dup6\n    /* \"#utility.yul\":3074:3092   */\n  lt\n    /* \"#utility.yul\":3071:3120   */\n  iszero\n  tag_90\n  jumpi\n    /* \"#utility.yul\":3110:3118   */\n  dup2\n    /* \"#utility.yul\":3095:3118   */\n  swap1\n  pop\n    /* \"#utility.yul\":3071:3120   */\ntag_90:\n    /* \"#utility.yul\":3133:3213   */\n  tag_91\n    /* \"#utility.yul\":3189:3211   */\n  tag_92\n    /* \"#utility.yul\":3207:3210   */\n  dup6\n    /* \"#utility.yul\":3189:3211   */\n  tag_37\n  jump\t// in\ntag_92:\n    /* \"#utility.yul\":3179:3187   */\n  dup4\n    /* \"#utility.yul\":3175:3212   */\n  add\n    /* \"#utility.yul\":3162:3173   */\n  dup3\n    /* \"#utility.yul\":3133:3213   */\n  tag_47\n  jump\t// in\ntag_91:\n    /* \"#utility.yul\":2792:3223   */\n  pop\n  pop\n    /* \"#utility.yul\":2777:3223   */\ntag_87:\n    /* \"#utility.yul\":2687:3230   */\n  pop\n  pop\n  pop\n  jump\t// out\n    /* \"#utility.yul\":3236:3353   */\ntag_49:\n    /* \"#utility.yul\":3290:3298   */\n  0x00\n    /* \"#utility.yul\":3340:3345   */\n  dup3\n    /* \"#utility.yul\":3334:3338   */\n  dup3\n    /* \"#utility.yul\":3330:3346   */\n  shr\n    /* \"#utility.yul\":3309:3346   */\n  swap1\n  pop\n    /* \"#utility.yul\":3236:3353   */\n  swap3\n  swap2\n  pop\n  pop\n  jump\t// out\n    /* \"#utility.yul\":3359:3528   */\ntag_50:\n    /* \"#utility.yul\":3403:3409   */\n  0x00\n    /* \"#utility.yul\":3436:3487   */\n  tag_95\n    /* \"#utility.yul\":3484:3485   */\n  0x00\n    /* \"#utility.yul\":3480:3486   */\n  not\n    /* \"#utility.yul\":3472:3477   */\n  dup5\n    /* \"#utility.yul\":3469:3470   */\n  0x08\n    /* \"#utility.yul\":3465:3478   */\n  mul\n    /* \"#utility.yul\":3436:3487   */\n  tag_49\n  jump\t// in\ntag_95:\n    /* \"#utility.yul\":3432:3488   */\n  not\n    /* \"#utility.yul\":3517:3521   */\n  dup1\n    /* \"#utility.yul\":3511:3515   */\n  dup4\n    /* \"#utility.yul\":3507:3522   */\n  and\n    /* \"#utility.yul\":3497:3522   */\n  swap2\n  pop\n    /* \"#utility.yul\":3410:3528   */\n  pop\n    /* \"#utility.yul\":3359:3528   */\n  swap3\n  swap2\n  pop\n  pop\n  jump\t// out\n    /* \"#utility.yul\":3533:3828   */\ntag_51:\n    /* \"#utility.yul\":3609:3613   */\n  0x00\n    /* \"#utility.yul\":3755:3784   */\n  tag_97\n    /* \"#utility.yul\":3780:3783   */\n  dup4\n    /* \"#utility.yul\":3774:3778   */\n  dup4\n    /* \"#utility.yul\":3755:3784   */\n  tag_50\n  jump\t// in\ntag_97:\n    /* \"#utility.yul\":3747:3784   */\n  swap2\n  pop\n    /* \"#utility.yul\":3817:3820   */\n  dup3\n    /* \"#utility.yul\":3814:3815   */\n  0x02\n    /* \"#utility.yul\":3810:3821   */\n  mul\n    /* \"#utility.yul\":3804:3808   */\n  dup3\n    /* \"#utility.yul\":3801:3822   */\n  or\n    /* \"#utility.yul\":3793:3822   */\n  swap1\n  pop\n    /* \"#utility.yul\":3533:3828   */\n  swap3\n  swap2\n  pop\n  pop\n  jump\t// out\n    /* \"#utility.yul\":3833:5228   */\ntag_6:\n    /* \"#utility.yul\":3950:3987   */\n  tag_99\n    /* \"#utility.yul\":3983:3986   */\n  dup3\n    /* \"#utility.yul\":3950:3987   */\n  tag_32\n  jump\t// in\ntag_99:\n    /* \"#utility.yul\":4052:4070   */\n  0xffffffffffffffff\n    /* \"#utility.yul\":4044:4050   */\n  dup2\n    /* \"#utility.yul\":4041:4071   */\n  gt\n    /* \"#utility.yul\":4038:4094   */\n  iszero\n  tag_100\n  jumpi\n    /* \"#utility.yul\":4074:4092   */\n  tag_101\n  tag_33\n  jump\t// in\ntag_101:\n    /* \"#utility.yul\":4038:4094   */\ntag_100:\n    /* \"#utility.yul\":4118:4156   */\n  tag_102\n    /* \"#utility.yul\":4150:4154   */\n  dup3\n    /* \"#utility.yul\":4144:4155   */\n  sload\n    /* \"#utility.yul\":4118:4156   */\n  tag_35\n  jump\t// in\ntag_102:\n    /* \"#utility.yul\":4203:4270   */\n  tag_103\n    /* \"#utility.yul\":4263:4269   */\n  dup3\n    /* \"#utility.yul\":4255:4261   */\n  dup3\n    /* \"#utility.yul\":4249:4253   */\n  dup6\n    /* \"#utility.yul\":4203:4270   */\n  tag_48\n  jump\t// in\ntag_103:\n    /* \"#utility.yul\":4297:4298   */\n  0x00\n    /* \"#utility.yul\":4321:4325   */\n  0x20\n    /* \"#utility.yul\":4308:4325   */\n  swap1\n  pop\n    /* \"#utility.yul\":4353:4355   */\n  0x1f\n    /* \"#utility.yul\":4345:4351   */\n  dup4\n    /* \"#utility.yul\":4342:4356   */\n  gt\n    /* \"#utility.yul\":4370:4371   */\n  0x01\n    /* \"#utility.yul\":4365:4983   */\n  dup2\n  eq\n  tag_105\n  jumpi\n    /* \"#utility.yul\":5027:5028   */\n  0x00\n    /* \"#utility.yul\":5044:5050   */\n  dup5\n    /* \"#utility.yul\":5041:5118   */\n  iszero\n  tag_106\n  jumpi\n    /* \"#utility.yul\":5093:5102   */\n  dup3\n    /* \"#utility.yul\":5088:5091   */\n  dup8\n    /* \"#utility.yul\":5084:5103   */\n  add\n    /* \"#utility.yul\":5078:5104   */\n  mload\n    /* \"#utility.yul\":5069:5104   */\n  swap1\n  pop\n    /* \"#utility.yul\":5041:5118   */\ntag_106:\n    /* \"#utility.yul\":5144:5211   */\n  tag_107\n    /* \"#utility.yul\":5204:5210   */\n  dup6\n    /* \"#utility.yul\":5197:5202   */\n  dup3\n    /* \"#utility.yul\":5144:5211   */\n  tag_51\n  jump\t// in\ntag_107:\n    /* \"#utility.yul\":5138:5142   */\n  dup7\n    /* \"#utility.yul\":5131:5212   */\n  sstore\n    /* \"#utility.yul\":5000:5222   */\n  pop\n    /* \"#utility.yul\":4335:5222   */\n  jump(tag_104)\n    /* \"#utility.yul\":4365:4983   */\ntag_105:\n    /* \"#utility.yul\":4417:4421   */\n  0x1f\n    /* \"#utility.yul\":4413:4422   */\n  not\n    /* \"#utility.yul\":4405:4411   */\n  dup5\n    /* \"#utility.yul\":4401:4423   */\n  and\n    /* \"#utility.yul\":4451:4488   */\n  tag_108\n    /* \"#utility.yul\":4483:4487   */\n  dup7\n    /* \"#utility.yul\":4451:4488   */\n  tag_36\n  jump\t// in\ntag_108:\n    /* \"#utility.yul\":4510:4511   */\n  0x00\n    /* \"#utility.yul\":4524:4732   */\ntag_109:\n    /* \"#utility.yul\":4538:4545   */\n  dup3\n    /* \"#utility.yul\":4535:4536   */\n  dup2\n    /* \"#utility.yul\":4532:4546   */\n  lt\n    /* \"#utility.yul\":4524:4732   */\n  iszero\n  tag_111\n  jumpi\n    /* \"#utility.yul\":4617:4626   */\n  dup5\n    /* \"#utility.yul\":4612:4615   */\n  dup10\n    /* \"#utility.yul\":4608:4627   */\n  add\n    /* \"#utility.yul\":4602:4628   */\n  mload\n    /* \"#utility.yul\":4594:4600   */\n  dup3\n    /* \"#utility.yul\":4587:4629   */\n  sstore\n    /* \"#utility.yul\":4668:4669   */\n  0x01\n    /* \"#utility.yul\":4660:4666   */\n  dup3\n    /* \"#utility.yul\":4656:4670   */\n  add\n    /* \"#utility.yul\":4646:4670   */\n  swap2\n  pop\n    /* \"#utility.yul\":4715:4717   */\n  0x20\n    /* \"#utility.yul\":4704:4713   */\n  dup6\n    /* \"#utility.yul\":4700:4718   */\n  add\n    /* \"#utility.yul\":4687:4718   */\n  swap5\n  pop\n    /* \"#utility.yul\":4561:4565   */\n  0x20\n    /* \"#utility.yul\":4558:4559   */\n  dup2\n    /* \"#utility.yul\":4554:4566   */\n  add\n    /* \"#utility.yul\":4549:4566   */\n  swap1\n  pop\n    /* \"#utility.yul\":4524:4732   */\n  jump(tag_109)\ntag_111:\n    /* \"#utility.yul\":4760:4766   */\n  dup7\n    /* \"#utility.yul\":4751:4758   */\n  dup4\n    /* \"#utility.yul\":4748:4767   */\n  lt\n    /* \"#utility.yul\":4745:4924   */\n  iszero\n  tag_112\n  jumpi\n    /* \"#utility.yul\":4818:4827   */\n  dup5\n    /* \"#utility.yul\":4813:4816   */\n  dup10\n    /* \"#utility.yul\":4809:4828   */\n  add\n    /* \"#utility.yul\":4803:4829   */\n  mload\n    /* \"#utility.yul\":4861:4909   */\n  tag_113\n    /* \"#utility.yul\":4903:4907   */\n  0x1f\n    /* \"#utility.yul\":4895:4901   */\n  dup10\n    /* \"#utility.yul\":4891:4908   */\n  and\n    /* \"#utility.yul\":4880:4889   */\n  dup3\n    /* \"#utility.yul\":4861:4909   */\n  tag_50\n  jump\t// in\ntag_113:\n    /* \"#utility.yul\":4853:4859   */\n  dup4\n    /* \"#utility.yul\":4846:4910   */\n  sstore\n    /* \"#utility.yul\":4768:4924   */\n  pop\n    /* \"#utility.yul\":4745:4924   */\ntag_112:\n    /* \"#utility.yul\":4970:4971   */\n  0x01\n    /* \"#utility.yul\":4966:4967   */\n  0x02\n    /* \"#utility.yul\":4958:4964   */\n  dup9\n    /* \"#utility.yul\":4954:4968   */\n  mul\n    /* \"#utility.yul\":4950:4972   */\n  add\n    /* \"#utility.yul\":4944:4948   */\n  dup9\n    /* \"#utility.yul\":4937:4973   */\n  sstore\n    /* \"#utility.yul\":4372:4983   */\n  pop\n  pop\n  pop\n    /* \"#utility.yul\":4335:5222   */\ntag_104:\n  pop\n    /* \"#utility.yul\":3925:5228   */\n  pop\n  pop\n  pop\n    /* \"#utility.yul\":3833:5228   */\n  pop\n  pop\n  jump\t// out\n    /* \"RomanNumber.sol\":58:2008  contract RomanNumber{... */\ntag_31:\n  dataSize(sub_0)\n  dup1\n  dataOffset(sub_0)\n  0x00\n  codecopy\n  0x00\n  return\nstop\n\nsub_0: assembly {\n        /* \"RomanNumber.sol\":58:2008  contract RomanNumber{... */\n      mstore(0x40, 0x80)\n      callvalue\n      dup1\n      iszero\n      tag_1\n      jumpi\n      revert(0x00, 0x00)\n    tag_1:\n      pop\n      jumpi(tag_2, lt(calldatasize, 0x04))\n      shr(0xe0, calldataload(0x00))\n      dup1\n      0x2fedf6d5\n      eq\n      tag_3\n      jumpi\n      dup1\n      0x303b5d3b\n      eq\n      tag_4\n      jumpi\n      dup1\n      0x445458dc\n      eq\n      tag_5\n      jumpi\n      dup1\n      0xab7baabe\n      eq\n      tag_6\n      jumpi\n    tag_2:\n      revert(0x00, 0x00)\n        /* \"RomanNumber.sol\":266:293  Roman[] public romanNumbers */\n    tag_3:\n      tag_7\n      0x04\n      dup1\n      calldatasize\n      sub\n      dup2\n      add\n      swap1\n      tag_8\n      swap2\n      swap1\n      tag_9\n      jump\t// in\n    tag_8:\n      tag_10\n      jump\t// in\n    tag_7:\n      mload(0x40)\n      tag_11\n      swap3\n      swap2\n      swap1\n      tag_12\n      jump\t// in\n    tag_11:\n      mload(0x40)\n      dup1\n      swap2\n      sub\n      swap1\n      return\n        /* \"RomanNumber.sol\":1604:2003  function toInt(string memory s) public view  returns(int256 ) {... */\n    tag_4:\n      tag_13\n      0x04\n      dup1\n      calldatasize\n      sub\n      dup2\n      add\n      swap1\n      tag_14\n      swap2\n      swap1\n      tag_15\n      jump\t// in\n    tag_14:\n      tag_16\n      jump\t// in\n    tag_13:\n      mload(0x40)\n      tag_17\n      swap2\n      swap1\n      tag_18\n      jump\t// in\n    tag_17:\n      mload(0x40)\n      dup1\n      swap2\n      sub\n      swap1\n      return\n        /* \"RomanNumber.sol\":175:216  mapping(bytes1 => int256) public romanMap */\n    tag_5:\n      tag_19\n      0x04\n      dup1\n      calldatasize\n      sub\n      dup2\n      add\n      swap1\n      tag_20\n      swap2\n      swap1\n      tag_21\n      jump\t// in\n    tag_20:\n      tag_22\n      jump\t// in\n    tag_19:\n      mload(0x40)\n      tag_23\n      swap2\n      swap1\n      tag_18\n      jump\t// in\n    tag_23:\n      mload(0x40)\n      dup1\n      swap2\n      sub\n      swap1\n      return\n        /* \"RomanNumber.sol\":1121:1596  function toRoman(uint256 num) public view  returns(string memory) {... */\n    tag_6:\n      tag_24\n      0x04\n      dup1\n      calldatasize\n      sub\n      dup2\n      add\n      swap1\n      tag_25\n      swap2\n      swap1\n      tag_9\n      jump\t// in\n    tag_25:\n      tag_26\n      jump\t// in\n    tag_24:\n      mload(0x40)\n      tag_27\n      swap2\n      swap1\n      tag_28\n      jump\t// in\n    tag_27:\n      mload(0x40)\n      dup1\n      swap2\n      sub\n      swap1\n      return\n        /* \"RomanNumber.sol\":266:293  Roman[] public romanNumbers */\n    tag_10:\n      0x01\n      dup2\n      dup2\n      sload\n      dup2\n      lt\n      tag_29\n      jumpi\n      0x00\n      dup1\n      revert\n    tag_29:\n      swap1\n      0x00\n      mstore\n      keccak256(0x00, 0x20)\n      swap1\n      0x02\n      mul\n      add\n      0x00\n      swap2\n      pop\n      swap1\n      pop\n      dup1\n      0x00\n      add\n      sload\n      swap1\n      dup1\n      0x01\n      add\n      dup1\n      sload\n      tag_31\n      swap1\n      tag_32\n      jump\t// in\n    tag_31:\n      dup1\n      0x1f\n      add\n      0x20\n      dup1\n      swap2\n      div\n      mul\n      0x20\n      add\n      mload(0x40)\n      swap1\n      dup2\n      add\n      0x40\n      mstore\n      dup1\n      swap3\n      swap2\n      swap1\n      dup2\n      dup2\n      mstore\n      0x20\n      add\n      dup3\n      dup1\n      sload\n      tag_33\n      swap1\n      tag_32\n      jump\t// in\n    tag_33:\n      dup1\n      iszero\n      tag_34\n      jumpi\n      dup1\n      0x1f\n      lt\n      tag_35\n      jumpi\n      0x0100\n      dup1\n      dup4\n      sload\n      div\n      mul\n      dup4\n      mstore\n      swap2\n      0x20\n      add\n      swap2\n      jump(tag_34)\n    tag_35:\n      dup3\n      add\n      swap2\n      swap1\n      0x00\n      mstore\n      keccak256(0x00, 0x20)\n      swap1\n    tag_36:\n      dup2\n      sload\n      dup2\n      mstore\n      swap1\n      0x01\n      add\n      swap1\n      0x20\n      add\n      dup1\n      dup4\n      gt\n      tag_36\n      jumpi\n      dup3\n      swap1\n      sub\n      0x1f\n      and\n      dup3\n      add\n      swap2\n    tag_34:\n      pop\n      pop\n      pop\n      pop\n      pop\n      swap1\n      pop\n      dup3\n      jump\t// out\n        /* \"RomanNumber.sol\":1604:2003  function toInt(string memory s) public view  returns(int256 ) {... */\n    tag_16:\n        /* \"RomanNumber.sol\":1657:1663  int256 */\n      0x00\n        /* \"RomanNumber.sol\":1677:1686  int256 rs */\n      0x00\n        /* \"RomanNumber.sol\":1687:1688  0 */\n      0x00\n        /* \"RomanNumber.sol\":1677:1688  int256 rs=0 */\n      swap1\n      pop\n        /* \"RomanNumber.sol\":1699:1713  bytes memory b */\n      0x00\n        /* \"RomanNumber.sol\":1722:1723  s */\n      dup4\n        /* \"RomanNumber.sol\":1699:1724  bytes memory b = bytes(s) */\n      swap1\n      pop\n        /* \"RomanNumber.sol\":1735:1741  uint n */\n      0x00\n        /* \"RomanNumber.sol\":1744:1745  b */\n      dup2\n        /* \"RomanNumber.sol\":1744:1752  b.length */\n      mload\n        /* \"RomanNumber.sol\":1735:1752  uint n = b.length */\n      swap1\n      pop\n        /* \"RomanNumber.sol\":1769:1775  uint i */\n      0x00\n        /* \"RomanNumber.sol\":1776:1777  0 */\n      0x00\n        /* \"RomanNumber.sol\":1769:1777  uint i=0 */\n      swap1\n      pop\n        /* \"RomanNumber.sol\":1765:1970  for(uint i=0;i<n;i++){... */\n    tag_38:\n        /* \"RomanNumber.sol\":1780:1781  n */\n      dup2\n        /* \"RomanNumber.sol\":1778:1779  i */\n      dup2\n        /* \"RomanNumber.sol\":1778:1781  i<n */\n      lt\n        /* \"RomanNumber.sol\":1765:1970  for(uint i=0;i<n;i++){... */\n      iszero\n      tag_39\n      jumpi\n        /* \"RomanNumber.sol\":1808:1809  1 */\n      0x01\n        /* \"RomanNumber.sol\":1806:1807  n */\n      dup3\n        /* \"RomanNumber.sol\":1806:1809  n-1 */\n      tag_41\n      swap2\n      swap1\n      tag_42\n      jump\t// in\n    tag_41:\n        /* \"RomanNumber.sol\":1804:1805  i */\n      dup2\n        /* \"RomanNumber.sol\":1804:1809  i<n-1 */\n      lt\n        /* \"RomanNumber.sol\":1804:1844  i<n-1 && romanMap[b[i]]<romanMap[b[i+1]] */\n      dup1\n      iszero\n      tag_43\n      jumpi\n      pop\n        /* \"RomanNumber.sol\":1828:1836  romanMap */\n      0x00\n        /* \"RomanNumber.sol\":1828:1844  romanMap[b[i+1]] */\n      0x00\n        /* \"RomanNumber.sol\":1837:1838  b */\n      dup5\n        /* \"RomanNumber.sol\":1841:1842  1 */\n      0x01\n        /* \"RomanNumber.sol\":1839:1840  i */\n      dup5\n        /* \"RomanNumber.sol\":1839:1842  i+1 */\n      tag_44\n      swap2\n      swap1\n      tag_45\n      jump\t// in\n    tag_44:\n        /* \"RomanNumber.sol\":1837:1843  b[i+1] */\n      dup2\n      mload\n      dup2\n      lt\n      tag_46\n      jumpi\n      tag_47\n      tag_48\n      jump\t// in\n    tag_47:\n    tag_46:\n      0x20\n      add\n      add\n      mload\n      0xf8\n      shr\n      0xf8\n      shl\n        /* \"RomanNumber.sol\":1828:1844  romanMap[b[i+1]] */\n      not(0xffffffffffffffffffffffffffffffffffffffffffffffffffffffffffffff)\n      and\n      not(0xffffffffffffffffffffffffffffffffffffffffffffffffffffffffffffff)\n      and\n      dup2\n      mstore\n      0x20\n      add\n      swap1\n      dup2\n      mstore\n      0x20\n      add\n      0x00\n      keccak256\n      sload\n        /* \"RomanNumber.sol\":1813:1821  romanMap */\n      0x00\n        /* \"RomanNumber.sol\":1813:1827  romanMap[b[i]] */\n      0x00\n        /* \"RomanNumber.sol\":1822:1823  b */\n      dup6\n        /* \"RomanNumber.sol\":1824:1825  i */\n      dup5\n        /* \"RomanNumber.sol\":1822:1826  b[i] */\n      dup2\n      mload\n      dup2\n      lt\n      tag_49\n      jumpi\n      tag_50\n      tag_48\n      jump\t// in\n    tag_50:\n    tag_49:\n      0x20\n      add\n      add\n      mload\n      0xf8\n      shr\n      0xf8\n      shl\n        /* \"RomanNumber.sol\":1813:1827  romanMap[b[i]] */\n      not(0xffffffffffffffffffffffffffffffffffffffffffffffffffffffffffffff)\n      and\n      not(0xffffffffffffffffffffffffffffffffffffffffffffffffffffffffffffff)\n      and\n      dup2\n      mstore\n      0x20\n      add\n      swap1\n      dup2\n      mstore\n      0x20\n      add\n      0x00\n      keccak256\n      sload\n        /* \"RomanNumber.sol\":1813:1844  romanMap[b[i]]<romanMap[b[i+1]] */\n      slt\n        /* \"RomanNumber.sol\":1804:1844  i<n-1 && romanMap[b[i]]<romanMap[b[i+1]] */\n    tag_43:\n        /* \"RomanNumber.sol\":1801:1959  if(i<n-1 && romanMap[b[i]]<romanMap[b[i+1]]){... */\n      iszero\n      tag_51\n      jumpi\n        /* \"RomanNumber.sol\":1870:1878  romanMap */\n      0x00\n        /* \"RomanNumber.sol\":1870:1884  romanMap[b[i]] */\n      0x00\n        /* \"RomanNumber.sol\":1879:1880  b */\n      dup5\n        /* \"RomanNumber.sol\":1881:1882  i */\n      dup4\n        /* \"RomanNumber.sol\":1879:1883  b[i] */\n      dup2\n      mload\n      dup2\n      lt\n      tag_52\n      jumpi\n      tag_53\n      tag_48\n      jump\t// in\n    tag_53:\n    tag_52:\n      0x20\n      add\n      add\n      mload\n      0xf8\n      shr\n      0xf8\n      shl\n        /* \"RomanNumber.sol\":1870:1884  romanMap[b[i]] */\n      not(0xffffffffffffffffffffffffffffffffffffffffffffffffffffffffffffff)\n      and\n      not(0xffffffffffffffffffffffffffffffffffffffffffffffffffffffffffffff)\n      and\n      dup2\n      mstore\n      0x20\n      add\n      swap1\n      dup2\n      mstore\n      0x20\n      add\n      0x00\n      keccak256\n      sload\n        /* \"RomanNumber.sol\":1864:1884  rs -= romanMap[b[i]] */\n      dup5\n      tag_54\n      swap2\n      swap1\n      tag_55\n      jump\t// in\n    tag_54:\n      swap4\n      pop\n        /* \"RomanNumber.sol\":1801:1959  if(i<n-1 && romanMap[b[i]]<romanMap[b[i+1]]){... */\n      jump(tag_56)\n    tag_51:\n        /* \"RomanNumber.sol\":1929:1937  romanMap */\n      0x00\n        /* \"RomanNumber.sol\":1929:1943  romanMap[b[i]] */\n      0x00\n        /* \"RomanNumber.sol\":1938:1939  b */\n      dup5\n        /* \"RomanNumber.sol\":1940:1941  i */\n      dup4\n        /* \"RomanNumber.sol\":1938:1942  b[i] */\n      dup2\n      mload\n      dup2\n      lt\n      tag_57\n      jumpi\n      tag_58\n      tag_48\n      jump\t// in\n    tag_58:\n    tag_57:\n      0x20\n      add\n      add\n      mload\n      0xf8\n      shr\n      0xf8\n      shl\n        /* \"RomanNumber.sol\":1929:1943  romanMap[b[i]] */\n      not(0xffffffffffffffffffffffffffffffffffffffffffffffffffffffffffffff)\n      and\n      not(0xffffffffffffffffffffffffffffffffffffffffffffffffffffffffffffff)\n      and\n      dup2\n      mstore\n      0x20\n      add\n      swap1\n      dup2\n      mstore\n      0x20\n      add\n      0x00\n      keccak256\n      sload\n        /* \"RomanNumber.sol\":1923:1943  rs += romanMap[b[i]] */\n      dup5\n      tag_59\n      swap2\n      swap1\n      tag_60\n      jump\t// in\n    tag_59:\n      swap4\n      pop\n        /* \"RomanNumber.sol\":1801:1959  if(i<n-1 && romanMap[b[i]]<romanMap[b[i+1]]){... */\n    tag_56:\n        /* \"RomanNumber.sol\":1782:1785  i++ */\n      dup1\n      dup1\n      0x01\n      add\n      swap2\n      pop\n      pop\n        /* \"RomanNumber.sol\":1765:1970  for(uint i=0;i<n;i++){... */\n      jump(tag_38)\n    tag_39:\n      pop\n        /* \"RomanNumber.sol\":1991:1993  rs */\n      dup3\n        /* \"RomanNumber.sol\":1984:1993  return rs */\n      swap4\n      pop\n      pop\n      pop\n      pop\n        /* \"RomanNumber.sol\":1604:2003  function toInt(string memory s) public view  returns(int256 ) {... */\n      swap2\n      swap1\n      pop\n      jump\t// out\n        /* \"RomanNumber.sol\":175:216  mapping(bytes1 => int256) public romanMap */\n    tag_22:\n      mstore(0x20, 0x00)\n      dup1\n      0x00\n      mstore\n      keccak256(0x00, 0x40)\n      0x00\n      swap2\n      pop\n      swap1\n      pop\n      sload\n      dup2\n      jump\t// out\n        /* \"RomanNumber.sol\":1121:1596  function toRoman(uint256 num) public view  returns(string memory) {... */\n    tag_26:\n        /* \"RomanNumber.sol\":1172:1185  string memory */\n      0x60\n        /* \"RomanNumber.sol\":1198:1215  string memory res */\n      dup1\n        /* \"RomanNumber.sol\":1226:1243  uint256 remaining */\n      0x00\n        /* \"RomanNumber.sol\":1246:1249  num */\n      dup4\n        /* \"RomanNumber.sol\":1226:1249  uint256 remaining = num */\n      swap1\n      pop\n        /* \"RomanNumber.sol\":1264:1270  uint i */\n      0x00\n        /* \"RomanNumber.sol\":1271:1272  0 */\n      0x00\n        /* \"RomanNumber.sol\":1264:1272  uint i=0 */\n      swap1\n      pop\n        /* \"RomanNumber.sol\":1260:1566  for(uint i=0;i<romanNumbers.length;i++){... */\n    tag_62:\n        /* \"RomanNumber.sol\":1275:1287  romanNumbers */\n      0x01\n        /* \"RomanNumber.sol\":1275:1294  romanNumbers.length */\n      dup1\n      sload\n      swap1\n      pop\n        /* \"RomanNumber.sol\":1273:1274  i */\n      dup2\n        /* \"RomanNumber.sol\":1273:1294  i<romanNumbers.length */\n      lt\n        /* \"RomanNumber.sol\":1260:1566  for(uint i=0;i<romanNumbers.length;i++){... */\n      iszero\n      tag_63\n      jumpi\n        /* \"RomanNumber.sol\":1314:1514  while (remaining>=romanNumbers[i].value) {... */\n    tag_65:\n        /* \"RomanNumber.sol\":1332:1344  romanNumbers */\n      0x01\n        /* \"RomanNumber.sol\":1345:1346  i */\n      dup2\n        /* \"RomanNumber.sol\":1332:1347  romanNumbers[i] */\n      dup2\n      sload\n      dup2\n      lt\n      tag_67\n      jumpi\n      tag_68\n      tag_48\n      jump\t// in\n    tag_68:\n    tag_67:\n      swap1\n      0x00\n      mstore\n      keccak256(0x00, 0x20)\n      swap1\n      0x02\n      mul\n      add\n        /* \"RomanNumber.sol\":1332:1353  romanNumbers[i].value */\n      0x00\n      add\n      sload\n        /* \"RomanNumber.sol\":1321:1330  remaining */\n      dup3\n        /* \"RomanNumber.sol\":1321:1353  remaining>=romanNumbers[i].value */\n      lt\n        /* \"RomanNumber.sol\":1314:1514  while (remaining>=romanNumbers[i].value) {... */\n      tag_66\n      jumpi\n        /* \"RomanNumber.sol\":1399:1411  romanNumbers */\n      0x01\n        /* \"RomanNumber.sol\":1412:1413  i */\n      dup2\n        /* \"RomanNumber.sol\":1399:1414  romanNumbers[i] */\n      dup2\n      sload\n      dup2\n      lt\n      tag_70\n      jumpi\n      tag_71\n      tag_48\n      jump\t// in\n    tag_71:\n    tag_70:\n      swap1\n      0x00\n      mstore\n      keccak256(0x00, 0x20)\n      swap1\n      0x02\n      mul\n      add\n        /* \"RomanNumber.sol\":1399:1420  romanNumbers[i].value */\n      0x00\n      add\n      sload\n        /* \"RomanNumber.sol\":1388:1420  remaining-=romanNumbers[i].value */\n      dup3\n      tag_73\n      swap2\n      swap1\n      tag_42\n      jump\t// in\n    tag_73:\n      swap2\n      pop\n        /* \"RomanNumber.sol\":1469:1472  res */\n      dup3\n        /* \"RomanNumber.sol\":1474:1486  romanNumbers */\n      0x01\n        /* \"RomanNumber.sol\":1487:1488  i */\n      dup3\n        /* \"RomanNumber.sol\":1474:1489  romanNumbers[i] */\n      dup2\n      sload\n      dup2\n      lt\n      tag_74\n      jumpi\n      tag_75\n      tag_48\n      jump\t// in\n    tag_75:\n    tag_74:\n      swap1\n      0x00\n      mstore\n      keccak256(0x00, 0x20)\n      swap1\n      0x02\n      mul\n      add\n        /* \"RomanNumber.sol\":1474:1496  romanNumbers[i].symbol */\n      0x01\n      add\n        /* \"RomanNumber.sol\":1452:1497  abi.encodePacked(res, romanNumbers[i].symbol) */\n      add(0x20, mload(0x40))\n      tag_77\n      swap3\n      swap2\n      swap1\n      tag_78\n      jump\t// in\n    tag_77:\n      mload(0x40)\n      0x20\n      dup2\n      dup4\n      sub\n      sub\n      dup2\n      mstore\n      swap1\n      0x40\n      mstore\n        /* \"RomanNumber.sol\":1439:1498  res = string(abi.encodePacked(res, romanNumbers[i].symbol)) */\n      swap3\n      pop\n        /* \"RomanNumber.sol\":1314:1514  while (remaining>=romanNumbers[i].value) {... */\n      jump(tag_65)\n    tag_66:\n        /* \"RomanNumber.sol\":1546:1547  0 */\n      0x00\n        /* \"RomanNumber.sol\":1535:1544  remaining */\n      dup3\n        /* \"RomanNumber.sol\":1535:1547  remaining==0 */\n      sub\n        /* \"RomanNumber.sol\":1532:1554  if(remaining==0) break */\n      iszero\n        /* \"RomanNumber.sol\":1549:1554  break */\n      tag_63\n        /* \"RomanNumber.sol\":1532:1554  if(remaining==0) break */\n      jumpi\n        /* \"RomanNumber.sol\":1295:1298  i++ */\n      dup1\n      dup1\n      0x01\n      add\n      swap2\n      pop\n      pop\n        /* \"RomanNumber.sol\":1260:1566  for(uint i=0;i<romanNumbers.length;i++){... */\n      jump(tag_62)\n    tag_63:\n      pop\n        /* \"RomanNumber.sol\":1585:1588  res */\n      dup2\n        /* \"RomanNumber.sol\":1578:1588  return res */\n      swap3\n      pop\n      pop\n      pop\n        /* \"RomanNumber.sol\":1121:1596  function toRoman(uint256 num) public view  returns(string memory) {... */\n      swap2\n      swap1\n      pop\n      jump\t// out\n        /* \"#utility.yul\":7:82   */\n    tag_80:\n        /* \"#utility.yul\":40:46   */\n      0x00\n        /* \"#utility.yul\":73:75   */\n      0x40\n        /* \"#utility.yul\":67:76   */\n      mload\n        /* \"#utility.yul\":57:76   */\n      swap1\n      pop\n        /* \"#utility.yul\":7:82   */\n      swap1\n      jump\t// out\n        /* \"#utility.yul\":88:205   */\n    tag_81:\n        /* \"#utility.yul\":197:198   */\n      0x00\n        /* \"#utility.yul\":194:195   */\n      0x00\n        /* \"#utility.yul\":187:199   */\n      revert\n        /* \"#utility.yul\":211:328   */\n    tag_82:\n        /* \"#utility.yul\":320:321   */\n      0x00\n        /* \"#utility.yul\":317:318   */\n      0x00\n        /* \"#utility.yul\":310:322   */\n      revert\n        /* \"#utility.yul\":334:411   */\n    tag_83:\n        /* \"#utility.yul\":371:378   */\n      0x00\n        /* \"#utility.yul\":400:405   */\n      dup2\n        /* \"#utility.yul\":389:405   */\n      swap1\n      pop\n        /* \"#utility.yul\":334:411   */\n      swap2\n      swap1\n      pop\n      jump\t// out\n        /* \"#utility.yul\":417:539   */\n    tag_84:\n        /* \"#utility.yul\":490:514   */\n      tag_118\n        /* \"#utility.yul\":508:513   */\n      dup2\n        /* \"#utility.yul\":490:514   */\n      tag_83\n      jump\t// in\n    tag_118:\n        /* \"#utility.yul\":483:488   */\n      dup2\n        /* \"#utility.yul\":480:515   */\n      eq\n        /* \"#utility.yul\":470:533   */\n      tag_119\n      jumpi\n        /* \"#utility.yul\":529:530   */\n      0x00\n        /* \"#utility.yul\":526:527   */\n      0x00\n        /* \"#utility.yul\":519:531   */\n      revert\n        /* \"#utility.yul\":470:533   */\n    tag_119:\n        /* \"#utility.yul\":417:539   */\n      pop\n      jump\t// out\n        /* \"#utility.yul\":545:684   */\n    tag_85:\n        /* \"#utility.yul\":591:596   */\n      0x00\n        /* \"#utility.yul\":629:635   */\n      dup2\n        /* \"#utility.yul\":616:636   */\n      calldataload\n        /* \"#utility.yul\":607:636   */\n      swap1\n      pop\n        /* \"#utility.yul\":645:678   */\n      tag_121\n        /* \"#utility.yul\":672:677   */\n      dup2\n        /* \"#utility.yul\":645:678   */\n      tag_84\n      jump\t// in\n    tag_121:\n        /* \"#utility.yul\":545:684   */\n      swap3\n      swap2\n      pop\n      pop\n      jump\t// out\n        /* \"#utility.yul\":690:1019   */\n    tag_9:\n        /* \"#utility.yul\":749:755   */\n      0x00\n        /* \"#utility.yul\":798:800   */\n      0x20\n        /* \"#utility.yul\":786:795   */\n      dup3\n        /* \"#utility.yul\":777:784   */\n      dup5\n        /* \"#utility.yul\":773:796   */\n      sub\n        /* \"#utility.yul\":769:801   */\n      slt\n        /* \"#utility.yul\":766:885   */\n      iszero\n      tag_123\n      jumpi\n        /* \"#utility.yul\":804:883   */\n      tag_124\n      tag_81\n      jump\t// in\n    tag_124:\n        /* \"#utility.yul\":766:885   */\n    tag_123:\n        /* \"#utility.yul\":924:925   */\n      0x00\n        /* \"#utility.yul\":949:1002   */\n      tag_125\n        /* \"#utility.yul\":994:1001   */\n      dup5\n        /* \"#utility.yul\":985:991   */\n      dup3\n        /* \"#utility.yul\":974:983   */\n      dup6\n        /* \"#utility.yul\":970:992   */\n      add\n        /* \"#utility.yul\":949:1002   */\n      tag_85\n      jump\t// in\n    tag_125:\n        /* \"#utility.yul\":939:1002   */\n      swap2\n      pop\n        /* \"#utility.yul\":895:1012   */\n      pop\n        /* \"#utility.yul\":690:1019   */\n      swap3\n      swap2\n      pop\n      pop\n      jump\t// out\n        /* \"#utility.yul\":1025:1143   */\n    tag_86:\n        /* \"#utility.yul\":1112:1136   */\n      tag_127\n        /* \"#utility.yul\":1130:1135   */\n      dup2\n        /* \"#utility.yul\":1112:1136   */\n      tag_83\n      jump\t// in\n    tag_127:\n        /* \"#utility.yul\":1107:1110   */\n      dup3\n        /* \"#utility.yul\":1100:1137   */\n      mstore\n        /* \"#utility.yul\":1025:1143   */\n      pop\n      pop\n      jump\t// out\n        /* \"#utility.yul\":1149:1248   */\n    tag_87:\n        /* \"#utility.yul\":1201:1207   */\n      0x00\n        /* \"#utility.yul\":1235:1240   */\n      dup2\n        /* \"#utility.yul\":1229:1241   */\n      mload\n        /* \"#utility.yul\":1219:1241   */\n      swap1\n      pop\n        /* \"#utility.yul\":1149:1248   */\n      swap2\n      swap1\n      pop\n      jump\t// out\n        /* \"#utility.yul\":1254:1423   */\n    tag_88:\n        /* \"#utility.yul\":1338:1349   */\n      0x00\n        /* \"#utility.yul\":1372:1378   */\n      dup3\n        /* \"#utility.yul\":1367:1370   */\n      dup3\n        /* \"#utility.yul\":1360:1379   */\n      mstore\n        /* \"#utility.yul\":1412:1416   */\n      0x20\n        /* \"#utility.yul\":1407:1410   */\n      dup3\n        /* \"#utility.yul\":1403:1417   */\n      add\n        /* \"#utility.yul\":1388:1417   */\n      swap1\n      pop\n        /* \"#utility.yul\":1254:1423   */\n      swap3\n      swap2\n      pop\n      pop\n      jump\t// out\n        /* \"#utility.yul\":1429:1677   */\n    tag_89:\n        /* \"#utility.yul\":1511:1512   */\n      0x00\n        /* \"#utility.yul\":1521:1634   */\n    tag_131:\n        /* \"#utility.yul\":1535:1541   */\n      dup4\n        /* \"#utility.yul\":1532:1533   */\n      dup2\n        /* \"#utility.yul\":1529:1542   */\n      lt\n        /* \"#utility.yul\":1521:1634   */\n      iszero\n      tag_133\n      jumpi\n        /* \"#utility.yul\":1620:1621   */\n      dup1\n        /* \"#utility.yul\":1615:1618   */\n      dup3\n        /* \"#utility.yul\":1611:1622   */\n      add\n        /* \"#utility.yul\":1605:1623   */\n      mload\n        /* \"#utility.yul\":1601:1602   */\n      dup2\n        /* \"#utility.yul\":1596:1599   */\n      dup5\n        /* \"#utility.yul\":1592:1603   */\n      add\n        /* \"#utility.yul\":1585:1624   */\n      mstore\n        /* \"#utility.yul\":1557:1559   */\n      0x20\n        /* \"#utility.yul\":1554:1555   */\n      dup2\n        /* \"#utility.yul\":1550:1560   */\n      add\n        /* \"#utility.yul\":1545:1560   */\n      swap1\n      pop\n        /* \"#utility.yul\":1521:1634   */\n      jump(tag_131)\n    tag_133:\n        /* \"#utility.yul\":1668:1669   */\n      0x00\n        /* \"#utility.yul\":1659:1665   */\n      dup5\n        /* \"#utility.yul\":1654:1657   */\n      dup5\n        /* \"#utility.yul\":1650:1666   */\n      add\n        /* \"#utility.yul\":1643:1670   */\n      mstore\n        /* \"#utility.yul\":1491:1677   */\n      pop\n        /* \"#utility.yul\":1429:1677   */\n      pop\n      pop\n      pop\n      jump\t// out\n        /* \"#utility.yul\":1683:1785   */\n    tag_90:\n        /* \"#utility.yul\":1724:1730   */\n      0x00\n        /* \"#utility.yul\":1775:1777   */\n      0x1f\n        /* \"#utility.yul\":1771:1778   */\n      not\n        /* \"#utility.yul\":1766:1768   */\n      0x1f\n        /* \"#utility.yul\":1759:1764   */\n      dup4\n        /* \"#utility.yul\":1755:1769   */\n      add\n        /* \"#utility.yul\":1751:1779   */\n      and\n        /* \"#utility.yul\":1741:1779   */\n      swap1\n      pop\n        /* \"#utility.yul\":1683:1785   */\n      swap2\n      swap1\n      pop\n      jump\t// out\n        /* \"#utility.yul\":1791:2168   */\n    tag_91:\n        /* \"#utility.yul\":1879:1882   */\n      0x00\n        /* \"#utility.yul\":1907:1946   */\n      tag_136\n        /* \"#utility.yul\":1940:1945   */\n      dup3\n        /* \"#utility.yul\":1907:1946   */\n      tag_87\n      jump\t// in\n    tag_136:\n        /* \"#utility.yul\":1962:2033   */\n      tag_137\n        /* \"#utility.yul\":2026:2032   */\n      dup2\n        /* \"#utility.yul\":2021:2024   */\n      dup6\n        /* \"#utility.yul\":1962:2033   */\n      tag_88\n      jump\t// in\n    tag_137:\n        /* \"#utility.yul\":1955:2033   */\n      swap4\n      pop\n        /* \"#utility.yul\":2042:2107   */\n      tag_138\n        /* \"#utility.yul\":2100:2106   */\n      dup2\n        /* \"#utility.yul\":2095:2098   */\n      dup6\n        /* \"#utility.yul\":2088:2092   */\n      0x20\n        /* \"#utility.yul\":2081:2086   */\n      dup7\n        /* \"#utility.yul\":2077:2093   */\n      add\n        /* \"#utility.yul\":2042:2107   */\n      tag_89\n      jump\t// in\n    tag_138:\n        /* \"#utility.yul\":2132:2161   */\n      tag_139\n        /* \"#utility.yul\":2154:2160   */\n      dup2\n        /* \"#utility.yul\":2132:2161   */\n      tag_90\n      jump\t// in\n    tag_139:\n        /* \"#utility.yul\":2127:2130   */\n      dup5\n        /* \"#utility.yul\":2123:2162   */\n      add\n        /* \"#utility.yul\":2116:2162   */\n      swap2\n      pop\n        /* \"#utility.yul\":1883:2168   */\n      pop\n        /* \"#utility.yul\":1791:2168   */\n      swap3\n      swap2\n      pop\n      pop\n      jump\t// out\n        /* \"#utility.yul\":2174:2597   */\n    tag_12:\n        /* \"#utility.yul\":2315:2319   */\n      0x00\n        /* \"#utility.yul\":2353:2355   */\n      0x40\n        /* \"#utility.yul\":2342:2351   */\n      dup3\n        /* \"#utility.yul\":2338:2356   */\n      add\n        /* \"#utility.yul\":2330:2356   */\n      swap1\n      pop\n        /* \"#utility.yul\":2366:2437   */\n      tag_141\n        /* \"#utility.yul\":2434:2435   */\n      0x00\n        /* \"#utility.yul\":2423:2432   */\n      dup4\n        /* \"#utility.yul\":2419:2436   */\n      add\n        /* \"#utility.yul\":2410:2416   */\n      dup6\n        /* \"#utility.yul\":2366:2437   */\n      tag_86\n      jump\t// in\n    tag_141:\n        /* \"#utility.yul\":2484:2493   */\n      dup2\n        /* \"#utility.yul\":2478:2482   */\n      dup2\n        /* \"#utility.yul\":2474:2494   */\n      sub\n        /* \"#utility.yul\":2469:2471   */\n      0x20\n        /* \"#utility.yul\":2458:2467   */\n      dup4\n        /* \"#utility.yul\":2454:2472   */\n      add\n        /* \"#utility.yul\":2447:2495   */\n      mstore\n        /* \"#utility.yul\":2512:2590   */\n      tag_142\n        /* \"#utility.yul\":2585:2589   */\n      dup2\n        /* \"#utility.yul\":2576:2582   */\n      dup5\n        /* \"#utility.yul\":2512:2590   */\n      tag_91\n      jump\t// in\n    tag_142:\n        /* \"#utility.yul\":2504:2590   */\n      swap1\n      pop\n        /* \"#utility.yul\":2174:2597   */\n      swap4\n      swap3\n      pop\n      pop\n      pop\n      jump\t// out\n        /* \"#utility.yul\":2603:2720   */\n    tag_92:\n        /* \"#utility.yul\":2712:2713   */\n      0x00\n        /* \"#utility.yul\":2709:2710   */\n      0x00\n        /* \"#utility.yul\":2702:2714   */\n      revert\n        /* \"#utility.yul\":2726:2843   */\n    tag_93:\n        /* \"#utility.yul\":2835:2836   */\n      0x00\n        /* \"#utility.yul\":2832:2833   */\n      0x00\n        /* \"#utility.yul\":2825:2837   */\n      revert\n        /* \"#utility.yul\":2849:3029   */\n    tag_94:\n        /* \"#utility.yul\":2897:2974   */\n      0x4e487b7100000000000000000000000000000000000000000000000000000000\n        /* \"#utility.yul\":2894:2895   */\n      0x00\n        /* \"#utility.yul\":2887:2975   */\n      mstore\n        /* \"#utility.yul\":2994:2998   */\n      0x41\n        /* \"#utility.yul\":2991:2992   */\n      0x04\n        /* \"#utility.yul\":2984:2999   */\n      mstore\n        /* \"#utility.yul\":3018:3022   */\n      0x24\n        /* \"#utility.yul\":3015:3016   */\n      0x00\n        /* \"#utility.yul\":3008:3023   */\n      revert\n        /* \"#utility.yul\":3035:3316   */\n    tag_95:\n        /* \"#utility.yul\":3118:3145   */\n      tag_147\n        /* \"#utility.yul\":3140:3144   */\n      dup3\n        /* \"#utility.yul\":3118:3145   */\n      tag_90\n      jump\t// in\n    tag_147:\n        /* \"#utility.yul\":3110:3116   */\n      dup2\n        /* \"#utility.yul\":3106:3146   */\n      add\n        /* \"#utility.yul\":3248:3254   */\n      dup2\n        /* \"#utility.yul\":3236:3246   */\n      dup2\n        /* \"#utility.yul\":3233:3255   */\n      lt\n        /* \"#utility.yul\":3212:3230   */\n      0xffffffffffffffff\n        /* \"#utility.yul\":3200:3210   */\n      dup3\n        /* \"#utility.yul\":3197:3231   */\n      gt\n        /* \"#utility.yul\":3194:3256   */\n      or\n        /* \"#utility.yul\":3191:3279   */\n      iszero\n      tag_148\n      jumpi\n        /* \"#utility.yul\":3259:3277   */\n      tag_149\n      tag_94\n      jump\t// in\n    tag_149:\n        /* \"#utility.yul\":3191:3279   */\n    tag_148:\n        /* \"#utility.yul\":3299:3309   */\n      dup1\n        /* \"#utility.yul\":3295:3297   */\n      0x40\n        /* \"#utility.yul\":3288:3310   */\n      mstore\n        /* \"#utility.yul\":3078:3316   */\n      pop\n        /* \"#utility.yul\":3035:3316   */\n      pop\n      pop\n      jump\t// out\n        /* \"#utility.yul\":3322:3451   */\n    tag_96:\n        /* \"#utility.yul\":3356:3362   */\n      0x00\n        /* \"#utility.yul\":3383:3403   */\n      tag_151\n      tag_80\n      jump\t// in\n    tag_151:\n        /* \"#utility.yul\":3373:3403   */\n      swap1\n      pop\n        /* \"#utility.yul\":3412:3445   */\n      tag_152\n        /* \"#utility.yul\":3440:3444   */\n      dup3\n        /* \"#utility.yul\":3432:3438   */\n      dup3\n        /* \"#utility.yul\":3412:3445   */\n      tag_95\n      jump\t// in\n    tag_152:\n        /* \"#utility.yul\":3322:3451   */\n      swap2\n      swap1\n      pop\n      jump\t// out\n        /* \"#utility.yul\":3457:3765   */\n    tag_97:\n        /* \"#utility.yul\":3519:3523   */\n      0x00\n        /* \"#utility.yul\":3609:3627   */\n      0xffffffffffffffff\n        /* \"#utility.yul\":3601:3607   */\n      dup3\n        /* \"#utility.yul\":3598:3628   */\n      gt\n        /* \"#utility.yul\":3595:3651   */\n      iszero\n      tag_154\n      jumpi\n        /* \"#utility.yul\":3631:3649   */\n      tag_155\n      tag_94\n      jump\t// in\n    tag_155:\n        /* \"#utility.yul\":3595:3651   */\n    tag_154:\n        /* \"#utility.yul\":3669:3698   */\n      tag_156\n        /* \"#utility.yul\":3691:3697   */\n      dup3\n        /* \"#utility.yul\":3669:3698   */\n      tag_90\n      jump\t// in\n    tag_156:\n        /* \"#utility.yul\":3661:3698   */\n      swap1\n      pop\n        /* \"#utility.yul\":3753:3757   */\n      0x20\n        /* \"#utility.yul\":3747:3751   */\n      dup2\n        /* \"#utility.yul\":3743:3758   */\n      add\n        /* \"#utility.yul\":3735:3758   */\n      swap1\n      pop\n        /* \"#utility.yul\":3457:3765   */\n      swap2\n      swap1\n      pop\n      jump\t// out\n        /* \"#utility.yul\":3771:3919   */\n    tag_98:\n        /* \"#utility.yul\":3869:3875   */\n      dup3\n        /* \"#utility.yul\":3864:3867   */\n      dup2\n        /* \"#utility.yul\":3859:3862   */\n      dup4\n        /* \"#utility.yul\":3846:3876   */\n      calldatacopy\n        /* \"#utility.yul\":3910:3911   */\n      0x00\n        /* \"#utility.yul\":3901:3907   */\n      dup4\n        /* \"#utility.yul\":3896:3899   */\n      dup4\n        /* \"#utility.yul\":3892:3908   */\n      add\n        /* \"#utility.yul\":3885:3912   */\n      mstore\n        /* \"#utility.yul\":3771:3919   */\n      pop\n      pop\n      pop\n      jump\t// out\n        /* \"#utility.yul\":3925:4350   */\n    tag_99:\n        /* \"#utility.yul\":4003:4008   */\n      0x00\n        /* \"#utility.yul\":4028:4094   */\n      tag_159\n        /* \"#utility.yul\":4044:4093   */\n      tag_160\n        /* \"#utility.yul\":4086:4092   */\n      dup5\n        /* \"#utility.yul\":4044:4093   */\n      tag_97\n      jump\t// in\n    tag_160:\n        /* \"#utility.yul\":4028:4094   */\n      tag_96\n      jump\t// in\n    tag_159:\n        /* \"#utility.yul\":4019:4094   */\n      swap1\n      pop\n        /* \"#utility.yul\":4117:4123   */\n      dup3\n        /* \"#utility.yul\":4110:4115   */\n      dup2\n        /* \"#utility.yul\":4103:4124   */\n      mstore\n        /* \"#utility.yul\":4155:4159   */\n      0x20\n        /* \"#utility.yul\":4148:4153   */\n      dup2\n        /* \"#utility.yul\":4144:4160   */\n      add\n        /* \"#utility.yul\":4193:4196   */\n      dup5\n        /* \"#utility.yul\":4184:4190   */\n      dup5\n        /* \"#utility.yul\":4179:4182   */\n      dup5\n        /* \"#utility.yul\":4175:4191   */\n      add\n        /* \"#utility.yul\":4172:4197   */\n      gt\n        /* \"#utility.yul\":4169:4281   */\n      iszero\n      tag_161\n      jumpi\n        /* \"#utility.yul\":4200:4279   */\n      tag_162\n      tag_93\n      jump\t// in\n    tag_162:\n        /* \"#utility.yul\":4169:4281   */\n    tag_161:\n        /* \"#utility.yul\":4290:4344   */\n      tag_163\n        /* \"#utility.yul\":4337:4343   */\n      dup5\n        /* \"#utility.yul\":4332:4335   */\n      dup3\n        /* \"#utility.yul\":4327:4330   */\n      dup6\n        /* \"#utility.yul\":4290:4344   */\n      tag_98\n      jump\t// in\n    tag_163:\n        /* \"#utility.yul\":4009:4350   */\n      pop\n        /* \"#utility.yul\":3925:4350   */\n      swap4\n      swap3\n      pop\n      pop\n      pop\n      jump\t// out\n        /* \"#utility.yul\":4370:4710   */\n    tag_100:\n        /* \"#utility.yul\":4426:4431   */\n      0x00\n        /* \"#utility.yul\":4475:4478   */\n      dup3\n        /* \"#utility.yul\":4468:4472   */\n      0x1f\n        /* \"#utility.yul\":4460:4466   */\n      dup4\n        /* \"#utility.yul\":4456:4473   */\n      add\n        /* \"#utility.yul\":4452:4479   */\n      slt\n        /* \"#utility.yul\":4442:4564   */\n      tag_165\n      jumpi\n        /* \"#utility.yul\":4483:4562   */\n      tag_166\n      tag_92\n      jump\t// in\n    tag_166:\n        /* \"#utility.yul\":4442:4564   */\n    tag_165:\n        /* \"#utility.yul\":4600:4606   */\n      dup2\n        /* \"#utility.yul\":4587:4607   */\n      calldataload\n        /* \"#utility.yul\":4625:4704   */\n      tag_167\n        /* \"#utility.yul\":4700:4703   */\n      dup5\n        /* \"#utility.yul\":4692:4698   */\n      dup3\n        /* \"#utility.yul\":4685:4689   */\n      0x20\n        /* \"#utility.yul\":4677:4683   */\n      dup7\n        /* \"#utility.yul\":4673:4690   */\n      add\n        /* \"#utility.yul\":4625:4704   */\n      tag_99\n      jump\t// in\n    tag_167:\n        /* \"#utility.yul\":4616:4704   */\n      swap2\n      pop\n        /* \"#utility.yul\":4432:4710   */\n      pop\n        /* \"#utility.yul\":4370:4710   */\n      swap3\n      swap2\n      pop\n      pop\n      jump\t// out\n        /* \"#utility.yul\":4716:5225   */\n    tag_15:\n        /* \"#utility.yul\":4785:4791   */\n      0x00\n        /* \"#utility.yul\":4834:4836   */\n      0x20\n        /* \"#utility.yul\":4822:4831   */\n      dup3\n        /* \"#utility.yul\":4813:4820   */\n      dup5\n        /* \"#utility.yul\":4809:4832   */\n      sub\n        /* \"#utility.yul\":4805:4837   */\n      slt\n        /* \"#utility.yul\":4802:4921   */\n      iszero\n      tag_169\n      jumpi\n        /* \"#utility.yul\":4840:4919   */\n      tag_170\n      tag_81\n      jump\t// in\n    tag_170:\n        /* \"#utility.yul\":4802:4921   */\n    tag_169:\n        /* \"#utility.yul\":4988:4989   */\n      0x00\n        /* \"#utility.yul\":4977:4986   */\n      dup3\n        /* \"#utility.yul\":4973:4990   */\n      add\n        /* \"#utility.yul\":4960:4991   */\n      calldataload\n        /* \"#utility.yul\":5018:5036   */\n      0xffffffffffffffff\n        /* \"#utility.yul\":5010:5016   */\n      dup2\n        /* \"#utility.yul\":5007:5037   */\n      gt\n        /* \"#utility.yul\":5004:5121   */\n      iszero\n      tag_171\n      jumpi\n        /* \"#utility.yul\":5040:5119   */\n      tag_172\n      tag_82\n      jump\t// in\n    tag_172:\n        /* \"#utility.yul\":5004:5121   */\n    tag_171:\n        /* \"#utility.yul\":5145:5208   */\n      tag_173\n        /* \"#utility.yul\":5200:5207   */\n      dup5\n        /* \"#utility.yul\":5191:5197   */\n      dup3\n        /* \"#utility.yul\":5180:5189   */\n      dup6\n        /* \"#utility.yul\":5176:5198   */\n      add\n        /* \"#utility.yul\":5145:5208   */\n      tag_100\n      jump\t// in\n    tag_173:\n        /* \"#utility.yul\":5135:5208   */\n      swap2\n      pop\n        /* \"#utility.yul\":4931:5218   */\n      pop\n        /* \"#utility.yul\":4716:5225   */\n      swap3\n      swap2\n      pop\n      pop\n      jump\t// out\n        /* \"#utility.yul\":5231:5307   */\n    tag_101:\n        /* \"#utility.yul\":5267:5274   */\n      0x00\n        /* \"#utility.yul\":5296:5301   */\n      dup2\n        /* \"#utility.yul\":5285:5301   */\n      swap1\n      pop\n        /* \"#utility.yul\":5231:5307   */\n      swap2\n      swap1\n      pop\n      jump\t// out\n        /* \"#utility.yul\":5313:5428   */\n    tag_102:\n        /* \"#utility.yul\":5398:5421   */\n      tag_176\n        /* \"#utility.yul\":5415:5420   */\n      dup2\n        /* \"#utility.yul\":5398:5421   */\n      tag_101\n      jump\t// in\n    tag_176:\n        /* \"#utility.yul\":5393:5396   */\n      dup3\n        /* \"#utility.yul\":5386:5422   */\n      mstore\n        /* \"#utility.yul\":5313:5428   */\n      pop\n      pop\n      jump\t// out\n        /* \"#utility.yul\":5434:5652   */\n    tag_18:\n        /* \"#utility.yul\":5525:5529   */\n      0x00\n        /* \"#utility.yul\":5563:5565   */\n      0x20\n        /* \"#utility.yul\":5552:5561   */\n      dup3\n        /* \"#utility.yul\":5548:5566   */\n      add\n        /* \"#utility.yul\":5540:5566   */\n      swap1\n      pop\n        /* \"#utility.yul\":5576:5645   */\n      tag_178\n        /* \"#utility.yul\":5642:5643   */\n      0x00\n        /* \"#utility.yul\":5631:5640   */\n      dup4\n        /* \"#utility.yul\":5627:5644   */\n      add\n        /* \"#utility.yul\":5618:5624   */\n      dup5\n        /* \"#utility.yul\":5576:5645   */\n      tag_102\n      jump\t// in\n    tag_178:\n        /* \"#utility.yul\":5434:5652   */\n      swap3\n      swap2\n      pop\n      pop\n      jump\t// out\n        /* \"#utility.yul\":5658:5807   */\n    tag_103:\n        /* \"#utility.yul\":5694:5701   */\n      0x00\n        /* \"#utility.yul\":5734:5800   */\n      0xff00000000000000000000000000000000000000000000000000000000000000\n        /* \"#utility.yul\":5727:5732   */\n      dup3\n        /* \"#utility.yul\":5723:5801   */\n      and\n        /* \"#utility.yul\":5712:5801   */\n      swap1\n      pop\n        /* \"#utility.yul\":5658:5807   */\n      swap2\n      swap1\n      pop\n      jump\t// out\n        /* \"#utility.yul\":5813:5933   */\n    tag_104:\n        /* \"#utility.yul\":5885:5908   */\n      tag_181\n        /* \"#utility.yul\":5902:5907   */\n      dup2\n        /* \"#utility.yul\":5885:5908   */\n      tag_103\n      jump\t// in\n    tag_181:\n        /* \"#utility.yul\":5878:5883   */\n      dup2\n        /* \"#utility.yul\":5875:5909   */\n      eq\n        /* \"#utility.yul\":5865:5927   */\n      tag_182\n      jumpi\n        /* \"#utility.yul\":5923:5924   */\n      0x00\n        /* \"#utility.yul\":5920:5921   */\n      0x00\n        /* \"#utility.yul\":5913:5925   */\n      revert\n        /* \"#utility.yul\":5865:5927   */\n    tag_182:\n        /* \"#utility.yul\":5813:5933   */\n      pop\n      jump\t// out\n        /* \"#utility.yul\":5939:6076   */\n    tag_105:\n        /* \"#utility.yul\":5984:5989   */\n      0x00\n        /* \"#utility.yul\":6022:6028   */\n      dup2\n        /* \"#utility.yul\":6009:6029   */\n      calldataload\n        /* \"#utility.yul\":6000:6029   */\n      swap1\n      pop\n        /* \"#utility.yul\":6038:6070   */\n      tag_184\n        /* \"#utility.yul\":6064:6069   */\n      dup2\n        /* \"#utility.yul\":6038:6070   */\n      tag_104\n      jump\t// in\n    tag_184:\n        /* \"#utility.yul\":5939:6076   */\n      swap3\n      swap2\n      pop\n      pop\n      jump\t// out\n        /* \"#utility.yul\":6082:6409   */\n    tag_21:\n        /* \"#utility.yul\":6140:6146   */\n      0x00\n        /* \"#utility.yul\":6189:6191   */\n      0x20\n        /* \"#utility.yul\":6177:6186   */\n      dup3\n        /* \"#utility.yul\":6168:6175   */\n      dup5\n        /* \"#utility.yul\":6164:6187   */\n      sub\n        /* \"#utility.yul\":6160:6192   */\n      slt\n        /* \"#utility.yul\":6157:6276   */\n      iszero\n      tag_186\n      jumpi\n        /* \"#utility.yul\":6195:6274   */\n      tag_187\n      tag_81\n      jump\t// in\n    tag_187:\n        /* \"#utility.yul\":6157:6276   */\n    tag_186:\n        /* \"#utility.yul\":6315:6316   */\n      0x00\n        /* \"#utility.yul\":6340:6392   */\n      tag_188\n        /* \"#utility.yul\":6384:6391   */\n      dup5\n        /* \"#utility.yul\":6375:6381   */\n      dup3\n        /* \"#utility.yul\":6364:6373   */\n      dup6\n        /* \"#utility.yul\":6360:6382   */\n      add\n        /* \"#utility.yul\":6340:6392   */\n      tag_105\n      jump\t// in\n    tag_188:\n        /* \"#utility.yul\":6330:6392   */\n      swap2\n      pop\n        /* \"#utility.yul\":6286:6402   */\n      pop\n        /* \"#utility.yul\":6082:6409   */\n      swap3\n      swap2\n      pop\n      pop\n      jump\t// out\n        /* \"#utility.yul\":6415:6728   */\n    tag_28:\n        /* \"#utility.yul\":6528:6532   */\n      0x00\n        /* \"#utility.yul\":6566:6568   */\n      0x20\n        /* \"#utility.yul\":6555:6564   */\n      dup3\n        /* \"#utility.yul\":6551:6569   */\n      add\n        /* \"#utility.yul\":6543:6569   */\n      swap1\n      pop\n        /* \"#utility.yul\":6615:6624   */\n      dup2\n        /* \"#utility.yul\":6609:6613   */\n      dup2\n        /* \"#utility.yul\":6605:6625   */\n      sub\n        /* \"#utility.yul\":6601:6602   */\n      0x00\n        /* \"#utility.yul\":6590:6599   */\n      dup4\n        /* \"#utility.yul\":6586:6603   */\n      add\n        /* \"#utility.yul\":6579:6626   */\n      mstore\n        /* \"#utility.yul\":6643:6721   */\n      tag_190\n        /* \"#utility.yul\":6716:6720   */\n      dup2\n        /* \"#utility.yul\":6707:6713   */\n      dup5\n        /* \"#utility.yul\":6643:6721   */\n      tag_91\n      jump\t// in\n    tag_190:\n        /* \"#utility.yul\":6635:6721   */\n      swap1\n      pop\n        /* \"#utility.yul\":6415:6728   */\n      swap3\n      swap2\n      pop\n      pop\n      jump\t// out\n        /* \"#utility.yul\":6734:6914   */\n    tag_106:\n        /* \"#utility.yul\":6782:6859   */\n      0x4e487b7100000000000000000000000000000000000000000000000000000000\n        /* \"#utility.yul\":6779:6780   */\n      0x00\n        /* \"#utility.yul\":6772:6860   */\n      mstore\n        /* \"#utility.yul\":6879:6883   */\n      0x22\n        /* \"#utility.yul\":6876:6877   */\n      0x04\n        /* \"#utility.yul\":6869:6884   */\n      mstore\n        /* \"#utility.yul\":6903:6907   */\n      0x24\n        /* \"#utility.yul\":6900:6901   */\n      0x00\n        /* \"#utility.yul\":6893:6908   */\n      revert\n        /* \"#utility.yul\":6920:7240   */\n    tag_32:\n        /* \"#utility.yul\":6964:6970   */\n      0x00\n        /* \"#utility.yul\":7001:7002   */\n      0x02\n        /* \"#utility.yul\":6995:6999   */\n      dup3\n        /* \"#utility.yul\":6991:7003   */\n      div\n        /* \"#utility.yul\":6981:7003   */\n      swap1\n      pop\n        /* \"#utility.yul\":7048:7049   */\n      0x01\n        /* \"#utility.yul\":7042:7046   */\n      dup3\n        /* \"#utility.yul\":7038:7050   */\n      and\n        /* \"#utility.yul\":7069:7087   */\n      dup1\n        /* \"#utility.yul\":7059:7140   */\n      tag_193\n      jumpi\n        /* \"#utility.yul\":7125:7129   */\n      0x7f\n        /* \"#utility.yul\":7117:7123   */\n      dup3\n        /* \"#utility.yul\":7113:7130   */\n      and\n        /* \"#utility.yul\":7103:7130   */\n      swap2\n      pop\n        /* \"#utility.yul\":7059:7140   */\n    tag_193:\n        /* \"#utility.yul\":7187:7189   */\n      0x20\n        /* \"#utility.yul\":7179:7185   */\n      dup3\n        /* \"#utility.yul\":7176:7190   */\n      lt\n        /* \"#utility.yul\":7156:7174   */\n      dup2\n        /* \"#utility.yul\":7153:7191   */\n      sub\n        /* \"#utility.yul\":7150:7234   */\n      tag_194\n      jumpi\n        /* \"#utility.yul\":7206:7224   */\n      tag_195\n      tag_106\n      jump\t// in\n    tag_195:\n        /* \"#utility.yul\":7150:7234   */\n    tag_194:\n        /* \"#utility.yul\":6971:7240   */\n      pop\n        /* \"#utility.yul\":6920:7240   */\n      swap2\n      swap1\n      pop\n      jump\t// out\n        /* \"#utility.yul\":7246:7426   */\n    tag_107:\n        /* \"#utility.yul\":7294:7371   */\n      0x4e487b7100000000000000000000000000000000000000000000000000000000\n        /* \"#utility.yul\":7291:7292   */\n      0x00\n        /* \"#utility.yul\":7284:7372   */\n      mstore\n        /* \"#utility.yul\":7391:7395   */\n      0x11\n        /* \"#utility.yul\":7388:7389   */\n      0x04\n        /* \"#utility.yul\":7381:7396   */\n      mstore\n        /* \"#utility.yul\":7415:7419   */\n      0x24\n        /* \"#utility.yul\":7412:7413   */\n      0x00\n        /* \"#utility.yul\":7405:7420   */\n      revert\n        /* \"#utility.yul\":7432:7626   */\n    tag_42:\n        /* \"#utility.yul\":7472:7476   */\n      0x00\n        /* \"#utility.yul\":7492:7512   */\n      tag_198\n        /* \"#utility.yul\":7510:7511   */\n      dup3\n        /* \"#utility.yul\":7492:7512   */\n      tag_83\n      jump\t// in\n    tag_198:\n        /* \"#utility.yul\":7487:7512   */\n      swap2\n      pop\n        /* \"#utility.yul\":7526:7546   */\n      tag_199\n        /* \"#utility.yul\":7544:7545   */\n      dup4\n        /* \"#utility.yul\":7526:7546   */\n      tag_83\n      jump\t// in\n    tag_199:\n        /* \"#utility.yul\":7521:7546   */\n      swap3\n      pop\n        /* \"#utility.yul\":7570:7571   */\n      dup3\n        /* \"#utility.yul\":7567:7568   */\n      dup3\n        /* \"#utility.yul\":7563:7572   */\n      sub\n        /* \"#utility.yul\":7555:7572   */\n      swap1\n      pop\n        /* \"#utility.yul\":7594:7595   */\n      dup2\n        /* \"#utility.yul\":7588:7592   */\n      dup2\n        /* \"#utility.yul\":7585:7596   */\n      gt\n        /* \"#utility.yul\":7582:7619   */\n      iszero\n      tag_200\n      jumpi\n        /* \"#utility.yul\":7599:7617   */\n      tag_201\n      tag_107\n      jump\t// in\n    tag_201:\n        /* \"#utility.yul\":7582:7619   */\n    tag_200:\n        /* \"#utility.yul\":7432:7626   */\n      swap3\n      swap2\n      pop\n      pop\n      jump\t// out\n        /* \"#utility.yul\":7632:7823   */\n    tag_45:\n        /* \"#utility.yul\":7672:7675   */\n      0x00\n        /* \"#utility.yul\":7691:7711   */\n      tag_203\n        /* \"#utility.yul\":7709:7710   */\n      dup3\n        /* \"#utility.yul\":7691:7711   */\n      tag_83\n      jump\t// in\n    tag_203:\n        /* \"#utility.yul\":7686:7711   */\n      swap2\n      pop\n        /* \"#utility.yul\":7725:7745   */\n      tag_204\n        /* \"#utility.yul\":7743:7744   */\n      dup4\n        /* \"#utility.yul\":7725:7745   */\n      tag_83\n      jump\t// in\n    tag_204:\n        /* \"#utility.yul\":7720:7745   */\n      swap3\n      pop\n        /* \"#utility.yul\":7768:7769   */\n      dup3\n        /* \"#utility.yul\":7765:7766   */\n      dup3\n        /* \"#utility.yul\":7761:7770   */\n      add\n        /* \"#utility.yul\":7754:7770   */\n      swap1\n      pop\n        /* \"#utility.yul\":7789:7792   */\n      dup1\n        /* \"#utility.yul\":7786:7787   */\n      dup3\n        /* \"#utility.yul\":7783:7793   */\n      gt\n        /* \"#utility.yul\":7780:7816   */\n      iszero\n      tag_205\n      jumpi\n        /* \"#utility.yul\":7796:7814   */\n      tag_206\n      tag_107\n      jump\t// in\n    tag_206:\n        /* \"#utility.yul\":7780:7816   */\n    tag_205:\n        /* \"#utility.yul\":7632:7823   */\n      swap3\n      swap2\n      pop\n      pop\n      jump\t// out\n        /* \"#utility.yul\":7829:8009   */\n    tag_48:\n        /* \"#utility.yul\":7877:7954   */\n      0x4e487b7100000000000000000000000000000000000000000000000000000000\n        /* \"#utility.yul\":7874:7875   */\n      0x00\n        /* \"#utility.yul\":7867:7955   */\n      mstore\n        /* \"#utility.yul\":7974:7978   */\n      0x32\n        /* \"#utility.yul\":7971:7972   */\n      0x04\n        /* \"#utility.yul\":7964:7979   */\n      mstore\n        /* \"#utility.yul\":7998:8002   */\n      0x24\n        /* \"#utility.yul\":7995:7996   */\n      0x00\n        /* \"#utility.yul\":7988:8003   */\n      revert\n        /* \"#utility.yul\":8015:8387   */\n    tag_55:\n        /* \"#utility.yul\":8054:8058   */\n      0x00\n        /* \"#utility.yul\":8074:8093   */\n      tag_209\n        /* \"#utility.yul\":8091:8092   */\n      dup3\n        /* \"#utility.yul\":8074:8093   */\n      tag_101\n      jump\t// in\n    tag_209:\n        /* \"#utility.yul\":8069:8093   */\n      swap2\n      pop\n        /* \"#utility.yul\":8107:8126   */\n      tag_210\n        /* \"#utility.yul\":8124:8125   */\n      dup4\n        /* \"#utility.yul\":8107:8126   */\n      tag_101\n      jump\t// in\n    tag_210:\n        /* \"#utility.yul\":8102:8126   */\n      swap3\n      pop\n        /* \"#utility.yul\":8150:8151   */\n      dup3\n        /* \"#utility.yul\":8147:8148   */\n      dup3\n        /* \"#utility.yul\":8143:8152   */\n      sub\n        /* \"#utility.yul\":8135:8152   */\n      swap1\n      pop\n        /* \"#utility.yul\":8344:8345   */\n      dup2\n        /* \"#utility.yul\":8338:8342   */\n      dup2\n        /* \"#utility.yul\":8334:8346   */\n      slt\n        /* \"#utility.yul\":8330:8331   */\n      0x00\n        /* \"#utility.yul\":8327:8328   */\n      dup5\n        /* \"#utility.yul\":8323:8332   */\n      slt\n        /* \"#utility.yul\":8319:8347   */\n      and\n        /* \"#utility.yul\":8302:8303   */\n      dup3\n        /* \"#utility.yul\":8296:8300   */\n      dup3\n        /* \"#utility.yul\":8292:8304   */\n      sgt\n        /* \"#utility.yul\":8287:8288   */\n      0x00\n        /* \"#utility.yul\":8284:8285   */\n      dup6\n        /* \"#utility.yul\":8280:8289   */\n      slt\n        /* \"#utility.yul\":8273:8290   */\n      iszero\n        /* \"#utility.yul\":8269:8305   */\n      and\n        /* \"#utility.yul\":8253:8357   */\n      or\n        /* \"#utility.yul\":8250:8380   */\n      iszero\n      tag_211\n      jumpi\n        /* \"#utility.yul\":8360:8378   */\n      tag_212\n      tag_107\n      jump\t// in\n    tag_212:\n        /* \"#utility.yul\":8250:8380   */\n    tag_211:\n        /* \"#utility.yul\":8015:8387   */\n      swap3\n      swap2\n      pop\n      pop\n      jump\t// out\n        /* \"#utility.yul\":8393:8768   */\n    tag_60:\n        /* \"#utility.yul\":8432:8435   */\n      0x00\n        /* \"#utility.yul\":8451:8470   */\n      tag_214\n        /* \"#utility.yul\":8468:8469   */\n      dup3\n        /* \"#utility.yul\":8451:8470   */\n      tag_101\n      jump\t// in\n    tag_214:\n        /* \"#utility.yul\":8446:8470   */\n      swap2\n      pop\n        /* \"#utility.yul\":8484:8503   */\n      tag_215\n        /* \"#utility.yul\":8501:8502   */\n      dup4\n        /* \"#utility.yul\":8484:8503   */\n      tag_101\n      jump\t// in\n    tag_215:\n        /* \"#utility.yul\":8479:8503   */\n      swap3\n      pop\n        /* \"#utility.yul\":8526:8527   */\n      dup3\n        /* \"#utility.yul\":8523:8524   */\n      dup3\n        /* \"#utility.yul\":8519:8528   */\n      add\n        /* \"#utility.yul\":8512:8528   */\n      swap1\n      pop\n        /* \"#utility.yul\":8724:8725   */\n      dup3\n        /* \"#utility.yul\":8719:8722   */\n      dup2\n        /* \"#utility.yul\":8715:8726   */\n      slt\n        /* \"#utility.yul\":8708:8727   */\n      iszero\n        /* \"#utility.yul\":8704:8705   */\n      0x00\n        /* \"#utility.yul\":8701:8702   */\n      dup4\n        /* \"#utility.yul\":8697:8706   */\n      slt\n        /* \"#utility.yul\":8693:8728   */\n      and\n        /* \"#utility.yul\":8676:8677   */\n      dup4\n        /* \"#utility.yul\":8671:8674   */\n      dup3\n        /* \"#utility.yul\":8667:8678   */\n      slt\n        /* \"#utility.yul\":8662:8663   */\n      0x00\n        /* \"#utility.yul\":8659:8660   */\n      dup5\n        /* \"#utility.yul\":8655:8664   */\n      slt\n        /* \"#utility.yul\":8648:8665   */\n      iszero\n        /* \"#utility.yul\":8644:8679   */\n      and\n        /* \"#utility.yul\":8628:8738   */\n      or\n        /* \"#utility.yul\":8625:8761   */\n      iszero\n      tag_216\n      jumpi\n        /* \"#utility.yul\":8741:8759   */\n      tag_217\n      tag_107\n      jump\t// in\n    tag_217:\n        /* \"#utility.yul\":8625:8761   */\n    tag_216:\n        /* \"#utility.yul\":8393:8768   */\n      swap3\n      swap2\n      pop\n      pop\n      jump\t// out\n        /* \"#utility.yul\":8774:8922   */\n    tag_108:\n        /* \"#utility.yul\":8876:8887   */\n      0x00\n        /* \"#utility.yul\":8913:8916   */\n      dup2\n        /* \"#utility.yul\":8898:8916   */\n      swap1\n      pop\n        /* \"#utility.yul\":8774:8922   */\n      swap3\n      swap2\n      pop\n      pop\n      jump\t// out\n        /* \"#utility.yul\":8928:9318   */\n    tag_109:\n        /* \"#utility.yul\":9034:9037   */\n      0x00\n        /* \"#utility.yul\":9062:9101   */\n      tag_220\n        /* \"#utility.yul\":9095:9100   */\n      dup3\n        /* \"#utility.yul\":9062:9101   */\n      tag_87\n      jump\t// in\n    tag_220:\n        /* \"#utility.yul\":9117:9206   */\n      tag_221\n        /* \"#utility.yul\":9199:9205   */\n      dup2\n        /* \"#utility.yul\":9194:9197   */\n      dup6\n        /* \"#utility.yul\":9117:9206   */\n      tag_108\n      jump\t// in\n    tag_221:\n        /* \"#utility.yul\":9110:9206   */\n      swap4\n      pop\n        /* \"#utility.yul\":9215:9280   */\n      tag_222\n        /* \"#utility.yul\":9273:9279   */\n      dup2\n        /* \"#utility.yul\":9268:9271   */\n      dup6\n        /* \"#utility.yul\":9261:9265   */\n      0x20\n        /* \"#utility.yul\":9254:9259   */\n      dup7\n        /* \"#utility.yul\":9250:9266   */\n      add\n        /* \"#utility.yul\":9215:9280   */\n      tag_89\n      jump\t// in\n    tag_222:\n        /* \"#utility.yul\":9305:9311   */\n      dup1\n        /* \"#utility.yul\":9300:9303   */\n      dup5\n        /* \"#utility.yul\":9296:9312   */\n      add\n        /* \"#utility.yul\":9289:9312   */\n      swap2\n      pop\n        /* \"#utility.yul\":9038:9318   */\n      pop\n        /* \"#utility.yul\":8928:9318   */\n      swap3\n      swap2\n      pop\n      pop\n      jump\t// out\n        /* \"#utility.yul\":9324:9465   */\n    tag_110:\n        /* \"#utility.yul\":9373:9377   */\n      0x00\n        /* \"#utility.yul\":9396:9399   */\n      dup2\n        /* \"#utility.yul\":9388:9399   */\n      swap1\n      pop\n        /* \"#utility.yul\":9419:9422   */\n      dup2\n        /* \"#utility.yul\":9416:9417   */\n      0x00\n        /* \"#utility.yul\":9409:9423   */\n      mstore\n        /* \"#utility.yul\":9453:9457   */\n      0x20\n        /* \"#utility.yul\":9450:9451   */\n      0x00\n        /* \"#utility.yul\":9440:9458   */\n      keccak256\n        /* \"#utility.yul\":9432:9458   */\n      swap1\n      pop\n        /* \"#utility.yul\":9324:9465   */\n      swap2\n      swap1\n      pop\n      jump\t// out\n        /* \"#utility.yul\":9495:10369   */\n    tag_111:\n        /* \"#utility.yul\":9598:9601   */\n      0x00\n        /* \"#utility.yul\":9635:9640   */\n      dup2\n        /* \"#utility.yul\":9629:9641   */\n      sload\n        /* \"#utility.yul\":9664:9700   */\n      tag_225\n        /* \"#utility.yul\":9690:9699   */\n      dup2\n        /* \"#utility.yul\":9664:9700   */\n      tag_32\n      jump\t// in\n    tag_225:\n        /* \"#utility.yul\":9716:9805   */\n      tag_226\n        /* \"#utility.yul\":9798:9804   */\n      dup2\n        /* \"#utility.yul\":9793:9796   */\n      dup7\n        /* \"#utility.yul\":9716:9805   */\n      tag_108\n      jump\t// in\n    tag_226:\n        /* \"#utility.yul\":9709:9805   */\n      swap5\n      pop\n        /* \"#utility.yul\":9836:9837   */\n      0x01\n        /* \"#utility.yul\":9825:9834   */\n      dup3\n        /* \"#utility.yul\":9821:9838   */\n      and\n        /* \"#utility.yul\":9852:9853   */\n      0x00\n        /* \"#utility.yul\":9847:10013   */\n      dup2\n      eq\n      tag_228\n      jumpi\n        /* \"#utility.yul\":10027:10028   */\n      0x01\n        /* \"#utility.yul\":10022:10363   */\n      dup2\n      eq\n      tag_229\n      jumpi\n        /* \"#utility.yul\":9814:10363   */\n      jump(tag_227)\n        /* \"#utility.yul\":9847:10013   */\n    tag_228:\n        /* \"#utility.yul\":9931:9935   */\n      0xff\n        /* \"#utility.yul\":9927:9936   */\n      not\n        /* \"#utility.yul\":9916:9925   */\n      dup4\n        /* \"#utility.yul\":9912:9937   */\n      and\n        /* \"#utility.yul\":9907:9910   */\n      dup7\n        /* \"#utility.yul\":9900:9938   */\n      mstore\n        /* \"#utility.yul\":9993:9999   */\n      dup2\n        /* \"#utility.yul\":9986:10000   */\n      iszero\n        /* \"#utility.yul\":9979:10001   */\n      iszero\n        /* \"#utility.yul\":9971:9977   */\n      dup3\n        /* \"#utility.yul\":9967:10002   */\n      mul\n        /* \"#utility.yul\":9962:9965   */\n      dup7\n        /* \"#utility.yul\":9958:10003   */\n      add\n        /* \"#utility.yul\":9951:10003   */\n      swap4\n      pop\n        /* \"#utility.yul\":9847:10013   */\n      jump(tag_227)\n        /* \"#utility.yul\":10022:10363   */\n    tag_229:\n        /* \"#utility.yul\":10089:10127   */\n      tag_230\n        /* \"#utility.yul\":10121:10126   */\n      dup6\n        /* \"#utility.yul\":10089:10127   */\n      tag_110\n      jump\t// in\n    tag_230:\n        /* \"#utility.yul\":10149:10150   */\n      0x00\n        /* \"#utility.yul\":10163:10317   */\n    tag_231:\n        /* \"#utility.yul\":10177:10183   */\n      dup4\n        /* \"#utility.yul\":10174:10175   */\n      dup2\n        /* \"#utility.yul\":10171:10184   */\n      lt\n        /* \"#utility.yul\":10163:10317   */\n      iszero\n      tag_233\n      jumpi\n        /* \"#utility.yul\":10251:10258   */\n      dup2\n        /* \"#utility.yul\":10245:10259   */\n      sload\n        /* \"#utility.yul\":10241:10242   */\n      dup2\n        /* \"#utility.yul\":10236:10239   */\n      dup10\n        /* \"#utility.yul\":10232:10243   */\n      add\n        /* \"#utility.yul\":10225:10260   */\n      mstore\n        /* \"#utility.yul\":10301:10302   */\n      0x01\n        /* \"#utility.yul\":10292:10299   */\n      dup3\n        /* \"#utility.yul\":10288:10303   */\n      add\n        /* \"#utility.yul\":10277:10303   */\n      swap2\n      pop\n        /* \"#utility.yul\":10199:10203   */\n      0x20\n        /* \"#utility.yul\":10196:10197   */\n      dup2\n        /* \"#utility.yul\":10192:10204   */\n      add\n        /* \"#utility.yul\":10187:10204   */\n      swap1\n      pop\n        /* \"#utility.yul\":10163:10317   */\n      jump(tag_231)\n    tag_233:\n        /* \"#utility.yul\":10346:10352   */\n      dup4\n        /* \"#utility.yul\":10341:10344   */\n      dup9\n        /* \"#utility.yul\":10337:10353   */\n      add\n        /* \"#utility.yul\":10330:10353   */\n      swap6\n      pop\n        /* \"#utility.yul\":10029:10363   */\n      pop\n      pop\n        /* \"#utility.yul\":9814:10363   */\n    tag_227:\n      pop\n        /* \"#utility.yul\":9602:10369   */\n      pop\n      pop\n        /* \"#utility.yul\":9495:10369   */\n      swap3\n      swap2\n      pop\n      pop\n      jump\t// out\n        /* \"#utility.yul\":10375:10804   */\n    tag_78:\n        /* \"#utility.yul\":10552:10555   */\n      0x00\n        /* \"#utility.yul\":10574:10669   */\n      tag_235\n        /* \"#utility.yul\":10665:10668   */\n      dup3\n        /* \"#utility.yul\":10656:10662   */\n      dup6\n        /* \"#utility.yul\":10574:10669   */\n      tag_109\n      jump\t// in\n    tag_235:\n        /* \"#utility.yul\":10567:10669   */\n      swap2\n      pop\n        /* \"#utility.yul\":10686:10778   */\n      tag_236\n        /* \"#utility.yul\":10774:10777   */\n      dup3\n        /* \"#utility.yul\":10765:10771   */\n      dup5\n        /* \"#utility.yul\":10686:10778   */\n      tag_111\n      jump\t// in\n    tag_236:\n        /* \"#utility.yul\":10679:10778   */\n      swap2\n      pop\n        /* \"#utility.yul\":10795:10798   */\n      dup2\n        /* \"#utility.yul\":10788:10798   */\n      swap1\n      pop\n        /* \"#utility.yul\":10375:10804   */\n      swap4\n      swap3\n      pop\n      pop\n      pop\n      jump\t// out\n\n    auxdata: 0xa26469706673582212209ea0da9203a70f4e20e03505f763b44454d6a72c0ff936a2a5dfc0aa5b22df5764736f6c634300081e0033\n}\n",
				"bytecode": {
					"linkReferences": {},
					"object": "608060405234801561000f575f5ffd5b50600160405180604001604052806103e881526020016040518060400160405280600181526020017f4d00000000000000000000000000000000000000000000000000000000000000815250815250908060018154018082558091505060019003905f5260205f2090600202015f909190919091505f820151815f015560208201518160010190816100a19190610c37565b5050506001604051806040016040528061038481526020016040518060400160405280600281526020017f434d000000000000000000000000000000000000000000000000000000000000815250815250908060018154018082558091505060019003905f5260205f2090600202015f909190919091505f820151815f015560208201518160010190816101359190610c37565b505050600160405180604001604052806101f481526020016040518060400160405280600181526020017f4400000000000000000000000000000000000000000000000000000000000000815250815250908060018154018082558091505060019003905f5260205f2090600202015f909190919091505f820151815f015560208201518160010190816101c99190610c37565b5050506001604051806040016040528061019081526020016040518060400160405280600281526020017f4344000000000000000000000000000000000000000000000000000000000000815250815250908060018154018082558091505060019003905f5260205f2090600202015f909190919091505f820151815f0155602082015181600101908161025d9190610c37565b50505060016040518060400160405280606481526020016040518060400160405280600181526020017f4300000000000000000000000000000000000000000000000000000000000000815250815250908060018154018082558091505060019003905f5260205f2090600202015f909190919091505f820151815f015560208201518160010190816102f09190610c37565b50505060016040518060400160405280605a81526020016040518060400160405280600281526020017f5843000000000000000000000000000000000000000000000000000000000000815250815250908060018154018082558091505060019003905f5260205f2090600202015f909190919091505f820151815f015560208201518160010190816103839190610c37565b50505060016040518060400160405280603281526020016040518060400160405280600181526020017f4c00000000000000000000000000000000000000000000000000000000000000815250815250908060018154018082558091505060019003905f5260205f2090600202015f909190919091505f820151815f015560208201518160010190816104169190610c37565b50505060016040518060400160405280602881526020016040518060400160405280600281526020017f584c000000000000000000000000000000000000000000000000000000000000815250815250908060018154018082558091505060019003905f5260205f2090600202015f909190919091505f820151815f015560208201518160010190816104a99190610c37565b50505060016040518060400160405280600a81526020016040518060400160405280600181526020017f5800000000000000000000000000000000000000000000000000000000000000815250815250908060018154018082558091505060019003905f5260205f2090600202015f909190919091505f820151815f0155602082015181600101908161053c9190610c37565b50505060016040518060400160405280600981526020016040518060400160405280600281526020017f4958000000000000000000000000000000000000000000000000000000000000815250815250908060018154018082558091505060019003905f5260205f2090600202015f909190919091505f820151815f015560208201518160010190816105cf9190610c37565b50505060016040518060400160405280600581526020016040518060400160405280600181526020017f5600000000000000000000000000000000000000000000000000000000000000815250815250908060018154018082558091505060019003905f5260205f2090600202015f909190919091505f820151815f015560208201518160010190816106629190610c37565b50505060016040518060400160405280600481526020016040518060400160405280600281526020017f4956000000000000000000000000000000000000000000000000000000000000815250815250908060018154018082558091505060019003905f5260205f2090600202015f909190919091505f820151815f015560208201518160010190816106f59190610c37565b50505060016040518060400160405280600181526020016040518060400160405280600181526020017f4900000000000000000000000000000000000000000000000000000000000000815250815250908060018154018082558091505060019003905f5260205f2090600202015f909190919091505f820151815f015560208201518160010190816107889190610c37565b50505060015f5f7f49000000000000000000000000000000000000000000000000000000000000007effffffffffffffffffffffffffffffffffffffffffffffffffffffffffffff191681526020019081526020015f208190555060055f5f7f56000000000000000000000000000000000000000000000000000000000000007effffffffffffffffffffffffffffffffffffffffffffffffffffffffffffff191681526020019081526020015f2081905550600a5f5f7f58000000000000000000000000000000000000000000000000000000000000007effffffffffffffffffffffffffffffffffffffffffffffffffffffffffffff191681526020019081526020015f208190555060325f5f7f4c000000000000000000000000000000000000000000000000000000000000007effffffffffffffffffffffffffffffffffffffffffffffffffffffffffffff191681526020019081526020015f208190555060645f5f7f43000000000000000000000000000000000000000000000000000000000000007effffffffffffffffffffffffffffffffffffffffffffffffffffffffffffff191681526020019081526020015f20819055506101f45f5f7f44000000000000000000000000000000000000000000000000000000000000007effffffffffffffffffffffffffffffffffffffffffffffffffffffffffffff191681526020019081526020015f20819055506103e85f5f7f4d000000000000000000000000000000000000000000000000000000000000007effffffffffffffffffffffffffffffffffffffffffffffffffffffffffffff191681526020019081526020015f2081905550610d06565b5f81519050919050565b7f4e487b71000000000000000000000000000000000000000000000000000000005f52604160045260245ffd5b7f4e487b71000000000000000000000000000000000000000000000000000000005f52602260045260245ffd5b5f6002820490506001821680610a7557607f821691505b602082108103610a8857610a87610a31565b5b50919050565b5f819050815f5260205f209050919050565b5f6020601f8301049050919050565b5f82821b905092915050565b5f60088302610aea7fffffffffffffffffffffffffffffffffffffffffffffffffffffffffffffffff82610aaf565b610af48683610aaf565b95508019841693508086168417925050509392505050565b5f819050919050565b5f819050919050565b5f610b38610b33610b2e84610b0c565b610b15565b610b0c565b9050919050565b5f819050919050565b610b5183610b1e565b610b65610b5d82610b3f565b848454610abb565b825550505050565b5f5f905090565b610b7c610b6d565b610b87818484610b48565b505050565b5b81811015610baa57610b9f5f82610b74565b600181019050610b8d565b5050565b601f821115610bef57610bc081610a8e565b610bc984610aa0565b81016020851015610bd8578190505b610bec610be485610aa0565b830182610b8c565b50505b505050565b5f82821c905092915050565b5f610c0f5f1984600802610bf4565b1980831691505092915050565b5f610c278383610c00565b9150826002028217905092915050565b610c40826109fa565b67ffffffffffffffff811115610c5957610c58610a04565b5b610c638254610a5e565b610c6e828285610bae565b5f60209050601f831160018114610c9f575f8415610c8d578287015190505b610c978582610c1c565b865550610cfe565b601f198416610cad86610a8e565b5f5b82811015610cd457848901518255600182019150602085019450602081019050610caf565b86831015610cf15784890151610ced601f891682610c00565b8355505b6001600288020188555050505b505050505050565b610b3880610d135f395ff3fe608060405234801561000f575f5ffd5b506004361061004a575f3560e01c80632fedf6d51461004e578063303b5d3b1461007f578063445458dc146100af578063ab7baabe146100df575b5f5ffd5b6100686004803603810190610063919061053f565b61010f565b604051610076929190610603565b60405180910390f35b6100996004803603810190610094919061075d565b6101c4565b6040516100a691906107bc565b60405180910390f35b6100c960048036038101906100c4919061082a565b610409565b6040516100d691906107bc565b60405180910390f35b6100f960048036038101906100f4919061053f565b61041d565b6040516101069190610855565b60405180910390f35b6001818154811061011e575f80fd5b905f5260205f2090600202015f91509050805f015490806001018054610143906108a2565b80601f016020809104026020016040519081016040528092919081815260200182805461016f906108a2565b80156101ba5780601f10610191576101008083540402835291602001916101ba565b820191905f5260205f20905b81548152906001019060200180831161019d57829003601f168201915b5050505050905082565b5f5f5f90505f8390505f815190505f5f90505b818110156103fd576001826101ec91906108ff565b811080156102e757505f5f846001846102059190610932565b8151811061021657610215610965565b5b602001015160f81c60f81b7effffffffffffffffffffffffffffffffffffffffffffffffffffffffffffff19167effffffffffffffffffffffffffffffffffffffffffffffffffffffffffffff191681526020019081526020015f20545f5f85848151811061028857610287610965565b5b602001015160f81c60f81b7effffffffffffffffffffffffffffffffffffffffffffffffffffffffffffff19167effffffffffffffffffffffffffffffffffffffffffffffffffffffffffffff191681526020019081526020015f2054125b15610370575f5f84838151811061030157610300610965565b5b602001015160f81c60f81b7effffffffffffffffffffffffffffffffffffffffffffffffffffffffffffff19167effffffffffffffffffffffffffffffffffffffffffffffffffffffffffffff191681526020019081526020015f2054846103699190610992565b93506103f0565b5f5f84838151811061038557610384610965565b5b602001015160f81c60f81b7effffffffffffffffffffffffffffffffffffffffffffffffffffffffffffff19167effffffffffffffffffffffffffffffffffffffffffffffffffffffffffffff191681526020019081526020015f2054846103ed91906109d2565b93505b80806001019150506101d7565b50829350505050919050565b5f602052805f5260405f205f915090505481565b6060805f8390505f5f90505b6001805490508110156104f0575b6001818154811061044b5761044a610965565b5b905f5260205f2090600202015f015482106104db576001818154811061047457610473610965565b5b905f5260205f2090600202015f01548261048e91906108ff565b915082600182815481106104a5576104a4610965565b5b905f5260205f2090600202016001016040516020016104c5929190610adf565b6040516020818303038152906040529250610437565b5f8203156104f0578080600101915050610429565b508192505050919050565b5f604051905090565b5f5ffd5b5f5ffd5b5f819050919050565b61051e8161050c565b8114610528575f5ffd5b50565b5f8135905061053981610515565b92915050565b5f6020828403121561055457610553610504565b5b5f6105618482850161052b565b91505092915050565b6105738161050c565b82525050565b5f81519050919050565b5f82825260208201905092915050565b5f5b838110156105b0578082015181840152602081019050610595565b5f8484015250505050565b5f601f19601f8301169050919050565b5f6105d582610579565b6105df8185610583565b93506105ef818560208601610593565b6105f8816105bb565b840191505092915050565b5f6040820190506106165f83018561056a565b818103602083015261062881846105cb565b90509392505050565b5f5ffd5b5f5ffd5b7f4e487b71000000000000000000000000000000000000000000000000000000005f52604160045260245ffd5b61066f826105bb565b810181811067ffffffffffffffff8211171561068e5761068d610639565b5b80604052505050565b5f6106a06104fb565b90506106ac8282610666565b919050565b5f67ffffffffffffffff8211156106cb576106ca610639565b5b6106d4826105bb565b9050602081019050919050565b828183375f83830152505050565b5f6107016106fc846106b1565b610697565b90508281526020810184848401111561071d5761071c610635565b5b6107288482856106e1565b509392505050565b5f82601f83011261074457610743610631565b5b81356107548482602086016106ef565b91505092915050565b5f6020828403121561077257610771610504565b5b5f82013567ffffffffffffffff81111561078f5761078e610508565b5b61079b84828501610730565b91505092915050565b5f819050919050565b6107b6816107a4565b82525050565b5f6020820190506107cf5f8301846107ad565b92915050565b5f7fff0000000000000000000000000000000000000000000000000000000000000082169050919050565b610809816107d5565b8114610813575f5ffd5b50565b5f8135905061082481610800565b92915050565b5f6020828403121561083f5761083e610504565b5b5f61084c84828501610816565b91505092915050565b5f6020820190508181035f83015261086d81846105cb565b905092915050565b7f4e487b71000000000000000000000000000000000000000000000000000000005f52602260045260245ffd5b5f60028204905060018216806108b957607f821691505b6020821081036108cc576108cb610875565b5b50919050565b7f4e487b71000000000000000000000000000000000000000000000000000000005f52601160045260245ffd5b5f6109098261050c565b91506109148361050c565b925082820390508181111561092c5761092b6108d2565b5b92915050565b5f61093c8261050c565b91506109478361050c565b925082820190508082111561095f5761095e6108d2565b5b92915050565b7f4e487b71000000000000000000000000000000000000000000000000000000005f52603260045260245ffd5b5f61099c826107a4565b91506109a7836107a4565b925082820390508181125f8412168282135f8512151617156109cc576109cb6108d2565b5b92915050565b5f6109dc826107a4565b91506109e7836107a4565b92508282019050828112155f8312168382125f841215161715610a0d57610a0c6108d2565b5b92915050565b5f81905092915050565b5f610a2782610579565b610a318185610a13565b9350610a41818560208601610593565b80840191505092915050565b5f819050815f5260205f209050919050565b5f8154610a6b816108a2565b610a758186610a13565b9450600182165f8114610a8f5760018114610aa457610ad6565b60ff1983168652811515820286019350610ad6565b610aad85610a4d565b5f5b83811015610ace57815481890152600182019150602081019050610aaf565b838801955050505b50505092915050565b5f610aea8285610a1d565b9150610af68284610a5f565b9150819050939250505056fea26469706673582212209ea0da9203a70f4e20e03505f763b44454d6a72c0ff936a2a5dfc0aa5b22df5764736f6c634300081e0033",
					"opcodes": "PUSH1 0x80 PUSH1 0x40 MSTORE CALLVALUE DUP1 ISZERO PUSH2 0xF JUMPI PUSH0 PUSH0 REVERT JUMPDEST POP PUSH1 0x1 PUSH1 0x40 MLOAD DUP1 PUSH1 0x40 ADD PUSH1 0x40 MSTORE DUP1 PUSH2 0x3E8 DUP2 MSTORE PUSH1 0x20 ADD PUSH1 0x40 MLOAD DUP1 PUSH1 0x40 ADD PUSH1 0x40 MSTORE DUP1 PUSH1 0x1 DUP2 MSTORE PUSH1 0x20 ADD PUSH32 0x4D00000000000000000000000000000000000000000000000000000000000000 DUP2 MSTORE POP DUP2 MSTORE POP SWAP1 DUP1 PUSH1 0x1 DUP2 SLOAD ADD DUP1 DUP3 SSTORE DUP1 SWAP2 POP POP PUSH1 0x1 SWAP1 SUB SWAP1 PUSH0 MSTORE PUSH1 0x20 PUSH0 KECCAK256 SWAP1 PUSH1 0x2 MUL ADD PUSH0 SWAP1 SWAP2 SWAP1 SWAP2 SWAP1 SWAP2 POP PUSH0 DUP3 ADD MLOAD DUP2 PUSH0 ADD SSTORE PUSH1 0x20 DUP3 ADD MLOAD DUP2 PUSH1 0x1 ADD SWAP1 DUP2 PUSH2 0xA1 SWAP2 SWAP1 PUSH2 0xC37 JUMP JUMPDEST POP POP POP PUSH1 0x1 PUSH1 0x40 MLOAD DUP1 PUSH1 0x40 ADD PUSH1 0x40 MSTORE DUP1 PUSH2 0x384 DUP2 MSTORE PUSH1 0x20 ADD PUSH1 0x40 MLOAD DUP1 PUSH1 0x40 ADD PUSH1 0x40 MSTORE DUP1 PUSH1 0x2 DUP2 MSTORE PUSH1 0x20 ADD PUSH32 0x434D000000000000000000000000000000000000000000000000000000000000 DUP2 MSTORE POP DUP2 MSTORE POP SWAP1 DUP1 PUSH1 0x1 DUP2 SLOAD ADD DUP1 DUP3 SSTORE DUP1 SWAP2 POP POP PUSH1 0x1 SWAP1 SUB SWAP1 PUSH0 MSTORE PUSH1 0x20 PUSH0 KECCAK256 SWAP1 PUSH1 0x2 MUL ADD PUSH0 SWAP1 SWAP2 SWAP1 SWAP2 SWAP1 SWAP2 POP PUSH0 DUP3 ADD MLOAD DUP2 PUSH0 ADD SSTORE PUSH1 0x20 DUP3 ADD MLOAD DUP2 PUSH1 0x1 ADD SWAP1 DUP2 PUSH2 0x135 SWAP2 SWAP1 PUSH2 0xC37 JUMP JUMPDEST POP POP POP PUSH1 0x1 PUSH1 0x40 MLOAD DUP1 PUSH1 0x40 ADD PUSH1 0x40 MSTORE DUP1 PUSH2 0x1F4 DUP2 MSTORE PUSH1 0x20 ADD PUSH1 0x40 MLOAD DUP1 PUSH1 0x40 ADD PUSH1 0x40 MSTORE DUP1 PUSH1 0x1 DUP2 MSTORE PUSH1 0x20 ADD PUSH32 0x4400000000000000000000000000000000000000000000000000000000000000 DUP2 MSTORE POP DUP2 MSTORE POP SWAP1 DUP1 PUSH1 0x1 DUP2 SLOAD ADD DUP1 DUP3 SSTORE DUP1 SWAP2 POP POP PUSH1 0x1 SWAP1 SUB SWAP1 PUSH0 MSTORE PUSH1 0x20 PUSH0 KECCAK256 SWAP1 PUSH1 0x2 MUL ADD PUSH0 SWAP1 SWAP2 SWAP1 SWAP2 SWAP1 SWAP2 POP PUSH0 DUP3 ADD MLOAD DUP2 PUSH0 ADD SSTORE PUSH1 0x20 DUP3 ADD MLOAD DUP2 PUSH1 0x1 ADD SWAP1 DUP2 PUSH2 0x1C9 SWAP2 SWAP1 PUSH2 0xC37 JUMP JUMPDEST POP POP POP PUSH1 0x1 PUSH1 0x40 MLOAD DUP1 PUSH1 0x40 ADD PUSH1 0x40 MSTORE DUP1 PUSH2 0x190 DUP2 MSTORE PUSH1 0x20 ADD PUSH1 0x40 MLOAD DUP1 PUSH1 0x40 ADD PUSH1 0x40 MSTORE DUP1 PUSH1 0x2 DUP2 MSTORE PUSH1 0x20 ADD PUSH32 0x4344000000000000000000000000000000000000000000000000000000000000 DUP2 MSTORE POP DUP2 MSTORE POP SWAP1 DUP1 PUSH1 0x1 DUP2 SLOAD ADD DUP1 DUP3 SSTORE DUP1 SWAP2 POP POP PUSH1 0x1 SWAP1 SUB SWAP1 PUSH0 MSTORE PUSH1 0x20 PUSH0 KECCAK256 SWAP1 PUSH1 0x2 MUL ADD PUSH0 SWAP1 SWAP2 SWAP1 SWAP2 SWAP1 SWAP2 POP PUSH0 DUP3 ADD MLOAD DUP2 PUSH0 ADD SSTORE PUSH1 0x20 DUP3 ADD MLOAD DUP2 PUSH1 0x1 ADD SWAP1 DUP2 PUSH2 0x25D SWAP2 SWAP1 PUSH2 0xC37 JUMP JUMPDEST POP POP POP PUSH1 0x1 PUSH1 0x40 MLOAD DUP1 PUSH1 0x40 ADD PUSH1 0x40 MSTORE DUP1 PUSH1 0x64 DUP2 MSTORE PUSH1 0x20 ADD PUSH1 0x40 MLOAD DUP1 PUSH1 0x40 ADD PUSH1 0x40 MSTORE DUP1 PUSH1 0x1 DUP2 MSTORE PUSH1 0x20 ADD PUSH32 0x4300000000000000000000000000000000000000000000000000000000000000 DUP2 MSTORE POP DUP2 MSTORE POP SWAP1 DUP1 PUSH1 0x1 DUP2 SLOAD ADD DUP1 DUP3 SSTORE DUP1 SWAP2 POP POP PUSH1 0x1 SWAP1 SUB SWAP1 PUSH0 MSTORE PUSH1 0x20 PUSH0 KECCAK256 SWAP1 PUSH1 0x2 MUL ADD PUSH0 SWAP1 SWAP2 SWAP1 SWAP2 SWAP1 SWAP2 POP PUSH0 DUP3 ADD MLOAD DUP2 PUSH0 ADD SSTORE PUSH1 0x20 DUP3 ADD MLOAD DUP2 PUSH1 0x1 ADD SWAP1 DUP2 PUSH2 0x2F0 SWAP2 SWAP1 PUSH2 0xC37 JUMP JUMPDEST POP POP POP PUSH1 0x1 PUSH1 0x40 MLOAD DUP1 PUSH1 0x40 ADD PUSH1 0x40 MSTORE DUP1 PUSH1 0x5A DUP2 MSTORE PUSH1 0x20 ADD PUSH1 0x40 MLOAD DUP1 PUSH1 0x40 ADD PUSH1 0x40 MSTORE DUP1 PUSH1 0x2 DUP2 MSTORE PUSH1 0x20 ADD PUSH32 0x5843000000000000000000000000000000000000000000000000000000000000 DUP2 MSTORE POP DUP2 MSTORE POP SWAP1 DUP1 PUSH1 0x1 DUP2 SLOAD ADD DUP1 DUP3 SSTORE DUP1 SWAP2 POP POP PUSH1 0x1 SWAP1 SUB SWAP1 PUSH0 MSTORE PUSH1 0x20 PUSH0 KECCAK256 SWAP1 PUSH1 0x2 MUL ADD PUSH0 SWAP1 SWAP2 SWAP1 SWAP2 SWAP1 SWAP2 POP PUSH0 DUP3 ADD MLOAD DUP2 PUSH0 ADD SSTORE PUSH1 0x20 DUP3 ADD MLOAD DUP2 PUSH1 0x1 ADD SWAP1 DUP2 PUSH2 0x383 SWAP2 SWAP1 PUSH2 0xC37 JUMP JUMPDEST POP POP POP PUSH1 0x1 PUSH1 0x40 MLOAD DUP1 PUSH1 0x40 ADD PUSH1 0x40 MSTORE DUP1 PUSH1 0x32 DUP2 MSTORE PUSH1 0x20 ADD PUSH1 0x40 MLOAD DUP1 PUSH1 0x40 ADD PUSH1 0x40 MSTORE DUP1 PUSH1 0x1 DUP2 MSTORE PUSH1 0x20 ADD PUSH32 0x4C00000000000000000000000000000000000000000000000000000000000000 DUP2 MSTORE POP DUP2 MSTORE POP SWAP1 DUP1 PUSH1 0x1 DUP2 SLOAD ADD DUP1 DUP3 SSTORE DUP1 SWAP2 POP POP PUSH1 0x1 SWAP1 SUB SWAP1 PUSH0 MSTORE PUSH1 0x20 PUSH0 KECCAK256 SWAP1 PUSH1 0x2 MUL ADD PUSH0 SWAP1 SWAP2 SWAP1 SWAP2 SWAP1 SWAP2 POP PUSH0 DUP3 ADD MLOAD DUP2 PUSH0 ADD SSTORE PUSH1 0x20 DUP3 ADD MLOAD DUP2 PUSH1 0x1 ADD SWAP1 DUP2 PUSH2 0x416 SWAP2 SWAP1 PUSH2 0xC37 JUMP JUMPDEST POP POP POP PUSH1 0x1 PUSH1 0x40 MLOAD DUP1 PUSH1 0x40 ADD PUSH1 0x40 MSTORE DUP1 PUSH1 0x28 DUP2 MSTORE PUSH1 0x20 ADD PUSH1 0x40 MLOAD DUP1 PUSH1 0x40 ADD PUSH1 0x40 MSTORE DUP1 PUSH1 0x2 DUP2 MSTORE PUSH1 0x20 ADD PUSH32 0x584C000000000000000000000000000000000000000000000000000000000000 DUP2 MSTORE POP DUP2 MSTORE POP SWAP1 DUP1 PUSH1 0x1 DUP2 SLOAD ADD DUP1 DUP3 SSTORE DUP1 SWAP2 POP POP PUSH1 0x1 SWAP1 SUB SWAP1 PUSH0 MSTORE PUSH1 0x20 PUSH0 KECCAK256 SWAP1 PUSH1 0x2 MUL ADD PUSH0 SWAP1 SWAP2 SWAP1 SWAP2 SWAP1 SWAP2 POP PUSH0 DUP3 ADD MLOAD DUP2 PUSH0 ADD SSTORE PUSH1 0x20 DUP3 ADD MLOAD DUP2 PUSH1 0x1 ADD SWAP1 DUP2 PUSH2 0x4A9 SWAP2 SWAP1 PUSH2 0xC37 JUMP JUMPDEST POP POP POP PUSH1 0x1 PUSH1 0x40 MLOAD DUP1 PUSH1 0x40 ADD PUSH1 0x40 MSTORE DUP1 PUSH1 0xA DUP2 MSTORE PUSH1 0x20 ADD PUSH1 0x40 MLOAD DUP1 PUSH1 0x40 ADD PUSH1 0x40 MSTORE DUP1 PUSH1 0x1 DUP2 MSTORE PUSH1 0x20 ADD PUSH32 0x5800000000000000000000000000000000000000000000000000000000000000 DUP2 MSTORE POP DUP2 MSTORE POP SWAP1 DUP1 PUSH1 0x1 DUP2 SLOAD ADD DUP1 DUP3 SSTORE DUP1 SWAP2 POP POP PUSH1 0x1 SWAP1 SUB SWAP1 PUSH0 MSTORE PUSH1 0x20 PUSH0 KECCAK256 SWAP1 PUSH1 0x2 MUL ADD PUSH0 SWAP1 SWAP2 SWAP1 SWAP2 SWAP1 SWAP2 POP PUSH0 DUP3 ADD MLOAD DUP2 PUSH0 ADD SSTORE PUSH1 0x20 DUP3 ADD MLOAD DUP2 PUSH1 0x1 ADD SWAP1 DUP2 PUSH2 0x53C SWAP2 SWAP1 PUSH2 0xC37 JUMP JUMPDEST POP POP POP PUSH1 0x1 PUSH1 0x40 MLOAD DUP1 PUSH1 0x40 ADD PUSH1 0x40 MSTORE DUP1 PUSH1 0x9 DUP2 MSTORE PUSH1 0x20 ADD PUSH1 0x40 MLOAD DUP1 PUSH1 0x40 ADD PUSH1 0x40 MSTORE DUP1 PUSH1 0x2 DUP2 MSTORE PUSH1 0x20 ADD PUSH32 0x4958000000000000000000000000000000000000000000000000000000000000 DUP2 MSTORE POP DUP2 MSTORE POP SWAP1 DUP1 PUSH1 0x1 DUP2 SLOAD ADD DUP1 DUP3 SSTORE DUP1 SWAP2 POP POP PUSH1 0x1 SWAP1 SUB SWAP1 PUSH0 MSTORE PUSH1 0x20 PUSH0 KECCAK256 SWAP1 PUSH1 0x2 MUL ADD PUSH0 SWAP1 SWAP2 SWAP1 SWAP2 SWAP1 SWAP2 POP PUSH0 DUP3 ADD MLOAD DUP2 PUSH0 ADD SSTORE PUSH1 0x20 DUP3 ADD MLOAD DUP2 PUSH1 0x1 ADD SWAP1 DUP2 PUSH2 0x5CF SWAP2 SWAP1 PUSH2 0xC37 JUMP JUMPDEST POP POP POP PUSH1 0x1 PUSH1 0x40 MLOAD DUP1 PUSH1 0x40 ADD PUSH1 0x40 MSTORE DUP1 PUSH1 0x5 DUP2 MSTORE PUSH1 0x20 ADD PUSH1 0x40 MLOAD DUP1 PUSH1 0x40 ADD PUSH1 0x40 MSTORE DUP1 PUSH1 0x1 DUP2 MSTORE PUSH1 0x20 ADD PUSH32 0x5600000000000000000000000000000000000000000000000000000000000000 DUP2 MSTORE POP DUP2 MSTORE POP SWAP1 DUP1 PUSH1 0x1 DUP2 SLOAD ADD DUP1 DUP3 SSTORE DUP1 SWAP2 POP POP PUSH1 0x1 SWAP1 SUB SWAP1 PUSH0 MSTORE PUSH1 0x20 PUSH0 KECCAK256 SWAP1 PUSH1 0x2 MUL ADD PUSH0 SWAP1 SWAP2 SWAP1 SWAP2 SWAP1 SWAP2 POP PUSH0 DUP3 ADD MLOAD DUP2 PUSH0 ADD SSTORE PUSH1 0x20 DUP3 ADD MLOAD DUP2 PUSH1 0x1 ADD SWAP1 DUP2 PUSH2 0x662 SWAP2 SWAP1 PUSH2 0xC37 JUMP JUMPDEST POP POP POP PUSH1 0x1 PUSH1 0x40 MLOAD DUP1 PUSH1 0x40 ADD PUSH1 0x40 MSTORE DUP1 PUSH1 0x4 DUP2 MSTORE PUSH1 0x20 ADD PUSH1 0x40 MLOAD DUP1 PUSH1 0x40 ADD PUSH1 0x40 MSTORE DUP1 PUSH1 0x2 DUP2 MSTORE PUSH1 0x20 ADD PUSH32 0x4956000000000000000000000000000000000000000000000000000000000000 DUP2 MSTORE POP DUP2 MSTORE POP SWAP1 DUP1 PUSH1 0x1 DUP2 SLOAD ADD DUP1 DUP3 SSTORE DUP1 SWAP2 POP POP PUSH1 0x1 SWAP1 SUB SWAP1 PUSH0 MSTORE PUSH1 0x20 PUSH0 KECCAK256 SWAP1 PUSH1 0x2 MUL ADD PUSH0 SWAP1 SWAP2 SWAP1 SWAP2 SWAP1 SWAP2 POP PUSH0 DUP3 ADD MLOAD DUP2 PUSH0 ADD SSTORE PUSH1 0x20 DUP3 ADD MLOAD DUP2 PUSH1 0x1 ADD SWAP1 DUP2 PUSH2 0x6F5 SWAP2 SWAP1 PUSH2 0xC37 JUMP JUMPDEST POP POP POP PUSH1 0x1 PUSH1 0x40 MLOAD DUP1 PUSH1 0x40 ADD PUSH1 0x40 MSTORE DUP1 PUSH1 0x1 DUP2 MSTORE PUSH1 0x20 ADD PUSH1 0x40 MLOAD DUP1 PUSH1 0x40 ADD PUSH1 0x40 MSTORE DUP1 PUSH1 0x1 DUP2 MSTORE PUSH1 0x20 ADD PUSH32 0x4900000000000000000000000000000000000000000000000000000000000000 DUP2 MSTORE POP DUP2 MSTORE POP SWAP1 DUP1 PUSH1 0x1 DUP2 SLOAD ADD DUP1 DUP3 SSTORE DUP1 SWAP2 POP POP PUSH1 0x1 SWAP1 SUB SWAP1 PUSH0 MSTORE PUSH1 0x20 PUSH0 KECCAK256 SWAP1 PUSH1 0x2 MUL ADD PUSH0 SWAP1 SWAP2 SWAP1 SWAP2 SWAP1 SWAP2 POP PUSH0 DUP3 ADD MLOAD DUP2 PUSH0 ADD SSTORE PUSH1 0x20 DUP3 ADD MLOAD DUP2 PUSH1 0x1 ADD SWAP1 DUP2 PUSH2 0x788 SWAP2 SWAP1 PUSH2 0xC37 JUMP JUMPDEST POP POP POP PUSH1 0x1 PUSH0 PUSH0 PUSH32 0x4900000000000000000000000000000000000000000000000000000000000000 PUSH31 0xFFFFFFFFFFFFFFFFFFFFFFFFFFFFFFFFFFFFFFFFFFFFFFFFFFFFFFFFFFFFFF NOT AND DUP2 MSTORE PUSH1 0x20 ADD SWAP1 DUP2 MSTORE PUSH1 0x20 ADD PUSH0 KECCAK256 DUP2 SWAP1 SSTORE POP PUSH1 0x5 PUSH0 PUSH0 PUSH32 0x5600000000000000000000000000000000000000000000000000000000000000 PUSH31 0xFFFFFFFFFFFFFFFFFFFFFFFFFFFFFFFFFFFFFFFFFFFFFFFFFFFFFFFFFFFFFF NOT AND DUP2 MSTORE PUSH1 0x20 ADD SWAP1 DUP2 MSTORE PUSH1 0x20 ADD PUSH0 KECCAK256 DUP2 SWAP1 SSTORE POP PUSH1 0xA PUSH0 PUSH0 PUSH32 0x5800000000000000000000000000000000000000000000000000000000000000 PUSH31 0xFFFFFFFFFFFFFFFFFFFFFFFFFFFFFFFFFFFFFFFFFFFFFFFFFFFFFFFFFFFFFF NOT AND DUP2 MSTORE PUSH1 0x20 ADD SWAP1 DUP2 MSTORE PUSH1 0x20 ADD PUSH0 KECCAK256 DUP2 SWAP1 SSTORE POP PUSH1 0x32 PUSH0 PUSH0 PUSH32 0x4C00000000000000000000000000000000000000000000000000000000000000 PUSH31 0xFFFFFFFFFFFFFFFFFFFFFFFFFFFFFFFFFFFFFFFFFFFFFFFFFFFFFFFFFFFFFF NOT AND DUP2 MSTORE PUSH1 0x20 ADD SWAP1 DUP2 MSTORE PUSH1 0x20 ADD PUSH0 KECCAK256 DUP2 SWAP1 SSTORE POP PUSH1 0x64 PUSH0 PUSH0 PUSH32 0x4300000000000000000000000000000000000000000000000000000000000000 PUSH31 0xFFFFFFFFFFFFFFFFFFFFFFFFFFFFFFFFFFFFFFFFFFFFFFFFFFFFFFFFFFFFFF NOT AND DUP2 MSTORE PUSH1 0x20 ADD SWAP1 DUP2 MSTORE PUSH1 0x20 ADD PUSH0 KECCAK256 DUP2 SWAP1 SSTORE POP PUSH2 0x1F4 PUSH0 PUSH0 PUSH32 0x4400000000000000000000000000000000000000000000000000000000000000 PUSH31 0xFFFFFFFFFFFFFFFFFFFFFFFFFFFFFFFFFFFFFFFFFFFFFFFFFFFFFFFFFFFFFF NOT AND DUP2 MSTORE PUSH1 0x20 ADD SWAP1 DUP2 MSTORE PUSH1 0x20 ADD PUSH0 KECCAK256 DUP2 SWAP1 SSTORE POP PUSH2 0x3E8 PUSH0 PUSH0 PUSH32 0x4D00000000000000000000000000000000000000000000000000000000000000 PUSH31 0xFFFFFFFFFFFFFFFFFFFFFFFFFFFFFFFFFFFFFFFFFFFFFFFFFFFFFFFFFFFFFF NOT AND DUP2 MSTORE PUSH1 0x20 ADD SWAP1 DUP2 MSTORE PUSH1 0x20 ADD PUSH0 KECCAK256 DUP2 SWAP1 SSTORE POP PUSH2 0xD06 JUMP JUMPDEST PUSH0 DUP2 MLOAD SWAP1 POP SWAP2 SWAP1 POP JUMP JUMPDEST PUSH32 0x4E487B7100000000000000000000000000000000000000000000000000000000 PUSH0 MSTORE PUSH1 0x41 PUSH1 0x4 MSTORE PUSH1 0x24 PUSH0 REVERT JUMPDEST PUSH32 0x4E487B7100000000000000000000000000000000000000000000000000000000 PUSH0 MSTORE PUSH1 0x22 PUSH1 0x4 MSTORE PUSH1 0x24 PUSH0 REVERT JUMPDEST PUSH0 PUSH1 0x2 DUP3 DIV SWAP1 POP PUSH1 0x1 DUP3 AND DUP1 PUSH2 0xA75 JUMPI PUSH1 0x7F DUP3 AND SWAP2 POP JUMPDEST PUSH1 0x20 DUP3 LT DUP2 SUB PUSH2 0xA88 JUMPI PUSH2 0xA87 PUSH2 0xA31 JUMP JUMPDEST JUMPDEST POP SWAP2 SWAP1 POP JUMP JUMPDEST PUSH0 DUP2 SWAP1 POP DUP2 PUSH0 MSTORE PUSH1 0x20 PUSH0 KECCAK256 SWAP1 POP SWAP2 SWAP1 POP JUMP JUMPDEST PUSH0 PUSH1 0x20 PUSH1 0x1F DUP4 ADD DIV SWAP1 POP SWAP2 SWAP1 POP JUMP JUMPDEST PUSH0 DUP3 DUP3 SHL SWAP1 POP SWAP3 SWAP2 POP POP JUMP JUMPDEST PUSH0 PUSH1 0x8 DUP4 MUL PUSH2 0xAEA PUSH32 0xFFFFFFFFFFFFFFFFFFFFFFFFFFFFFFFFFFFFFFFFFFFFFFFFFFFFFFFFFFFFFFFF DUP3 PUSH2 0xAAF JUMP JUMPDEST PUSH2 0xAF4 DUP7 DUP4 PUSH2 0xAAF JUMP JUMPDEST SWAP6 POP DUP1 NOT DUP5 AND SWAP4 POP DUP1 DUP7 AND DUP5 OR SWAP3 POP POP POP SWAP4 SWAP3 POP POP POP JUMP JUMPDEST PUSH0 DUP2 SWAP1 POP SWAP2 SWAP1 POP JUMP JUMPDEST PUSH0 DUP2 SWAP1 POP SWAP2 SWAP1 POP JUMP JUMPDEST PUSH0 PUSH2 0xB38 PUSH2 0xB33 PUSH2 0xB2E DUP5 PUSH2 0xB0C JUMP JUMPDEST PUSH2 0xB15 JUMP JUMPDEST PUSH2 0xB0C JUMP JUMPDEST SWAP1 POP SWAP2 SWAP1 POP JUMP JUMPDEST PUSH0 DUP2 SWAP1 POP SWAP2 SWAP1 POP JUMP JUMPDEST PUSH2 0xB51 DUP4 PUSH2 0xB1E JUMP JUMPDEST PUSH2 0xB65 PUSH2 0xB5D DUP3 PUSH2 0xB3F JUMP JUMPDEST DUP5 DUP5 SLOAD PUSH2 0xABB JUMP JUMPDEST DUP3 SSTORE POP POP POP POP JUMP JUMPDEST PUSH0 PUSH0 SWAP1 POP SWAP1 JUMP JUMPDEST PUSH2 0xB7C PUSH2 0xB6D JUMP JUMPDEST PUSH2 0xB87 DUP2 DUP5 DUP5 PUSH2 0xB48 JUMP JUMPDEST POP POP POP JUMP JUMPDEST JUMPDEST DUP2 DUP2 LT ISZERO PUSH2 0xBAA JUMPI PUSH2 0xB9F PUSH0 DUP3 PUSH2 0xB74 JUMP JUMPDEST PUSH1 0x1 DUP2 ADD SWAP1 POP PUSH2 0xB8D JUMP JUMPDEST POP POP JUMP JUMPDEST PUSH1 0x1F DUP3 GT ISZERO PUSH2 0xBEF JUMPI PUSH2 0xBC0 DUP2 PUSH2 0xA8E JUMP JUMPDEST PUSH2 0xBC9 DUP5 PUSH2 0xAA0 JUMP JUMPDEST DUP2 ADD PUSH1 0x20 DUP6 LT ISZERO PUSH2 0xBD8 JUMPI DUP2 SWAP1 POP JUMPDEST PUSH2 0xBEC PUSH2 0xBE4 DUP6 PUSH2 0xAA0 JUMP JUMPDEST DUP4 ADD DUP3 PUSH2 0xB8C JUMP JUMPDEST POP POP JUMPDEST POP POP POP JUMP JUMPDEST PUSH0 DUP3 DUP3 SHR SWAP1 POP SWAP3 SWAP2 POP POP JUMP JUMPDEST PUSH0 PUSH2 0xC0F PUSH0 NOT DUP5 PUSH1 0x8 MUL PUSH2 0xBF4 JUMP JUMPDEST NOT DUP1 DUP4 AND SWAP2 POP POP SWAP3 SWAP2 POP POP JUMP JUMPDEST PUSH0 PUSH2 0xC27 DUP4 DUP4 PUSH2 0xC00 JUMP JUMPDEST SWAP2 POP DUP3 PUSH1 0x2 MUL DUP3 OR SWAP1 POP SWAP3 SWAP2 POP POP JUMP JUMPDEST PUSH2 0xC40 DUP3 PUSH2 0x9FA JUMP JUMPDEST PUSH8 0xFFFFFFFFFFFFFFFF DUP2 GT ISZERO PUSH2 0xC59 JUMPI PUSH2 0xC58 PUSH2 0xA04 JUMP JUMPDEST JUMPDEST PUSH2 0xC63 DUP3 SLOAD PUSH2 0xA5E JUMP JUMPDEST PUSH2 0xC6E DUP3 DUP3 DUP6 PUSH2 0xBAE JUMP JUMPDEST PUSH0 PUSH1 0x20 SWAP1 POP PUSH1 0x1F DUP4 GT PUSH1 0x1 DUP2 EQ PUSH2 0xC9F JUMPI PUSH0 DUP5 ISZERO PUSH2 0xC8D JUMPI DUP3 DUP8 ADD MLOAD SWAP1 POP JUMPDEST PUSH2 0xC97 DUP6 DUP3 PUSH2 0xC1C JUMP JUMPDEST DUP7 SSTORE POP PUSH2 0xCFE JUMP JUMPDEST PUSH1 0x1F NOT DUP5 AND PUSH2 0xCAD DUP7 PUSH2 0xA8E JUMP JUMPDEST PUSH0 JUMPDEST DUP3 DUP2 LT ISZERO PUSH2 0xCD4 JUMPI DUP5 DUP10 ADD MLOAD DUP3 SSTORE PUSH1 0x1 DUP3 ADD SWAP2 POP PUSH1 0x20 DUP6 ADD SWAP5 POP PUSH1 0x20 DUP2 ADD SWAP1 POP PUSH2 0xCAF JUMP JUMPDEST DUP7 DUP4 LT ISZERO PUSH2 0xCF1 JUMPI DUP5 DUP10 ADD MLOAD PUSH2 0xCED PUSH1 0x1F DUP10 AND DUP3 PUSH2 0xC00 JUMP JUMPDEST DUP4 SSTORE POP JUMPDEST PUSH1 0x1 PUSH1 0x2 DUP9 MUL ADD DUP9 SSTORE POP POP POP JUMPDEST POP POP POP POP POP POP JUMP JUMPDEST PUSH2 0xB38 DUP1 PUSH2 0xD13 PUSH0 CODECOPY PUSH0 RETURN INVALID PUSH1 0x80 PUSH1 0x40 MSTORE CALLVALUE DUP1 ISZERO PUSH2 0xF JUMPI PUSH0 PUSH0 REVERT JUMPDEST POP PUSH1 0x4 CALLDATASIZE LT PUSH2 0x4A JUMPI PUSH0 CALLDATALOAD PUSH1 0xE0 SHR DUP1 PUSH4 0x2FEDF6D5 EQ PUSH2 0x4E JUMPI DUP1 PUSH4 0x303B5D3B EQ PUSH2 0x7F JUMPI DUP1 PUSH4 0x445458DC EQ PUSH2 0xAF JUMPI DUP1 PUSH4 0xAB7BAABE EQ PUSH2 0xDF JUMPI JUMPDEST PUSH0 PUSH0 REVERT JUMPDEST PUSH2 0x68 PUSH1 0x4 DUP1 CALLDATASIZE SUB DUP2 ADD SWAP1 PUSH2 0x63 SWAP2 SWAP1 PUSH2 0x53F JUMP JUMPDEST PUSH2 0x10F JUMP JUMPDEST PUSH1 0x40 MLOAD PUSH2 0x76 SWAP3 SWAP2 SWAP1 PUSH2 0x603 JUMP JUMPDEST PUSH1 0x40 MLOAD DUP1 SWAP2 SUB SWAP1 RETURN JUMPDEST PUSH2 0x99 PUSH1 0x4 DUP1 CALLDATASIZE SUB DUP2 ADD SWAP1 PUSH2 0x94 SWAP2 SWAP1 PUSH2 0x75D JUMP JUMPDEST PUSH2 0x1C4 JUMP JUMPDEST PUSH1 0x40 MLOAD PUSH2 0xA6 SWAP2 SWAP1 PUSH2 0x7BC JUMP JUMPDEST PUSH1 0x40 MLOAD DUP1 SWAP2 SUB SWAP1 RETURN JUMPDEST PUSH2 0xC9 PUSH1 0x4 DUP1 CALLDATASIZE SUB DUP2 ADD SWAP1 PUSH2 0xC4 SWAP2 SWAP1 PUSH2 0x82A JUMP JUMPDEST PUSH2 0x409 JUMP JUMPDEST PUSH1 0x40 MLOAD PUSH2 0xD6 SWAP2 SWAP1 PUSH2 0x7BC JUMP JUMPDEST PUSH1 0x40 MLOAD DUP1 SWAP2 SUB SWAP1 RETURN JUMPDEST PUSH2 0xF9 PUSH1 0x4 DUP1 CALLDATASIZE SUB DUP2 ADD SWAP1 PUSH2 0xF4 SWAP2 SWAP1 PUSH2 0x53F JUMP JUMPDEST PUSH2 0x41D JUMP JUMPDEST PUSH1 0x40 MLOAD PUSH2 0x106 SWAP2 SWAP1 PUSH2 0x855 JUMP JUMPDEST PUSH1 0x40 MLOAD DUP1 SWAP2 SUB SWAP1 RETURN JUMPDEST PUSH1 0x1 DUP2 DUP2 SLOAD DUP2 LT PUSH2 0x11E JUMPI PUSH0 DUP1 REVERT JUMPDEST SWAP1 PUSH0 MSTORE PUSH1 0x20 PUSH0 KECCAK256 SWAP1 PUSH1 0x2 MUL ADD PUSH0 SWAP2 POP SWAP1 POP DUP1 PUSH0 ADD SLOAD SWAP1 DUP1 PUSH1 0x1 ADD DUP1 SLOAD PUSH2 0x143 SWAP1 PUSH2 0x8A2 JUMP JUMPDEST DUP1 PUSH1 0x1F ADD PUSH1 0x20 DUP1 SWAP2 DIV MUL PUSH1 0x20 ADD PUSH1 0x40 MLOAD SWAP1 DUP2 ADD PUSH1 0x40 MSTORE DUP1 SWAP3 SWAP2 SWAP1 DUP2 DUP2 MSTORE PUSH1 0x20 ADD DUP3 DUP1 SLOAD PUSH2 0x16F SWAP1 PUSH2 0x8A2 JUMP JUMPDEST DUP1 ISZERO PUSH2 0x1BA JUMPI DUP1 PUSH1 0x1F LT PUSH2 0x191 JUMPI PUSH2 0x100 DUP1 DUP4 SLOAD DIV MUL DUP4 MSTORE SWAP2 PUSH1 0x20 ADD SWAP2 PUSH2 0x1BA JUMP JUMPDEST DUP3 ADD SWAP2 SWAP1 PUSH0 MSTORE PUSH1 0x20 PUSH0 KECCAK256 SWAP1 JUMPDEST DUP2 SLOAD DUP2 MSTORE SWAP1 PUSH1 0x1 ADD SWAP1 PUSH1 0x20 ADD DUP1 DUP4 GT PUSH2 0x19D JUMPI DUP3 SWAP1 SUB PUSH1 0x1F AND DUP3 ADD SWAP2 JUMPDEST POP POP POP POP POP SWAP1 POP DUP3 JUMP JUMPDEST PUSH0 PUSH0 PUSH0 SWAP1 POP PUSH0 DUP4 SWAP1 POP PUSH0 DUP2 MLOAD SWAP1 POP PUSH0 PUSH0 SWAP1 POP JUMPDEST DUP2 DUP2 LT ISZERO PUSH2 0x3FD JUMPI PUSH1 0x1 DUP3 PUSH2 0x1EC SWAP2 SWAP1 PUSH2 0x8FF JUMP JUMPDEST DUP2 LT DUP1 ISZERO PUSH2 0x2E7 JUMPI POP PUSH0 PUSH0 DUP5 PUSH1 0x1 DUP5 PUSH2 0x205 SWAP2 SWAP1 PUSH2 0x932 JUMP JUMPDEST DUP2 MLOAD DUP2 LT PUSH2 0x216 JUMPI PUSH2 0x215 PUSH2 0x965 JUMP JUMPDEST JUMPDEST PUSH1 0x20 ADD ADD MLOAD PUSH1 0xF8 SHR PUSH1 0xF8 SHL PUSH31 0xFFFFFFFFFFFFFFFFFFFFFFFFFFFFFFFFFFFFFFFFFFFFFFFFFFFFFFFFFFFFFF NOT AND PUSH31 0xFFFFFFFFFFFFFFFFFFFFFFFFFFFFFFFFFFFFFFFFFFFFFFFFFFFFFFFFFFFFFF NOT AND DUP2 MSTORE PUSH1 0x20 ADD SWAP1 DUP2 MSTORE PUSH1 0x20 ADD PUSH0 KECCAK256 SLOAD PUSH0 PUSH0 DUP6 DUP5 DUP2 MLOAD DUP2 LT PUSH2 0x288 JUMPI PUSH2 0x287 PUSH2 0x965 JUMP JUMPDEST JUMPDEST PUSH1 0x20 ADD ADD MLOAD PUSH1 0xF8 SHR PUSH1 0xF8 SHL PUSH31 0xFFFFFFFFFFFFFFFFFFFFFFFFFFFFFFFFFFFFFFFFFFFFFFFFFFFFFFFFFFFFFF NOT AND PUSH31 0xFFFFFFFFFFFFFFFFFFFFFFFFFFFFFFFFFFFFFFFFFFFFFFFFFFFFFFFFFFFFFF NOT AND DUP2 MSTORE PUSH1 0x20 ADD SWAP1 DUP2 MSTORE PUSH1 0x20 ADD PUSH0 KECCAK256 SLOAD SLT JUMPDEST ISZERO PUSH2 0x370 JUMPI PUSH0 PUSH0 DUP5 DUP4 DUP2 MLOAD DUP2 LT PUSH2 0x301 JUMPI PUSH2 0x300 PUSH2 0x965 JUMP JUMPDEST JUMPDEST PUSH1 0x20 ADD ADD MLOAD PUSH1 0xF8 SHR PUSH1 0xF8 SHL PUSH31 0xFFFFFFFFFFFFFFFFFFFFFFFFFFFFFFFFFFFFFFFFFFFFFFFFFFFFFFFFFFFFFF NOT AND PUSH31 0xFFFFFFFFFFFFFFFFFFFFFFFFFFFFFFFFFFFFFFFFFFFFFFFFFFFFFFFFFFFFFF NOT AND DUP2 MSTORE PUSH1 0x20 ADD SWAP1 DUP2 MSTORE PUSH1 0x20 ADD PUSH0 KECCAK256 SLOAD DUP5 PUSH2 0x369 SWAP2 SWAP1 PUSH2 0x992 JUMP JUMPDEST SWAP4 POP PUSH2 0x3F0 JUMP JUMPDEST PUSH0 PUSH0 DUP5 DUP4 DUP2 MLOAD DUP2 LT PUSH2 0x385 JUMPI PUSH2 0x384 PUSH2 0x965 JUMP JUMPDEST JUMPDEST PUSH1 0x20 ADD ADD MLOAD PUSH1 0xF8 SHR PUSH1 0xF8 SHL PUSH31 0xFFFFFFFFFFFFFFFFFFFFFFFFFFFFFFFFFFFFFFFFFFFFFFFFFFFFFFFFFFFFFF NOT AND PUSH31 0xFFFFFFFFFFFFFFFFFFFFFFFFFFFFFFFFFFFFFFFFFFFFFFFFFFFFFFFFFFFFFF NOT AND DUP2 MSTORE PUSH1 0x20 ADD SWAP1 DUP2 MSTORE PUSH1 0x20 ADD PUSH0 KECCAK256 SLOAD DUP5 PUSH2 0x3ED SWAP2 SWAP1 PUSH2 0x9D2 JUMP JUMPDEST SWAP4 POP JUMPDEST DUP1 DUP1 PUSH1 0x1 ADD SWAP2 POP POP PUSH2 0x1D7 JUMP JUMPDEST POP DUP3 SWAP4 POP POP POP POP SWAP2 SWAP1 POP JUMP JUMPDEST PUSH0 PUSH1 0x20 MSTORE DUP1 PUSH0 MSTORE PUSH1 0x40 PUSH0 KECCAK256 PUSH0 SWAP2 POP SWAP1 POP SLOAD DUP2 JUMP JUMPDEST PUSH1 0x60 DUP1 PUSH0 DUP4 SWAP1 POP PUSH0 PUSH0 SWAP1 POP JUMPDEST PUSH1 0x1 DUP1 SLOAD SWAP1 POP DUP2 LT ISZERO PUSH2 0x4F0 JUMPI JUMPDEST PUSH1 0x1 DUP2 DUP2 SLOAD DUP2 LT PUSH2 0x44B JUMPI PUSH2 0x44A PUSH2 0x965 JUMP JUMPDEST JUMPDEST SWAP1 PUSH0 MSTORE PUSH1 0x20 PUSH0 KECCAK256 SWAP1 PUSH1 0x2 MUL ADD PUSH0 ADD SLOAD DUP3 LT PUSH2 0x4DB JUMPI PUSH1 0x1 DUP2 DUP2 SLOAD DUP2 LT PUSH2 0x474 JUMPI PUSH2 0x473 PUSH2 0x965 JUMP JUMPDEST JUMPDEST SWAP1 PUSH0 MSTORE PUSH1 0x20 PUSH0 KECCAK256 SWAP1 PUSH1 0x2 MUL ADD PUSH0 ADD SLOAD DUP3 PUSH2 0x48E SWAP2 SWAP1 PUSH2 0x8FF JUMP JUMPDEST SWAP2 POP DUP3 PUSH1 0x1 DUP3 DUP2 SLOAD DUP2 LT PUSH2 0x4A5 JUMPI PUSH2 0x4A4 PUSH2 0x965 JUMP JUMPDEST JUMPDEST SWAP1 PUSH0 MSTORE PUSH1 0x20 PUSH0 KECCAK256 SWAP1 PUSH1 0x2 MUL ADD PUSH1 0x1 ADD PUSH1 0x40 MLOAD PUSH1 0x20 ADD PUSH2 0x4C5 SWAP3 SWAP2 SWAP1 PUSH2 0xADF JUMP JUMPDEST PUSH1 0x40 MLOAD PUSH1 0x20 DUP2 DUP4 SUB SUB DUP2 MSTORE SWAP1 PUSH1 0x40 MSTORE SWAP3 POP PUSH2 0x437 JUMP JUMPDEST PUSH0 DUP3 SUB ISZERO PUSH2 0x4F0 JUMPI DUP1 DUP1 PUSH1 0x1 ADD SWAP2 POP POP PUSH2 0x429 JUMP JUMPDEST POP DUP2 SWAP3 POP POP POP SWAP2 SWAP1 POP JUMP JUMPDEST PUSH0 PUSH1 0x40 MLOAD SWAP1 POP SWAP1 JUMP JUMPDEST PUSH0 PUSH0 REVERT JUMPDEST PUSH0 PUSH0 REVERT JUMPDEST PUSH0 DUP2 SWAP1 POP SWAP2 SWAP1 POP JUMP JUMPDEST PUSH2 0x51E DUP2 PUSH2 0x50C JUMP JUMPDEST DUP2 EQ PUSH2 0x528 JUMPI PUSH0 PUSH0 REVERT JUMPDEST POP JUMP JUMPDEST PUSH0 DUP2 CALLDATALOAD SWAP1 POP PUSH2 0x539 DUP2 PUSH2 0x515 JUMP JUMPDEST SWAP3 SWAP2 POP POP JUMP JUMPDEST PUSH0 PUSH1 0x20 DUP3 DUP5 SUB SLT ISZERO PUSH2 0x554 JUMPI PUSH2 0x553 PUSH2 0x504 JUMP JUMPDEST JUMPDEST PUSH0 PUSH2 0x561 DUP5 DUP3 DUP6 ADD PUSH2 0x52B JUMP JUMPDEST SWAP2 POP POP SWAP3 SWAP2 POP POP JUMP JUMPDEST PUSH2 0x573 DUP2 PUSH2 0x50C JUMP JUMPDEST DUP3 MSTORE POP POP JUMP JUMPDEST PUSH0 DUP2 MLOAD SWAP1 POP SWAP2 SWAP1 POP JUMP JUMPDEST PUSH0 DUP3 DUP3 MSTORE PUSH1 0x20 DUP3 ADD SWAP1 POP SWAP3 SWAP2 POP POP JUMP JUMPDEST PUSH0 JUMPDEST DUP4 DUP2 LT ISZERO PUSH2 0x5B0 JUMPI DUP1 DUP3 ADD MLOAD DUP2 DUP5 ADD MSTORE PUSH1 0x20 DUP2 ADD SWAP1 POP PUSH2 0x595 JUMP JUMPDEST PUSH0 DUP5 DUP5 ADD MSTORE POP POP POP POP JUMP JUMPDEST PUSH0 PUSH1 0x1F NOT PUSH1 0x1F DUP4 ADD AND SWAP1 POP SWAP2 SWAP1 POP JUMP JUMPDEST PUSH0 PUSH2 0x5D5 DUP3 PUSH2 0x579 JUMP JUMPDEST PUSH2 0x5DF DUP2 DUP6 PUSH2 0x583 JUMP JUMPDEST SWAP4 POP PUSH2 0x5EF DUP2 DUP6 PUSH1 0x20 DUP7 ADD PUSH2 0x593 JUMP JUMPDEST PUSH2 0x5F8 DUP2 PUSH2 0x5BB JUMP JUMPDEST DUP5 ADD SWAP2 POP POP SWAP3 SWAP2 POP POP JUMP JUMPDEST PUSH0 PUSH1 0x40 DUP3 ADD SWAP1 POP PUSH2 0x616 PUSH0 DUP4 ADD DUP6 PUSH2 0x56A JUMP JUMPDEST DUP2 DUP2 SUB PUSH1 0x20 DUP4 ADD MSTORE PUSH2 0x628 DUP2 DUP5 PUSH2 0x5CB JUMP JUMPDEST SWAP1 POP SWAP4 SWAP3 POP POP POP JUMP JUMPDEST PUSH0 PUSH0 REVERT JUMPDEST PUSH0 PUSH0 REVERT JUMPDEST PUSH32 0x4E487B7100000000000000000000000000000000000000000000000000000000 PUSH0 MSTORE PUSH1 0x41 PUSH1 0x4 MSTORE PUSH1 0x24 PUSH0 REVERT JUMPDEST PUSH2 0x66F DUP3 PUSH2 0x5BB JUMP JUMPDEST DUP2 ADD DUP2 DUP2 LT PUSH8 0xFFFFFFFFFFFFFFFF DUP3 GT OR ISZERO PUSH2 0x68E JUMPI PUSH2 0x68D PUSH2 0x639 JUMP JUMPDEST JUMPDEST DUP1 PUSH1 0x40 MSTORE POP POP POP JUMP JUMPDEST PUSH0 PUSH2 0x6A0 PUSH2 0x4FB JUMP JUMPDEST SWAP1 POP PUSH2 0x6AC DUP3 DUP3 PUSH2 0x666 JUMP JUMPDEST SWAP2 SWAP1 POP JUMP JUMPDEST PUSH0 PUSH8 0xFFFFFFFFFFFFFFFF DUP3 GT ISZERO PUSH2 0x6CB JUMPI PUSH2 0x6CA PUSH2 0x639 JUMP JUMPDEST JUMPDEST PUSH2 0x6D4 DUP3 PUSH2 0x5BB JUMP JUMPDEST SWAP1 POP PUSH1 0x20 DUP2 ADD SWAP1 POP SWAP2 SWAP1 POP JUMP JUMPDEST DUP3 DUP2 DUP4 CALLDATACOPY PUSH0 DUP4 DUP4 ADD MSTORE POP POP POP JUMP JUMPDEST PUSH0 PUSH2 0x701 PUSH2 0x6FC DUP5 PUSH2 0x6B1 JUMP JUMPDEST PUSH2 0x697 JUMP JUMPDEST SWAP1 POP DUP3 DUP2 MSTORE PUSH1 0x20 DUP2 ADD DUP5 DUP5 DUP5 ADD GT ISZERO PUSH2 0x71D JUMPI PUSH2 0x71C PUSH2 0x635 JUMP JUMPDEST JUMPDEST PUSH2 0x728 DUP5 DUP3 DUP6 PUSH2 0x6E1 JUMP JUMPDEST POP SWAP4 SWAP3 POP POP POP JUMP JUMPDEST PUSH0 DUP3 PUSH1 0x1F DUP4 ADD SLT PUSH2 0x744 JUMPI PUSH2 0x743 PUSH2 0x631 JUMP JUMPDEST JUMPDEST DUP2 CALLDATALOAD PUSH2 0x754 DUP5 DUP3 PUSH1 0x20 DUP7 ADD PUSH2 0x6EF JUMP JUMPDEST SWAP2 POP POP SWAP3 SWAP2 POP POP JUMP JUMPDEST PUSH0 PUSH1 0x20 DUP3 DUP5 SUB SLT ISZERO PUSH2 0x772 JUMPI PUSH2 0x771 PUSH2 0x504 JUMP JUMPDEST JUMPDEST PUSH0 DUP3 ADD CALLDATALOAD PUSH8 0xFFFFFFFFFFFFFFFF DUP2 GT ISZERO PUSH2 0x78F JUMPI PUSH2 0x78E PUSH2 0x508 JUMP JUMPDEST JUMPDEST PUSH2 0x79B DUP5 DUP3 DUP6 ADD PUSH2 0x730 JUMP JUMPDEST SWAP2 POP POP SWAP3 SWAP2 POP POP JUMP JUMPDEST PUSH0 DUP2 SWAP1 POP SWAP2 SWAP1 POP JUMP JUMPDEST PUSH2 0x7B6 DUP2 PUSH2 0x7A4 JUMP JUMPDEST DUP3 MSTORE POP POP JUMP JUMPDEST PUSH0 PUSH1 0x20 DUP3 ADD SWAP1 POP PUSH2 0x7CF PUSH0 DUP4 ADD DUP5 PUSH2 0x7AD JUMP JUMPDEST SWAP3 SWAP2 POP POP JUMP JUMPDEST PUSH0 PUSH32 0xFF00000000000000000000000000000000000000000000000000000000000000 DUP3 AND SWAP1 POP SWAP2 SWAP1 POP JUMP JUMPDEST PUSH2 0x809 DUP2 PUSH2 0x7D5 JUMP JUMPDEST DUP2 EQ PUSH2 0x813 JUMPI PUSH0 PUSH0 REVERT JUMPDEST POP JUMP JUMPDEST PUSH0 DUP2 CALLDATALOAD SWAP1 POP PUSH2 0x824 DUP2 PUSH2 0x800 JUMP JUMPDEST SWAP3 SWAP2 POP POP JUMP JUMPDEST PUSH0 PUSH1 0x20 DUP3 DUP5 SUB SLT ISZERO PUSH2 0x83F JUMPI PUSH2 0x83E PUSH2 0x504 JUMP JUMPDEST JUMPDEST PUSH0 PUSH2 0x84C DUP5 DUP3 DUP6 ADD PUSH2 0x816 JUMP JUMPDEST SWAP2 POP POP SWAP3 SWAP2 POP POP JUMP JUMPDEST PUSH0 PUSH1 0x20 DUP3 ADD SWAP1 POP DUP2 DUP2 SUB PUSH0 DUP4 ADD MSTORE PUSH2 0x86D DUP2 DUP5 PUSH2 0x5CB JUMP JUMPDEST SWAP1 POP SWAP3 SWAP2 POP POP JUMP JUMPDEST PUSH32 0x4E487B7100000000000000000000000000000000000000000000000000000000 PUSH0 MSTORE PUSH1 0x22 PUSH1 0x4 MSTORE PUSH1 0x24 PUSH0 REVERT JUMPDEST PUSH0 PUSH1 0x2 DUP3 DIV SWAP1 POP PUSH1 0x1 DUP3 AND DUP1 PUSH2 0x8B9 JUMPI PUSH1 0x7F DUP3 AND SWAP2 POP JUMPDEST PUSH1 0x20 DUP3 LT DUP2 SUB PUSH2 0x8CC JUMPI PUSH2 0x8CB PUSH2 0x875 JUMP JUMPDEST JUMPDEST POP SWAP2 SWAP1 POP JUMP JUMPDEST PUSH32 0x4E487B7100000000000000000000000000000000000000000000000000000000 PUSH0 MSTORE PUSH1 0x11 PUSH1 0x4 MSTORE PUSH1 0x24 PUSH0 REVERT JUMPDEST PUSH0 PUSH2 0x909 DUP3 PUSH2 0x50C JUMP JUMPDEST SWAP2 POP PUSH2 0x914 DUP4 PUSH2 0x50C JUMP JUMPDEST SWAP3 POP DUP3 DUP3 SUB SWAP1 POP DUP2 DUP2 GT ISZERO PUSH2 0x92C JUMPI PUSH2 0x92B PUSH2 0x8D2 JUMP JUMPDEST JUMPDEST SWAP3 SWAP2 POP POP JUMP JUMPDEST PUSH0 PUSH2 0x93C DUP3 PUSH2 0x50C JUMP JUMPDEST SWAP2 POP PUSH2 0x947 DUP4 PUSH2 0x50C JUMP JUMPDEST SWAP3 POP DUP3 DUP3 ADD SWAP1 POP DUP1 DUP3 GT ISZERO PUSH2 0x95F JUMPI PUSH2 0x95E PUSH2 0x8D2 JUMP JUMPDEST JUMPDEST SWAP3 SWAP2 POP POP JUMP JUMPDEST PUSH32 0x4E487B7100000000000000000000000000000000000000000000000000000000 PUSH0 MSTORE PUSH1 0x32 PUSH1 0x4 MSTORE PUSH1 0x24 PUSH0 REVERT JUMPDEST PUSH0 PUSH2 0x99C DUP3 PUSH2 0x7A4 JUMP JUMPDEST SWAP2 POP PUSH2 0x9A7 DUP4 PUSH2 0x7A4 JUMP JUMPDEST SWAP3 POP DUP3 DUP3 SUB SWAP1 POP DUP2 DUP2 SLT PUSH0 DUP5 SLT AND DUP3 DUP3 SGT PUSH0 DUP6 SLT ISZERO AND OR ISZERO PUSH2 0x9CC JUMPI PUSH2 0x9CB PUSH2 0x8D2 JUMP JUMPDEST JUMPDEST SWAP3 SWAP2 POP POP JUMP JUMPDEST PUSH0 PUSH2 0x9DC DUP3 PUSH2 0x7A4 JUMP JUMPDEST SWAP2 POP PUSH2 0x9E7 DUP4 PUSH2 0x7A4 JUMP JUMPDEST SWAP3 POP DUP3 DUP3 ADD SWAP1 POP DUP3 DUP2 SLT ISZERO PUSH0 DUP4 SLT AND DUP4 DUP3 SLT PUSH0 DUP5 SLT ISZERO AND OR ISZERO PUSH2 0xA0D JUMPI PUSH2 0xA0C PUSH2 0x8D2 JUMP JUMPDEST JUMPDEST SWAP3 SWAP2 POP POP JUMP JUMPDEST PUSH0 DUP2 SWAP1 POP SWAP3 SWAP2 POP POP JUMP JUMPDEST PUSH0 PUSH2 0xA27 DUP3 PUSH2 0x579 JUMP JUMPDEST PUSH2 0xA31 DUP2 DUP6 PUSH2 0xA13 JUMP JUMPDEST SWAP4 POP PUSH2 0xA41 DUP2 DUP6 PUSH1 0x20 DUP7 ADD PUSH2 0x593 JUMP JUMPDEST DUP1 DUP5 ADD SWAP2 POP POP SWAP3 SWAP2 POP POP JUMP JUMPDEST PUSH0 DUP2 SWAP1 POP DUP2 PUSH0 MSTORE PUSH1 0x20 PUSH0 KECCAK256 SWAP1 POP SWAP2 SWAP1 POP JUMP JUMPDEST PUSH0 DUP2 SLOAD PUSH2 0xA6B DUP2 PUSH2 0x8A2 JUMP JUMPDEST PUSH2 0xA75 DUP2 DUP7 PUSH2 0xA13 JUMP JUMPDEST SWAP5 POP PUSH1 0x1 DUP3 AND PUSH0 DUP2 EQ PUSH2 0xA8F JUMPI PUSH1 0x1 DUP2 EQ PUSH2 0xAA4 JUMPI PUSH2 0xAD6 JUMP JUMPDEST PUSH1 0xFF NOT DUP4 AND DUP7 MSTORE DUP2 ISZERO ISZERO DUP3 MUL DUP7 ADD SWAP4 POP PUSH2 0xAD6 JUMP JUMPDEST PUSH2 0xAAD DUP6 PUSH2 0xA4D JUMP JUMPDEST PUSH0 JUMPDEST DUP4 DUP2 LT ISZERO PUSH2 0xACE JUMPI DUP2 SLOAD DUP2 DUP10 ADD MSTORE PUSH1 0x1 DUP3 ADD SWAP2 POP PUSH1 0x20 DUP2 ADD SWAP1 POP PUSH2 0xAAF JUMP JUMPDEST DUP4 DUP9 ADD SWAP6 POP POP POP JUMPDEST POP POP POP SWAP3 SWAP2 POP POP JUMP JUMPDEST PUSH0 PUSH2 0xAEA DUP3 DUP6 PUSH2 0xA1D JUMP JUMPDEST SWAP2 POP PUSH2 0xAF6 DUP3 DUP5 PUSH2 0xA5F JUMP JUMPDEST SWAP2 POP DUP2 SWAP1 POP SWAP4 SWAP3 POP POP POP JUMP INVALID LOG2 PUSH5 0x6970667358 0x22 SLT KECCAK256 SWAP15 LOG0 0xDA SWAP3 SUB 0xA7 0xF 0x4E KECCAK256 RJUMP 0x3505 0xF7 PUSH4 0xB44454D6 0xA7 0x2C 0xF EXTDELEGATECALL CALLDATASIZE LOG2 0xA5 0xDF 0xC0 0xAA JUMPDEST 0x22 0xDF JUMPI PUSH5 0x736F6C6343 STOP ADDMOD 0x1E STOP CALLER "
				},
				"gasEstimates": {
					"creation": {
						"codeDepositCost": "574400",
						"executionCost": "infinite",
						"totalCost": "infinite"
					},
					"external": {
						"romanMap(bytes1)": "2781",
						"romanNumbers(uint256)": "infinite",
						"toInt(string)": "infinite",
						"toRoman(uint256)": "infinite"
					}
				},
				"methodIdentifiers": {
					"romanMap(bytes1)": "445458dc",
					"romanNumbers(uint256)": "2fedf6d5",
					"toInt(string)": "303b5d3b",
					"toRoman(uint256)": "ab7baabe"
				}
			},
			"storageLayout": {
				"storage": [
					{
						"astId": 10,
						"contract": "RomanNumber.sol:RomanNumber",
						"label": "romanMap",
						"offset": 0,
						"slot": "0",
						"type": "t_mapping(t_bytes1,t_int256)"
					},
					{
						"astId": 14,
						"contract": "RomanNumber.sol:RomanNumber",
						"label": "romanNumbers",
						"offset": 0,
						"slot": "1",
						"type": "t_array(t_struct(Roman)6_storage)dyn_storage"
					}
				],
				"types": {
					"t_array(t_struct(Roman)6_storage)dyn_storage": {
						"base": "t_struct(Roman)6_storage",
						"encoding": "dynamic_array",
						"label": "struct RomanNumber.Roman[]",
						"numberOfBytes": "32"
					},
					"t_bytes1": {
						"encoding": "inplace",
						"label": "bytes1",
						"numberOfBytes": "1"
					},
					"t_int256": {
						"encoding": "inplace",
						"label": "int256",
						"numberOfBytes": "32"
					},
					"t_mapping(t_bytes1,t_int256)": {
						"encoding": "mapping",
						"key": "t_bytes1",
						"label": "mapping(bytes1 => int256)",
						"numberOfBytes": "32",
						"value": "t_int256"
					},
					"t_string_storage": {
						"encoding": "bytes",
						"label": "string",
						"numberOfBytes": "32"
					},
					"t_struct(Roman)6_storage": {
						"encoding": "inplace",
						"label": "struct RomanNumber.Roman",
						"members": [
							{
								"astId": 3,
								"contract": "RomanNumber.sol:RomanNumber",
								"label": "value",
								"offset": 0,
								"slot": "0",
								"type": "t_uint256"
							},
							{
								"astId": 5,
								"contract": "RomanNumber.sol:RomanNumber",
								"label": "symbol",
								"offset": 0,
								"slot": "1",
								"type": "t_string_storage"
							}
						],
						"numberOfBytes": "64"
					},
					"t_uint256": {
						"encoding": "inplace",
						"label": "uint256",
						"numberOfBytes": "32"
					}
				}
			},
			"userdoc": {
				"kind": "user",
				"methods": {},
				"version": 1
			}
		}
	}
}